:020000040800F2
:10000000580B0020CD01000809340008E92C000835
:10001000053400083D040008DD3A00080000000037
:10002000000000000000000000000000353400085F
:100030006D040008000000000B340008373400088D
:10004000E7010008E7010008E7010008E7010008F0
:10005000E7010008E7010008E7010008E7010008E0
:10006000E7010008E7010008E7010008E7010008D0
:10007000E7010008E7010008E7010008E7010008C0
:10008000E7010008E7010008E7010008E7010008B0
:10009000E7010008E7010008E7010008E7010008A0
:1000A000E701000841340008E7010008E701000803
:1000B00051340008E7010008E7010008E7010008E3
:1000C000E7010008E7010008E7010008E701000870
:1000D000E7010008153A0008E7010008E7010008F9
:1000E000E7010008E7010008E7010008E701000850
:1000F000E7010008E7010008E7010008E701000840
:10010000E7010008E7010008E7010008E70100082F
:10011000E7010008E7010008E7010008E70100081F
:10012000E7010008E7010008E7010008E70100080F
:1001300000F002F800F03AF80AA090E8000C8244BF
:100140008344AAF10107DA4501D100F02FF8AFF29C
:10015000090EBAE80F0013F0010F18BFFB1A43F0A5
:1001600001031847F460000014610000103A24BF36
:1001700078C878C1FAD8520724BF30C830C144BF0C
:1001800004680C607047000000230024002500264E
:10019000103A28BF78C1FBD8520728BF30C148BFEA
:1001A0000B6070471FB51FBD10B510BD00F06EF895
:1001B0001146FFF7F7FF04F05FFC00F08CF803B482
:1001C000FFF7F2FF03BC03F00EFD00000948804773
:1001D00009480047FEE7FEE7FEE7FEE7FEE7FEE729
:1001E000FEE7FEE7FEE7FEE704480549054A064B41
:1001F000704700003F340008310100085805002016
:10020000580B0020580700205807002070474FF077
:10021000000200B5134694469646203922BFA0E856
:100220000C50A0E80C50B1F12001BFF4F7AF090762
:1002300028BFA0E80C5048BF0CC05DF804EB890053
:1002400028BF40F8042B08BF704748BF20F8022B96
:1002500011F0804F18BF00F8012B704770477047AE
:100260007047704710B500F009F8006810BD10B570
:10027000044600F003F8046010BD00000048704719
:10028000F404002000487047F40400207546FFF78E
:10029000F9FFAE4605006946534620F00700854643
:1002A00018B020B5FFF7A0FFBDE820404FF00006D2
:1002B0004FF000074FF000084FF0000B21F007014E
:1002C000AC46ACE8C009ACE8C009ACE8C009ACE891
:1002D000C0098D46704710B50446AFF30080204634
:1002E000BDE81040FFF76BBF70B5044600252068DD
:1002F000806800F00100F0B12068806820F0010003
:100300002168886001F08AF805460EE001F086F861
:10031000401B022809D9A06A40F01000A062E06AE0
:1003200040F00100E062012070BD2068806800F0AC
:1003300001000028EAD10020F6E770B505466C6A96
:10034000A06A00F05000E0B9A06A40F40070A0621A
:100350002068806800F46020B0F5602F0DD1207B0C
:1003600058B9A06A20F48070A062A06A00F480509E
:1003700018B9A06A40F00100A062204600F05EFBC0
:1003800003E0206A016B2846884770BD70B50546BA
:100390006C6AA06A40F04000A062E06A40F004008D
:1003A000E062204600F04CFB70BD70B50446656A03
:1003B000284600F044FB70BD38B5044600250020F7
:1003C00000902068806800F0010080BB2068806891
:1003D00040F0010021688860164800681649B0FBAB
:1003E000F1F0009002E00098401E00900098002874
:1003F000F9D101F013F8054613E001F00FF8401BA6
:1004000002280ED9A06A40F01000A062E06A40F015
:100410000100E06200BF002084F8240000BF01203A
:1004200038BD2068806800F001000028E5D0002079
:10043000F6E700000000002040420F0000BFFEE78A
:1004400030B590F840500124AC40C56B6C60046836
:1004500063604468102C04D10468A2600468E16001
:1004600003E00468A1600468E26030BD70470000EA
:100470002DE9FC410546002000900190C04800781D
:1004800001287DD1BF480068BF490860BC4800789A
:100490008DF80000BA484088ADF80200B8480079ED
:1004A0008DF80400B64840798DF80500B44880798D
:1004B0008DF80600B248C0798DF807000020B049D9
:1004C0000870BDF80200A0F2DC50B04908604FF49B
:1004D000FA725142AD48006804F015F9AB49086062
:1004E000002D53D0012D7ED1A948AA490860AA4900
:1004F0000860A648006832284CDD0120A749087032
:10050000A74908700020A5494883A54948839F480A
:100510000668002E01DB304600E0704247F23051A1
:1005200048434FF4FA7190FBF1F7384605F042FC6E
:1005300004469A48007C9949C97A88420ED02046E0
:1005400005F0FCFB074644F21A12002104F0DBF828
:10055000064605F02FFC9349086001E091480460CD
:100560008F48007C8E49C97A884210D0204605F019
:10057000E5FB074644F21A12002104F0C4F800E03B
:10058000CEE0064605F016FC874908602CE0864858
:10059000046029E07D48006805F00CFC06468349AC
:1005A00005F034FC04D27948006804F04DFB1BE0F0
:1005B00000207A4908707A49087078494883784958
:1005C00048839DF8050038B1012074490874002063
:1005D0007349087408E006E000207049087401209F
:1005E0006F49087400E000BF7B20714908707D20CE
:1005F00088726A48C08AC8806848808B44F638216F
:10060000062202FB00106A49C8806449888A05F006
:10061000E9FB80464FF07E5105F02CFC074665490A
:1006200005F05CFA064605F0A5FB6149C8805B4809
:10063000008B642190FBF1F05D4908815748007AF6
:10064000012801D108811FE054488078012803D196
:1006500002205749088117E050480079012803D14A
:100660000320534908810FE04C484078012803D10A
:1006700004204F49088107E04848C08A4FF47A7146
:1006800090FBF1F04A4908814449488A05F0AAFBE9
:100690000746494905F0EEFB064605F06BFB474966
:1006A00008803F49488A05F09DFB0746424905F00E
:1006B000E1FB064605F05EFB414908803F480088A3
:1006C00010B10846008860B93C48008820B93C4811
:1006D00000883749488013E038480088344948800A
:1006E0000EE03648008836490988884204DD3448DF
:1006F00000882F49488003E0304800882C49488012
:100700002649898A264A928A881800EBD071C1F35B
:100710004F01274A91800C21104604F015FD2CE072
:1007200018490968184A1268881A03F0E5FFB0F5FD
:100730007A7F22DD002019490870194908700120CC
:1007400016494883164948831E48007801280CD171
:100750001D49888805F046FB1C4908601A498888AD
:1007600005F040FB1A49086007E01A48008A0B4967
:10077000C8831848008A0A49C883BDE8FC81000084
:100780000C00002090020020080100201001002031
:100790000000FA45B80300200004002050020020A9
:1007A00070020020DC03002024040020000096C218
:1007B000E804002000709446D734EF3B0C01002081
:1007C0000E010020B6000020E000002048040020B8
:1007D0006C040020B8000020F8B504460026002074
:1007E000009000BF94F82400012801D10220F8BD38
:1007F000012084F8240000BF2046FFF775FD06465F
:10080000002E62D1A06A20F4885040F00200A0625D
:10081000022000F0D5FE30490968B1FBF0F040003D
:10082000009002E00098401E009000980028F9D146
:100830002046FFF7C1FD2068806840F0080021686D
:10084000886000F0EBFD054611E000F0E7FD401B7D
:100850000A280CD9A06A20F0020040F01000A06223
:1008600000BF002084F8240000BF0120BFE72068FB
:10087000806800F008000028E7D12068806840F018
:1008800004002168886000F0C9FD054611E000F011
:10089000C5FD401B0A280CD9A06A20F0020040F0D8
:1008A0001000A06200BF002084F8240000BF0120D7
:1008B0009DE72068806800F004000028E7D1A06A66
:1008C00020F0020040F00100A06200BF002084F888
:1008D000240000BF30468AE70000002038B50246F9
:1008E00000230020009000BF92F82400012801D1CD
:1008F000022038BD012082F8240000BF4868072884
:1009000012D21068406B0C79641E04EB84051F241E
:10091000AC40A0430D796D1E05EB85050C68AC401D
:1009200020431468606327E048680D2812D21068DD
:10093000006B0C79E41F04EB84051F24AC40A0433A
:100940000D79ED1F05EB85050C68AC40204314685C
:10095000206311E01068C06A0C790D3C04EB84053B
:100960001F24AC40A0430D790D3D05EB85050C68B7
:10097000AC4020431468E06208680A2812D310686B
:10098000C0680C780A3C04EB44050724AC40A04343
:100990000D780A3D05EB45058C68AC402043146892
:1009A000E0600FE0106800690C7804EB4405072450
:1009B000AC40A0430D7805EB45058C68AC40204366
:1009C000146820610868102802D00868112827D10F
:1009D000174C1068A0421ED11068806800F4000017
:1009E000F0B91068806840F400001468A0600868DE
:1009F000102815D10F4800680F4CB0FBF4F000EB45
:100A000080004000009002E00098401E0090009896
:100A10000028F9D104E0906A40F0200090620123A0
:100A200000BF002082F8240000BF184661E70000E4
:100A3000002401400000002040420F007047704732
:100A4000704700002DE9F0410446002700250026EC
:100A5000A84614B90120BDE8F081A06810B1207D3E
:100A600000B100BFA06A30B90020E06284F8240021
:100A7000204600F097F82046FFF736FC0746A06AAC
:100A800000F01000002873D1002F7ED1A06A20F45E
:100A9000885040F00200A0623F4AD4E90001904231
:100AA00008D1E069B0F5402F02D14FF4002002E0F8
:100AB000E06900E0E0690143207B41EA4000064331
:100AC000A068B0F5807F02D0A068012802D14FF461
:100AD000807000E000200543207D012811D1207B9B
:100AE00038B9A069401E4FF4006141EA4030054327
:100AF00007E0A06A40F02000A062E06A40F0010038
:100B0000E0622068406820F469402843216848601A
:100B10002068806821490840304321688860A068C7
:100B2000B0F5807F02D0A068012802D14FF4807018
:100B300000E00020B0F5807F03D1208A401E4FEAFC
:100B400000582068C06A20F4700040EA080021685C
:100B5000C8622068806812490840B04209D100206C
:100B6000E062A06A20F0020040F00100A06211E003
:100B70000BE0A06A20F0020040F01000A062E06AE2
:100B800040F00100E062012704E0A06A40F010009C
:100B9000A062012738465EE7003C0140FDF7E1FF17
:100BA000FE0E1FFF704700002DE9F04104460D4680
:100BB0001646002757492068884203D056492068C6
:100BC000884205D15348001D006800F4702000E001
:100BD000002000287ED100BF94F82400012802D113
:100BE0000220BDE8F081012084F8240000BF2046E7
:100BF000FFF7E2FB0746002F6DD1A06A40F60161C6
:100C0000884340F48070A06243492068884209D13B
:100C10004048001D006800F4702008B9012002E07F
:100C2000002000E0012078B1A06A20F48010A062CA
:100C30002068406800F4806000B3A06A20F400508F
:100C400040F48050A06219E0A06A40F48010A062D5
:100C500030492068884203D02F492068884205D156
:100C60002C48001D006800F4806000E0002028B1DE
:100C7000A06A20F4005040F48050A062A06A00F402
:100C8000805020B1E06A20F00600E06201E0002020
:100C9000E06200BF002084F8240000BF1F48216AE2
:100CA00088621F48216AC8621E48216A08636FF083
:100CB0000200216808602068806840F48070216824
:100CC0008860226802F14C0133462A46206A00F00F
:100CD000AEF901E01AE014E02068806800F46020BA
:100CE000B0F5602F06D12068806840F4A00021682C
:100CF00088600CE02068806840F48010216888607B
:100D000005E000BF002084F8240000E001273846F9
:100D100067E7000000240140002801403B03000871
:100D2000AB0300088D0300080146002291F8210062
:100D3000022808D00420886300BF002081F820002A
:100D400000BF012070470868006820F00E000B68A3
:100D500018600868006820F001000B68186091F8BE
:100D6000403001209840CB6B5860012081F8210071
:100D700000BF002081F8200000BF1046E2E700001D
:100D800070B50446002594F82100022803D0042001
:100D9000A0630125C1E02068006820F00E002168F2
:100DA00008602068006820F00100216808605C4944
:100DB0002068884252D95A4978392068884201D13E
:100DC000012047E0564964392068884201D110204B
:100DD00040E0534950392068884201D1801539E0FC
:100DE0004F493C392068884201D1801432E04C4997
:100DF00028392068884202D14FF480302AE04849DF
:100E000014392068884202D14FF4801022E044490E
:100E10002068884201D140041CE042492068884291
:100E200001D1012016E03F4914312068884201D1E8
:100E300010200FE03B4928312068884201D18015FD
:100E400008E038493C312068884201D1801401E033
:100E50004FF480303349091F086051E03049783938
:100E60002068884201D1012047E02D49643920687B
:100E7000884201D1102040E0294950392068884239
:100E800001D1801539E026493C392068884201D1DA
:100E9000801432E0224928392068884202D14FF478
:100EA00080302AE01E4914392068884202D14FF46C
:100EB000801022E01A492068884201D140041CE0D9
:100EC00018492068884201D1012016E015491431E3
:100ED0002068884201D110200FE012492831206893
:100EE000884201D1801508E00E493C3120688842D3
:100EF00001D1801401E04FF4803009498039486005
:100F0000012084F8210000BF002084F8200000BFE9
:100F1000606B10B12046616B8847284670BD0000A9
:100F200080000240080402400146886B70470000C0
:100F30000146002209B9012070471E4B08689842FB
:100F40000BD21D4B0868C01A1423B0FBF3F08000CD
:100F5000086419480838C8630AE0164B0868C01AC4
:100F60001423B0FBF3F08000086412480838C8630B
:100F7000022081F821000868026843F6F07082437D
:100F8000D1E901031843CB6818430B6918434B6937
:100F900018438B691843CB69184302430868026001
:100FA00000208863012081F82100002081F82000C2
:100FB00000BFC1E708040240080002402DE9F041EB
:100FC00004460D4616461F464FF0000800BF94F831
:100FD0002000012802D10220BDE8F081012084F820
:100FE000200000BF94F82100012817D1022084F8C6
:100FF00021000020A0632068006820F00100216823
:1010000008603B46324629462046FFF719FA206819
:10101000006840F001002168086006E000BF002081
:1010200084F8200000BF4FF002084046D4E72DE9C5
:10103000F04104460D4616461F464FF0000800BF1B
:1010400094F82000012802D10220BDE8F08101209F
:1010500084F8200000BF94F8210001282CD1022040
:1010600084F821000020A0632068006820F00100BF
:10107000216808603B46324629462046FFF7E0F9E2
:10108000E06A30B12068006840F00E002168086016
:101090000BE02068006820F00400216808602068E8
:1010A000006840F00A00216808602068006840F08D
:1010B00001002168086006E000BF002084F82000DD
:1010C00000BF4FF002084046BFE700002DE9F84797
:1010D000024600239C467BE14FF0010808FA03F426
:1010E000D1F8008008EA0400A0427DD1DFF8F4A224
:1010F000D1F80480A8EB0A09D0453AD014DCB8F145
:10110000030F50D009DCB8F1000F31D0B8F1010F56
:101110001CD0B8F1020F49D120E0B8F1110F18D05E
:10112000B8F1120F42D11EE0B9F5881F25D006DCB8
:10113000B9F5803F20D0B9F5801F37D11AE0B9F555
:10114000001F18D0B9F5041F30D117E0D1F80CC03A
:101150002DE0D1F80C8008F1040C28E0D1F80C80C7
:1011600008F1080C23E0D1F80C8008F10C0C1EE00B
:1011700000BF00BF00BF00BF00BF00BFD1F80880A4
:10118000B8F1000F02D14FF0040C0BE0D1F8088049
:10119000B8F1010F03D14FF0080C146102E04FF0D9
:1011A000080C546103E04FF0000C00E000BF00BFEA
:1011B000FF2801D8904601E002F104084646FF28C6
:1011C00002D84FEA830803E0A3F108084FEA880831
:1011D0004746D6F800804FF00F0909FA07F928EAC8
:1011E00009080CFA07F900E07AE048EA0908C6F8AD
:1011F0000080D1F8048008F08058B8F1805F6FD18A
:1012000000BFDFF8E481D8F8188048F00108DFF863
:10121000D891C9F81880C846D8F8188008F0010895
:10122000CDF8008000BF00BF4FEAB9384FEA9309FC
:1012300058F829504FEA83784FEA18794FF00F0891
:1012400008FA09F825EA0805DFF8A081424502D12D
:101250004FF0000824E0DFF89881424502D14FF0BA
:1012600001081DE0DFF88C81424502D14FF00208F1
:1012700016E0DFF88481424502D14FF003080FE009
:10128000DFF87881424502D14FF0040808E0DFF82A
:101290007081424502D14FF0050801E04FF0060889
:1012A0004FEA83794FEA197908FA09F848EA0505FF
:1012B000DFF850814FEA930948F82950D1F80480AB
:1012C00008F48038B8F5803F0BD1DFF83C81D8F8BE
:1012D000008048EA0008DFF83091C9F800800AE091
:1012E00075E0DFF82481D8F8008028EA0008DFF8EC
:1012F0001891C9F80080D1F8048008F40038B8F5D6
:10130000003F0ED1DFF8008108F10408D8F8008012
:1013100048EA0008DFF8F09009F10409C9F80080F4
:101320000DE0DFF8E48008F10408D8F8008028EA2E
:101330000008DFF8D49009F10409C9F80080D1F859
:10134000048008F48018B8F5801F0ED1DFF8B8804B
:1013500008F10808D8F8008048EA0008DFF8A890EB
:1013600009F10809C9F800800DE0DFF89C8008F158
:101370000808D8F8008028EA0008DFF88C9009F106
:101380000809C9F80080D1F8048008F40018B8F5FD
:10139000001F0ED1DFF8708008F10C08D8F800802B
:1013A00048EA0008DFF8609009F10C09C9F80080EC
:1013B0000DE0DFF8548008F10C08D8F8008028EA26
:1013C0000008DFF8449009F10C09C9F800805B1CA3
:1013D000D1F8008028FA03F8B8F1000F7FF47CAE52
:1013E000BDE8F8870000111000100240000801401D
:1013F000000C0140001001400014014000180140A1
:10140000001C0140080001400004014002469368AE
:101410000B400BB1012000E000207047014800683C
:10142000704700001800002003480068034909784D
:10143000084401490860704718000020200000207F
:1014400010B50848006840F0100006490860032005
:1014500000F080F80F2000F007F800F02BF80020D3
:1014600010BD00000020024070B504460E48007810
:101470004FF47A71B1FBF0F00C490968B1FBF0F55B
:10148000284600F04BFD08B1012070BD102C07D29A
:1014900000222146501E00F01EF80548046001E0BD
:1014A0000120F2E70020F0E72000002000000020EB
:1014B0001C000020704701460846002809DB00F0A8
:1014C0001F0301229A4043099B0003F1E023C3F864
:1014D000002100BF70472DE9F05F80460D4616469B
:1014E000002702F0FDFA074639462A46334601F046
:1014F0000700C0F1070ABAF1040F02D94FF0040A3D
:1015000001E0C0F1070AD14600F1040ABAF1070F61
:1015100002D24FF0000A01E0A0F1030AD4464FF0D6
:10152000010A0AFA09FAAAF1010A0AEA020A0AFAFF
:101530000CFA4FF0010B0BFA0CFBABF1010B0BEAB1
:10154000030B4AEA0B042146404602F0D1FABDE8FB
:10155000F09F000000BF00F00702064B19684FF62D
:10156000FF031940044B0B4343EA0221014B19606E
:1015700000BF70470CED00E00000FA0500BF00BF9F
:1015800000BF00BF00BFBFF34F8F00BF00BF00BF51
:101590000948006800F4E06008490843001D064956
:1015A000086000BF00BF00BFBFF34F8F00BF00BF88
:1015B00000BF00BF00BFFDE70CED00E00000FA0532
:1015C0002DE9F04385B0064642A30FCB01AC0FC412
:1015D00044A0006800904FF0000800250027002478
:1015E000A146042E36D004DC012E3BD0022E6BD156
:1015F0005FE0082E32D0102E66D13B484468006868
:1016000000F0807000B301A8C4F38341475C04F488
:10161000803070B134484068C0F340401DF800800D
:1016200004F4803040B13148B0FBF8F000FB07F51E
:1016300002E02F4807FB00F52B48406800F48000CB
:10164000B0F5800F01D1A94603E068000321B0FB8B
:10165000F1F93AE000F0D2F9814636E000F0CEF937
:10166000814632E02048046A04F44070B0F5807F7F
:1016700005D104F0020010B14FF4004918E004F461
:101680004070B0F5007F07D11748406A00F00200B3
:1016900010B149F640490BE004F44070B0F5407FCA
:1016A00006D11148006800F4003008B14FF2244917
:1016B0000BE000F093F90C494968C1F38131491CF2
:1016C0004900B0FBF1F900E000BF00BF484605B09B
:1016D000BDE8F08302030405060708090A0B0C0D98
:1016E0000E0F1010010200000010024000127A00DC
:1016F00000093D00F8B5044600260025207800F0DA
:10170000010000286BD000274348C06900F08050DA
:1017100070B900BF4048C06940F080503E49C86180
:101720000846C06900F08050009000BF00BF01274C
:101730003A48006800F48070B0B93848006840F456
:10174000807036490860FFF769FE064606E0FFF73D
:1017500065FE801B642801D90320F8BD2F4800686E
:1017600000F480700028F2D02B48006A00F4407525
:101770002DB3A08800F44070A84220D02648006A0B
:1017800020F44075012026490860002008602248A6
:10179000056205F0010090B1FFF740FE064608E043
:1017A000FFF73CFE801B41F28831884201D90320BB
:1017B000D3E71948006A00F002000028F0D016486C
:1017C000006A20F440706168084313490862012FE1
:1017D00004D10846C06920F08050C86100BF20785D
:1017E00000F00200022807D10B48406820F4404076
:1017F000A168084308494860207800F010001028CC
:1018000007D10548406820F4800061690843024917
:1018100048600020A1E70000001002400070004076
:101820004004424270B504460D460CB9012070BD1B
:101830005A48006800F00700A8420ED257480068D6
:1018400020F007002843554908600846006800F06A
:101850000700A84201D00120E9E7207800F002004B
:1018600002281DD1207800F00400042805D14C483E
:10187000406840F4E0604A494860207800F0080081
:10188000082805D14648406840F460504449486003
:101890004348406820F0F000A16808434049486090
:1018A000207800F0010078B36068012806D13C4838
:1018B000006800F4003090B90120B8E760680228A1
:1018C00006D13748006800F0007040B90120AEE74B
:1018D0003348006800F0020008B90120A7E730484B
:1018E000406820F00300616808432D494860FFF715
:1018F00095FD064609E0FFF791FD801B41F2883116
:10190000884202D9032092E707E02548406800F0AA
:101910000C006168B0EB810FEDD12048006800F049
:101920000700A8420ED91D48006820F00700284390
:101930001A4908600846006800F00700A84201D074
:10194000012074E7207800F00400042807D114482F
:10195000406820F4E060E16808431149486020785D
:1019600000F00800082808D10D48406820F46050B5
:10197000216940EAC1000A49486000F03FF808497F
:101980004968C1F30311074A515CC8400649086021
:1019900006480068FFF768FD002048E70020024085
:1019A00000100240FA610008000000201C00002026
:1019B00001480068704700000000002000B5FFF7F4
:1019C000F7FF04494968C1F30221034A515CC8404A
:1019D00000BD0000001002400A62000800B5FFF7D9
:1019E000E7FF04494968C1F3C221034A515CC8407A
:1019F00000BD0000001002400A620008F0B585B08A
:101A00000FF26C0C9CE8E01001A8A0E8E0101CA507
:101A10002D68009500210022002300240020194D8C
:101A2000696801F00C05F5B1042D02D0082D19D11B
:101A300001E0154819E001ADC1F38346AC5D01F446
:101A4000803555B10F4D6D68C5F340451DF8052033
:101A50000D4D6543B5FBF2F302E00C4D04FB05F3BD
:101A6000184602E000BF084800BF00BF05B0F0BD47
:101A700002030405060708090A0B0C0D0E0F1010CF
:101A8000010200000010024000127A0000093D002F
:101A9000F8B504460CB90120F8BD207800F001002B
:101AA000002878D0F848406800F00C0004280CD0DA
:101AB000F548406800F00C00082811D1F248406851
:101AC00000F48030B0F5803F0AD1EF48006800F4A0
:101AD000003000285FD0606800285CD10120DBE77F
:101AE00000BF6068B0F5803F06D1E748006840F469
:101AF0008030E549086028E0606858B9E24800682D
:101B000020F48030E04908600846006820F4802016
:101B100008601AE06068B0F5A02F0BD1DA480068C1
:101B200040F48020D84908600846006840F48030BE
:101B300008600AE0D448006820F48030D249086088
:101B40000846006820F48020086000BF606888B103
:101B5000FFF764FC054606E0FFF760FC401B6428C5
:101B600001D9032098E7C848006800F40030002835
:101B7000F2D010E0FFF752FC054606E0FFF74EFCFE
:101B8000401B642801D9032086E7BF48006800F4A1
:101B900000300028F2D1207800F00200022857D14E
:101BA000B948406800F00C0050B1B748406800F0F8
:101BB0000C00082818D1B448406800F4803098B967
:101BC000B148006800F0020020B12069012801D06E
:101BD000012061E7AC48006820F0F800616940EA44
:101BE000C100A949086033E02069E8B10120A74994
:101BF0000860FFF713FC054606E0FFF70FFC401BEB
:101C0000022801D9032047E79F48006800F002003E
:101C10000028F2D09C48006820F0F800616940EA92
:101C2000C1009949086013E0002098490860FFF757
:101C3000F5FB054606E0FFF7F1FB401B022801D942
:101C4000032029E79048006800F002000028F2D144
:101C5000207800F0080008282DD1A069B8B1012033
:101C60008B490860FFF7DAFB054606E0FFF7D6FB75
:101C7000401B022801D903200EE78348406A00F088
:101C800002000028F2D0012001F0C0FB13E0002088
:101C90007F490860FFF7C2FB054606E0FFF7BEFB81
:101CA000401B022801D90320F6E67748406A00F07D
:101CB00002000028F2D1207800F00400042873D13B
:101CC00000277148C06900F0805070B900BF6E48AD
:101CD000C06940F080506C49C8610846C06900F096
:101CE0008050009000BF00BF01276A48006800F4E0
:101CF0008070B0B96748006840F48070654908603A
:101D0000FFF78CFB054606E0FFF788FB401B6428C5
:101D100001D90320C0E65F48006800F48070002805
:101D2000F2D000BFE068012806D15748006A40F0B1
:101D300001005549086227E0E06858B95248006A36
:101D400020F00100504908620846006A20F00400B3
:101D5000086219E0E06805280BD14B48006A40F0A2
:101D60000400494908620846006A40F00100086220
:101D70000AE04548006A20F001004349086208462D
:101D8000006A20F00400086200BFE068A0B1FFF71D
:101D900045FB054609E0FFF741FB401B41F2883156
:101DA000884202D9032077E622E03748006A00F033
:101DB00002000028EFD012E0FFF730FB054608E0F4
:101DC000FFF72CFB401B41F28831884201D90320E8
:101DD00062E62D48006A00F002000028F0D1012FD1
:101DE00005D12948C06920F080502749C86100BF4B
:101DF000E069C8B32448406800F00C00082860D0AF
:101E0000E069022848D1002020490866FFF706FB58
:101E1000054606E0FFF702FB401B022801D903201C
:101E20003AE61948006800F000700028F2D1206AF4
:101E3000B0F5803F07D11448406820F40030A16815
:101E4000084311494860D4E9080108430E4949682C
:101E500021F4741108430C49486001200B490866BD
:101E6000FFF7DCFA054607E03DE0FFF7D7FA401B35
:101E7000022801D903200FE60348006800F0007033
:101E80000028F2D02FE00000001002400000424283
:101E90008004424200700040002014490866FFF7A9
:101EA000BDFA054606E0FFF7B9FA401B022801D942
:101EB0000320F1E50E48006800F000700028F2D120
:101EC00011E0E069012800D1E6E50948466806F41A
:101ED0008031206A814204D106F47011606A814227
:101EE00001D00120D8E50020D6E5000000004242E4
:101EF00000100240042808D14FF0E021096941F0A8
:101F000004014FF0E022116107E04FF0E021096980
:101F100021F004014FF0E0221161704770B50446D2
:101F20002546681EB0F1807F01D301200FE0681EB6
:101F30004FF0E02148610F214FF0FF3001F0D8FD54
:101F400000204FF0E021886107200861002070BD6B
:101F50007047704710B50346002200BF93F83C005D
:101F6000012801D1022010BD012083F83C0000BFF0
:101F700022F0FF00CC6840EA040222F440708C6832
:101F800040EA040222F480604C6840EA040222F431
:101F900000600C6840EA040222F480500C6940EAB8
:101FA000040222F400504C6940EA040222F480400A
:101FB000CC6940EA04021868426400BF002083F83C
:101FC0003C0000BF00BFCEE770B504460D4615B912
:101FD00094F842000BE0042D02D14320005D06E09E
:101FE000082D02D14420005D01E04520005D01285C
:101FF00001D0012070BD1DB9022084F842000EE01E
:10200000042D03D102214320015508E0082D03D1FE
:1020100002214420015502E00221452001550422FD
:102020002946206801F0ABFA2068406C40F400407B
:102030002168486416492068884213D015492068F1
:1020400088420FD02068B0F1804F0BD01249206831
:10205000884207D011492068884203D0104920687F
:1020600088420CD12068806800F00706062E0CD04C
:102070002068006840F001002168086005E02068E1
:10208000006840F00100216808600020B2E700000D
:10209000002C0140003401400004004000080040D2
:1020A000000C004010B504460CB9012010BD94F896
:1020B0003D0028B9002084F83C00204600F025F8B7
:1020C000022084F83D00211D206801F0F9F901206B
:1020D00084F8460000BF84F83E0001213F200155EE
:1020E000402001554120015500BF00BF012084F868
:1020F000420043200155442001554520015500BFB1
:10210000012084F83D000020D0E77047014691F897
:102110003D00012801D001207047022081F83D00D8
:10212000164B0868984213D0154B086898420FD098
:102130000868B0F1804F0BD0124B0868984207D066
:10214000114B0868984203D0104B086898420CD194
:102150000868806800F00702062A0CD0086800684A
:1021600040F001000B68186005E00868006840F066
:1021700001000B6818600020CEE70000002C014031
:10218000003401400004004000080040000C004002
:10219000014691F83D00012801D00120704702203E
:1021A00081F83D000868C06840F001000B68D86005
:1021B000164B0868984213D0154B086898420FD008
:1021C0000868B0F1804F0BD0124B0868984207D0D6
:1021D000114B0868984203D0104B086898420CD104
:1021E0000868806800F00702062A0CD008680068BA
:1021F00040F001000B68186005E00868006840F0D6
:1022000001000B6818600020C8E70000002C0140A6
:10221000003401400004004000080040000C004071
:10222000704710B5044620680069C0F34000D8B17B
:102230002068C068C0F34000B0B16FF002002168B0
:102240000861012020772068806900F0030018B140
:102250002046FFF7E5FF05E0204600F0ADF82046F8
:1022600000F05DF90020207720680069C0F380004D
:10227000D8B12068C068C0F38000B0B16FF004002E
:1022800021680861022020772068806900F440708E
:1022900018B12046FFF7C4FF05E0204600F08CF897
:1022A000204600F03CF90020207720680069C0F348
:1022B000C000D8B12068C068C0F3C000B0B16FF0F2
:1022C000080021680861042020772068C06900F0B8
:1022D000030018B12046FFF7A3FF05E0204600F0F9
:1022E0006BF8204600F01BF9002020772068006979
:1022F000C0F30010D8B12068C068C0F30010B0B1BE
:102300006FF0100021680861082020772068C069FC
:1023100000F4407018B12046FFF782FF05E0204628
:1023200000F04AF8204600F0FAF8002020772068F4
:10233000006900F0010058B12068C06800F0010099
:1023400030B16FF0010021680861204600F062F9A9
:1023500020680069C0F3C01058B12068C068C0F39D
:10236000C01030B16FF08000216808612046FFF78F
:10237000EFFD20680069C0F3801058B12068C06884
:10238000C0F3801030B16FF0400021680861204632
:1023900000F0A6FA20680069C0F3401058B1206828
:1023A000C068C0F3401030B16FF0200021680861B0
:1023B0002046FFF7CEFD10BD704770B504460D46B0
:1023C000164600BF94F83C00012801D1022070BDE0
:1023D000012084F83C0000BF36B1042E1BD0082E2B
:1023E00031D00C2E5ED145E02946206801F0D8F8A6
:1023F0002068806940F00800216888612068806951
:1024000020F00400216888612068806929690843F8
:102410002168886147E02946206801F0F9F82068C2
:10242000806940F40060216888612068806920F438
:1024300080602168886120688069296940EA0120FC
:10244000216888612FE02946206801F01FF9206883
:10245000C06940F008002168C8612068C06920F0A8
:1024600004002168C8612068C0692969084321689F
:10247000C86118E02946206801F044F92068C06965
:1024800040F400602168C8612068C06920F4806061
:102490002168C8612068C069296940EA0120216873
:1024A000C86100E000BF00BF00BF002084F83C000E
:1024B00000BF00BF8BE710B504460CB9012010BD6A
:1024C00094F83D0028B9002084F83C00204600F034
:1024D00025F8022084F83D00211D206800F0F0FF5F
:1024E000012084F8460000BF84F83E0001213F200F
:1024F0000155402001554120015500BF00BF01207A
:1025000084F84200432001554420015545200155DF
:1025100000BF012084F83D000020D0E770477047DD
:1025200070B504460D4615B994F83E000BE0042D35
:1025300002D13F20005D06E0082D02D14020005D61
:1025400001E04120005D012801D0012070BD1DB9CE
:10255000022084F83E000EE0042D03D102213F202A
:10256000015508E0082D03D102214020015502E069
:1025700002214120015501222946206800F0EEFF8A
:102580001F492068884203D01E492068884201D133
:10259000012000E0002028B12068406C40F4004099
:1025A0002168486416492068884213D0154920687C
:1025B00088420FD02068B0F1804F0BD012492068BC
:1025C000884207D011492068884203D0104920680A
:1025D00088420CD12068806800F00706062E0CD0D7
:1025E0002068006840F001002168086005E020686C
:1025F000006840F00100216808600020A6E70000A4
:10260000002C01400034014000040040000800405C
:10261000000C004070B505469F492868884279D172
:102620009E480078401C9D490870084600780E2896
:1026300016DB002008709A480068401C9849086022
:1026400008464068401C486008468068401C886016
:102650000846C068401CC86008460069401C086104
:102660009048006840F480008E490860012001F025
:10267000A5FF8D494872022001F0A0FF8B494872E6
:102680008B49894801F050FF8A49884801F04CFF86
:102690008548408B002803DC8448408B00287DDD82
:1026A000002081490870814908707F48408AB0F550
:1026B000967F0CDA0846408AB0F5967F07DA7A48AA
:1026C000007A012827D10846007A012823D1012069
:1026D00075494883002000F079FE7748007801288A
:1026E00014D0012074490870002000F001FB012083
:1026F00000F024FB002000F0C1FC012000F0E4FC0D
:102700000E206549283108606C49086000F0C2FB62
:1027100000F078FDBEE06448408AFA28FADA63489F
:10272000408AFA28F6DA002402205F494883012013
:1027300000F04CFE60480078022819D002205E4963
:102740000870012000F0D4FA002000F0F7FA012010
:1027500000F094FC002000F0B7FC0E204E49283118
:1027600008605649086000204F49C8834F49C88314
:102770004D4801F0C7FD0446012C03DB042C01DCAD
:102780004F4804704E490978491E4E4A52F82100BC
:102790008047464801F0B6FD044600E00DE0012CFC
:1027A00003DB042C01DC4848047047490978491EC2
:1027B000464A52F8210080476CE0012000F006FEF6
:1027C0003D480078A0B100203B490870012000F08E
:1027D0008FFA002000F0B2FA012000F04FFC002038
:1027E00000F072FC04202C4928310860334908604D
:1027F0002D48007818B12C48007A012802D100F049
:102800006DFB1EE02848007801281AD12648407A3E
:10281000002816DD2448407A072812DA2248007C76
:10282000012807D12049497A491E294A52F8210036
:10283000804706E01C49497A491E264A52F8210081
:1028400080471A48007818B11848007A012802D148
:1028500000F0FCFC1EE01548007801281AD113484E
:10286000407A002816DD1148407A072812DA0F480E
:10287000007C012807D10D49497A491E164A52F8B1
:102880002100804706E00949497A491E134A52F857
:102890002100804770BD0000002C0140AD000020E9
:1028A0009002002008240140500200207002002005
:1028B000AE000020AF000020AC0000202834014012
:1028C000B00000205C000020B10000209C0000202F
:1028D000440000202C000020840000206C00002018
:1028E000704710B504462068C06820F490702168D5
:1028F000C8602068406920F00100216848612068B4
:10290000406900F04000B8B12068406920F0400004
:1029100021684861606B78B10020616B4863606B2F
:10292000FEF702FA40B1606BFEF7FEFA202803D1F1
:102930001020E063032010BD0020E085202084F8F3
:102940003A000020F7E770472DE9F0470446206879
:1029500005682068C668206847694FF00008C146CE
:1029600005F00F08B8F1000F0AD105F0200038B1CA
:1029700006F0200020B1204600F018FFBDE8F087E7
:10298000B8F1000F71D007F0010018B906F490708B
:1029900000286AD005F0010030B106F4807018B14B
:1029A000E06B40F00100E06305F0040030B107F097
:1029B000010018B1E06B40F00200E06305F0020096
:1029C00030B107F0010018B1E06B40F00400E063A3
:1029D00005F0080048B106F0200010B907F001002A
:1029E00018B1E06B40F00800E063E06B68B305F0FD
:1029F000200028B106F0200010B1204600F0D6FEDD
:102A000020684069C0F38019E06B00F0080010B93D
:102A1000B9F1000F22D0204600F0A8FE20684069DE
:102A200000F04000B0B12068406920F0400021680B
:102A30004861606B50B11848616B4863606BFEF78A
:102A40009FF910B1606B416B88470CE02046FFF79F
:102A50007AFF08E02046FFF776FF04E02046FFF704
:102A600072FF0020E06389E7FFE705F0800030B1E6
:102A700006F0800018B1204600F066FF7EE705F002
:102A8000400030B106F0400018B1204600F07EFE54
:102A900074E700BF72E700005937000810B504461C
:102AA0000CB9012010BDA06900B100E000BF94F88E
:102AB000390028B9002084F83800204600F027F8B3
:102AC000242084F839002068C06820F40050216870
:102AD000C860204600F0BAFE2068006920F49040EB
:102AE000216808612068406920F02A002168486157
:102AF0002068C06840F400502168C8600020E0638E
:102B0000202084F8390084F83A000020CAE7704792
:102B100010B5034693F83A0020282FD101B10AB925
:102B2000012010BD00BF93F83800012801D1022018
:102B3000F7E7012083F8380000BF99629A85DA85AB
:102B40000020D863222083F83A0000BF002083F8D9
:102B5000380000BF1868C06840F480701C68E060EE
:102B60001868406940F001001C6860611868C0681E
:102B700040F020001C68E0600020D2E70220D0E78F
:102B80001F4A01681268914239D11E4909787B2990
:102B900003D01D49097800292EDD1A4909781B4AFE
:102BA000194B1B78D15418490978491C164A1170E1
:102BB00011460978082922D3124909787D2917D1AD
:102BC00013490978A1B911490978114A11700F49BF
:102BD000498851800D49097911710C494979517120
:102BE0000A49897991710949C979D1710121117015
:102BF0000021054A117002E00021034A117070475C
:102C000010020020160000201500002014010020F2
:102C10000C0000202DE9F84F04460E461746994651
:102C20004FF0000A94F8390020285AD106B117B99C
:102C30000120BDE8F88F00BF94F83800012801D1C9
:102C40000220F6E7012084F8380000BF0020E0638E
:102C5000212084F83900FEF7E1FB8246A784E7844F
:102C6000A068B0F5805F04D1206910B90025B04696
:102C700002E035464FF0000800BF002084F838001D
:102C800000BF1BE05346002280212046CDF8009073
:102C900000F08AFE08B10320CBE745B9B8F8000080
:102CA000C0F308002168486008F1020803E02878B2
:102CB000216848606D1CE08C401EE084E08C002898
:102CC000E0D15346002240212046CDF8009000F08C
:102CD0006BFE08B10320ACE7202084F83900002007
:102CE000A7E70220A5E7704701E0FEF747FCFCE7F5
:102CF00080B11149096841F000610F4A1160114625
:102D0000096841F0004111601146496841F008012D
:102D100051600FE00849096821F00061064A11601E
:102D20001146096821F0004111601146496821F0FF
:102D300008015160704700000010014088B112493D
:102D4000096841F00041104A11601049096841F0DA
:102D500008010E4A11601146096841F080011160B6
:102D600010E00949096821F00041074A116007494C
:102D7000096821F00801054A11601146096821F02F
:102D8000800111607047000000080140000C014004
:102D900000200A49096848630849096888630749A7
:102DA0000968C86380200649086001200549086059
:102DB0000220086000200449C8837047A402002054
:102DC00010080140100C0140500200200C48C08B3C
:102DD000052190FBF1F00B4909684863002009497F
:102DE0000968886307490968C8634FF40000064909
:102DF0000860012005490860022008607047000053
:102E000050020020A402002010080140100C0140D4
:102E100000200C49096848630B48C08B052190FBD2
:102E2000F1F0084909688863002006490968C86309
:102E300080200649086040020549086002200860B9
:102E400070470000A402002050020020100801403A
:102E5000100C014000200B490968486309490968C2
:102E600088630948C08B052190FBF1F0054909688A
:102E7000C8638020054908600120054908604004B6
:102E800008607047A4020020500200201008014092
:102E9000100C01404FF480000D49086140000861AA
:102EA000400008610B48C08BC0F57A700A49096878
:102EB00048630848C08BC0F57A7007490968886381
:102EC0000448C08BC0F57A7003490968C86370472D
:102ED0000010014050020020A402002000200949F7
:102EE0000968486307490968886306490968C8632F
:102EF0004FF4000004490860C01104490860400014
:102F000008607047A402002010080140100C014026
:102F10000A48808B0A490968486300200849096803
:102F2000886307490968C8634FF4000005490860D1
:102F300001200549086040040860704750020020E5
:102F4000A402002010080140100C01400A48808BA8
:102F50000A490968486300200849096888630749E5
:102F60000968C8634FF4000005490860C0110549AD
:102F7000086002200860704750020020A402002070
:102F800010080140100C014000200A4909684863FC
:102F90000948808B0749096888630020054909684A
:102FA000C863802005490860400205490860400068
:102FB00008607047A4020020500200201008014061
:102FC000100C014000200B49096848630A48808BB7
:102FD000084909688863002006490968C8634FF4F6
:102FE000000006490860C011054908600220086019
:102FF00070470000A4020020500200201008014089
:10300000100C014000200A49096848630849096812
:1030100088630848808B06490968C8638020064990
:1030200008604002054908604000086070470000E1
:10303000A40200205002002010080140100C0140A2
:1030400000200A49096848630849096888630848F4
:10305000808B06490968C8634FF400000549086081
:10306000012005490860400408607047A402002060
:103070005002002010080140100C014080B111499D
:10308000096841F008010F4A11601146096841F0D2
:10309000800111601146096841F4006111600FE080
:1030A0000849096821F00801064A116011460968BB
:1030B00021F0800111601146096821F4006111605E
:1030C000704700000408014080B11149096841F4CB
:1030D00000010F4A11601146096841F0006111605A
:1030E0001146096841F0004111600FE00849096884
:1030F00021F40001064A11601146096821F00061BF
:1031000011601146096821F000411160704700000C
:10311000040C014000200A4909684863084909680D
:10312000886307490968C8634FF40050054908607F
:10313000400008604000086000200349C8837047D1
:10314000EC020020100C0140700200200B48C08BE4
:10315000052190FBF1F00A490968486300200849FD
:103160000968886306490968C8634FF0005005493B
:103170000860C013086040000860704770020020BB
:10318000EC020020100C014000200C490968486343
:103190000B48C08B052190FBF1F008490968886352
:1031A000002006490968C8634FF4005005490860CB
:1031B00040040860C013086070470000EC02002063
:1031C00070020020100C014000200B490968486380
:1031D0000949096888630948C08B052190FBF1F013
:1031E00005490968C8634FF400500549086040006C
:1031F0000860400408607047EC0200207002002064
:10320000100C01404FF080700D49086040000860CC
:10321000400008600B48C08BC0F57A700A49096805
:1032200048630848C08BC0F57A700749096888630D
:103230000448C08BC0F57A7003490968C8637047B9
:103240001008014070020020EC0200200020094913
:103250000968486307490968886306490968C863BB
:103260004FF00050044908604000086040000860CA
:1032700070470000EC020020100C01400A48808BCF
:103280000A490968486300200849096888630749B2
:103290000968C8634FF0005005490860C013086012
:1032A000400408607047000070020020EC0200201B
:1032B000100C01400A48808B0A49096848630020C5
:1032C00008490968886307490968C8634FF00050D6
:1032D0000549086040000860C0130860704700009E
:1032E00070020020EC020020100C014000200A496E
:1032F000096848630948808B07490968886300208A
:1033000005490968C8634FF4005005490860400446
:103310000860400008607047EC0200207002002046
:10332000100C014000200A49096848630948808B55
:10333000074909688863002005490968C8634FF098
:1033400000500549086040000860C01308607047DD
:10335000EC02002070020020100C014000200A49FD
:10336000096848630849096888630848808B0649EA
:103370000968C8634FF400500549086040040860BC
:103380004000086070470000EC020020700200203E
:10339000100C014000200A4909684863084909687F
:1033A00088630848808B06490968C8634FF000505D
:1033B00005490860C01308604004086070470000B9
:1033C000EC02002070020020100C014068B10B4993
:1033D000098821B94FF48051094A11600CE007496E
:1033E0000988491E054A118006E06421034A1180BC
:1033F0004FF08051024A116070470000B200002077
:103400001008014000BFFEE77047704708B5084943
:103410000968C9084FF47A72B1FBF2F14143009197
:1034200000BF00BF00994A1E00920029F9D108BDD3
:1034300000000020704710B5FDF7F6FF10BD704783
:1034400010B50248FEF7EDFE10BD0000EC020020B2
:1034500010B511480068006900F00100D0B16FF0AC
:1034600001000D49096808610C4A0D490D4801F039
:103470005FFC0D4A0D490E4801F05AFC0D480078DA
:10348000012807D10C49074800F0ACFF0B49084858
:1034900000F0A8FF10BD000090040020DC03002015
:1034A000B803002050020020240400200004002063
:1034B00070020020B6000020480400206C040020A8
:1034C00010B50268204B98420ED0204B98420BD08A
:1034D000B0F1804F08D01E4B984205D01D4B98424A
:1034E00002D01D4B984203D122F070024B681A4360
:1034F000154B98420ED0154B98420BD0B0F1804F2F
:1035000008D0134B984205D0124B984202D0124B70
:10351000984203D122F44072CB681A4322F0800310
:103520004C6943EA040202608B68C3620B688362E1
:10353000054B984202D0054B984201D10B690363B9
:103540000123436110BD0000002C01400034014004
:103550000004004000080040000C004030B501F0BD
:103560001F05012404FA05F3046A9C430462046AFB
:1035700001F01F0502FA05F52C43046230BD30B599
:1035800001F01F05042404FA05F3046A9C43046255
:10359000046A01F01F0502FA05F52C43046230BDF0
:1035A00030B5056A25F001050562026A4368846941
:1035B00024F0700424F003040D682C4322F002026E
:1035C0008D682A43104DA84200D103E00F4DA84258
:1035D00006D100BF22F00802CD682A4322F004027F
:1035E000094DA84202D0094DA84207D123F48073A7
:1035F00023F400734D692B438D692B434360846131
:103600004D684563026230BD002C0140003401402A
:1036100030B5056A25F010050562026A43688469C1
:1036200024F4E04424F440740D6844EA052422F0B4
:1036300020028D6842EA0512124DA84200D103E033
:10364000114DA84207D100BF22F08002CD6842EAA6
:10365000051222F040020B4DA84202D00A4DA842AA
:1036600009D123F4806323F400634D6943EA8503A1
:103670008D6943EA8503436084614D688563026216
:1036800030BD0000002C01400034014030B5056A17
:1036900025F480750562026A4368C46924F07004E9
:1036A00024F003040D682C4322F400728D6842EA72
:1036B0000522124DA84200D103E0114DA84207D1C6
:1036C00000BF22F40062CD6842EA052222F4806243
:1036D0000A4DA84202D00A4DA84209D123F48053D2
:1036E00023F400534D6943EA05138D6943EA05133A
:1036F0004360C4614D68C563026230BD002C014067
:103700000034014030B5056A25F480550562036A2E
:103710004468C26922F4E04222F440720D6842EA31
:10372000052223F400538D6843EA0533084DA8426F
:1037300002D0084DA84204D124F480444D6944EAE3
:1037400085144460C2614D680564036230BD0000A9
:10375000002C01400034014070B505466C6A002021
:10376000E085E0842046FFF7EEF870BD0168C96887
:1037700021F490710268D1600168496921F001016A
:1037800002685161202180F83A10704710B5044654
:103790002068C06820F040002168C860202084F8BC
:1037A00039002046FFF79FFA002010BD70B504468F
:1037B00094F83A00222847D1A068B0F5805F0CD178
:1037C000206950B90025A66A20684068C0F3080047
:1037D0003080A06A801CA06215E0A56A0026A0685F
:1037E000B0F5805F03D0A06828B9206918B92068B7
:1037F0004068287004E02068406800F07F0028706E
:10380000A06A401CA062E08D401E80B2E085C8B96D
:103810002068C06820F020002168C8602068C06867
:1038200020F480702168C8602068406920F00100A1
:1038300021684861202084F83A002046FFF7A0F96B
:10384000002070BD0020FCE70220FAE770B50446B6
:103850002168096921F44051E2681143226811612D
:103860002269A1681143626941EA02052168C968B9
:1038700041F20C62914329432268D1602168496971
:1038800021F44071A2691143226851612D4A2168D7
:10389000914202D1FEF7A2F801E0FEF78FF800EBAB
:1038A000C00101EB001162689200B1FBF2F100EB84
:1038B000C00202EB001263689B00B2FBF3F26423C8
:1038C000B2FBF3F202EBC20303EB0212A1EB8201A3
:1038D000322202EB01116422B1FBF2F101F0F0019E
:1038E00000EBC00202EB001263689B00B2FBF3F234
:1038F0006423B2FBF3F201EB021200EBC00101EB17
:10390000001163689B00B1FBF3F100EBC00303EB14
:1039100000136668B600B3FBF6F36426B3FBF6F358
:1039200003EBC30606EB0313A1EB8301322303EB86
:1039300001116423B1FBF3F101F00F01114422687E
:10394000916070BD00380140014691F8390021288E
:1039500028D18868B0F5805F0BD1086948B90A6A38
:103960001088C0F308000B685860086A801C086261
:1039700005E00B6A581C086218780B685860C88C00
:10398000401E80B2C88458B90868C06820F0800022
:103990000B68D8600868C06840F040000B68D860C9
:1039A000002070470220FCE72DE9F04104460D4657
:1039B00017469846069E21E0701CF8B12EB1FDF71F
:1039C0002DFDA0EB0800B04218D92068C06820F493
:1039D000D0702168C8602068406920F0010021682B
:1039E0004861202084F8390084F83A0000BF0020A4
:1039F00084F8380000BF0320BDE8F081206800682B
:103A00002840A84201D1012000E00020B842D3D0D4
:103A10000020F1E708B52E48FEF796FF4EE02D484E
:103A20000078401CC0B22B490870FF2802D100204A
:103A300008704AE02648FEF754FF00BF00200090BF
:103A400023480068006800902148006840680090A2
:103A500000BF00BF00BF002000901D480068006844
:103A600000901B4800684068009000BF00BF00BF86
:103A70000020009016480068006800901448006814
:103A80004068009000BF00BF00BF002000901048B9
:103A90000068006800900E4800684068009000BF11
:103AA00000BF00BF00200090094800680068009037
:103AB000074800684068009000BF00BF0122064927
:103AC0000348FFF725F80028A9D100BF08BD000072
:103AD00010020020170000201600002000BFFEE7A3
:103AE00002480068C0F30220704700000CED00E0BF
:103AF00010B5002804DB0A07130E054A135406E02C
:103B00000A07140E034A00F00F031B1FD45410BD04
:103B100000E400E018ED00E02DE9F0414F1E00EB5D
:103B2000C7010446D1E9000115461E4637F00602DA
:103B30000DD02A46334601F0B1FD7F1E04EBC703CA
:103B4000D3E9002301F016FB37F00602F1D1022F72
:103B500025D0042F13D0062F18BFBDE8F0812A46C8
:103B6000334601F09BFDD4E90A2301F003FB2A460A
:103B7000334601F093FDD4E9082301F0FBFA2A460D
:103B8000334601F08BFDD4E9062301F0F3FA2A460F
:103B9000334601F083FDD4E9042301F0EBFA2A4611
:103BA000334601F07BFDD4E9022301F0E3FA2A4613
:103BB000334601F073FDD4E90023BDE8F04101F084
:103BC000D9BA0000002213461046014901F08EBB0D
:103BD0000000F03F012202F0CABA0022134610464C
:103BE000114601F083BB00BF7047000000B58FB0E5
:103BF000182105A8FCF70BFB00200290039004900D
:103C000000BF7348806940F40070714988610846BC
:103C1000806900F40070019000BF00BF00BF08463B
:103C2000806940F0040088610846806900F0040063
:103C3000019000BF00BF00BF0846806940F010003F
:103C400088610846806900F01000019000BF00BF45
:103C500000BF0846406940F00100486108464069DD
:103C600000F00100019000BF00BF0220059080031A
:103C7000079005A8FDF73EFD3F200B9003200C9018
:103C800000200D9003200E900BA95248FDF71EFA5C
:103C900030200B900BA95048FDF718FA4F485049B7
:103CA00008600020486000214D4881608021C1608B
:103CB000490001618900416120218161C901C1611F
:103CC000FDF736F9474848490860002048604FF43E
:103CD0008071454881600121017308210161002143
:103CE000017581614FF46021C161FCF7ABFE0022D8
:103CF00004210B20FDF7EFFB0B20FDF7DCFB00BFE1
:103D000037483949086208463549486200BF0020F3
:103D10000290012003900520049002A93248FCF78C
:103D2000DDFD01200290022003900520049002A9ED
:103D30002D48FCF7D3FD02200290032003900520BC
:103D4000049002A92848FCF7C9FD03200290042032
:103D500003900520049002A92348FCF7BFFD04202E
:103D6000029005200390049002A91F48FCF7B6FDBD
:103D700005200290062003900520049002A91A480D
:103D8000FCF7ACFD0E200290072003900520049064
:103D900002A91548FCF7A2FD0F200290082003900D
:103DA0000520049002A91048FCF798FD0E48FCF786
:103DB00013FD08230D4A0B494C310948FDF7FEF865
:103DC00008220A490848FCF7EFFE0FB000BD0000CA
:103DD00000100240000801400010014008000240AD
:103DE000340300200024014078030020A8030020B1
:103DF0002DE9F04F8DB000200C9000240025814665
:103E00000026824600278046834600BF3BE000BF75
:103E10007849096800210029FAD177490C88498836
:103E2000A14201DD74494C8873498988A14201DDB2
:103E300071498C887049CD880989A94201DD6E4994
:103E40000D896D494989A94201DD6B494D896A494E
:103E500089898B446849C9898844322C03DD711CE7
:103E6000CEB2A14403E0012E01DC4FF00009322D57
:103E700003DD791CCFB2AA4403E0012F01DC4FF02F
:103E8000000A411CC8B21428C1DB1420BBFBF0FBA4
:103E9000B8FBF0F8002E01DDB9FBF6F90026002F83
:103EA00001DDBAFBF7FA0027484601F09BFF5349B2
:103EB000079001F081FE5249089001F0DBFF514963
:103EC0000A90888A01F08EFF4F49089001F0D2FFD6
:103ED00009900A9901F002FE0B9001F04BFF49494D
:103EE0008882504601F07EFF4449079001F064FE4D
:103EF0004349089001F0BEFF44490A90888A01F0C6
:103F000071FF4149089001F0B5FF09900A9901F04D
:103F1000E5FD0B9001F02EFF3C4988823C4800886B
:103F200032285EDD584601F05DFF3A49079001F006
:103F3000A1FF3349089001F09DFF32490A90C88AD9
:103F400001F050FF3049089001F094FF09900A9960
:103F500001F0C4FD0B9001F00DFF2A49C88208460C
:103F6000C08A2A49C8822C48B0FBF8F0A0F540501E
:103F7000D4380C900C9801F035FF2849009001F0DE
:103F80001BFE019001F07EFDCDE9020100F0C6FBB1
:103F90004FF0C042224BCDE9040101F07FFB4FF00E
:103FA0004042204BCDE9060101F0E4F802460B4601
:103FB000CDE9080100201C4901F098F9CDE90A017A
:103FC00001F028FB1FFA80F8A8F5D440B3380D495A
:103FD00008830846008B0D49088300200C4908809F
:103FE00004E00B480088401C094908800DB0BDE87A
:103FF000F08F000000000240A8030020295C8F3DE4
:10400000CDCC4C3E50020020CDCC4C3F7002002065
:10401000B400002052B85A410000710200401C4612
:104020006797303FE3796B3F0000594030B595B05A
:1040300005460C4600BFAA48806940F00400A84924
:1040400088610846806900F00400019000BF00BF4D
:1040500000BF0846806940F0080088610846806912
:1040600000F00800019000BF00BF00BF0846806953
:1040700040F0100088610846806900F0100001904F
:1040800000BF00BF00BF0846806940F4006088613F
:104090000846806900F40060019000BF00BF00BFC7
:1040A0000846806940F4005088610846806900F441
:1040B0000050019000BF00BF4FF4E070029002205A
:1040C000039004900320059002A98648FCF7FEFFA8
:1040D0008548864908600846446000218160C560C3
:1040E00001618021816100214161FEF7E4F96020D6
:1040F000069000200790089009900A900B900C9071
:10410000002206A97948FEF758F9042206A9774843
:10411000FEF753F9082206A97448FEF74EF900206D
:104120000D900E900F9011907148007810906F488C
:104130000068406C40F400406C49096848640DA96F
:104140006A48FDF707FF0320029001200390022038
:1041500004900320059002A96648FCF7B7FF802071
:10416000029002A96448FCF7B1FF382002900020B9
:104170000390012004900320059002A95D48FCF7FC
:10418000A5FF4FF4E060029002200390049003200A
:10419000059002A95848FCF799FF5848584908600B
:1041A0000846446000218160C56001618021816111
:1041B00000214161FEF77FF9602006900020079002
:1041C000089009900A900B900C90002206A94C4888
:1041D000FEF7F3F8042206A94948FEF7EEF8082294
:1041E00006A94748FEF7E9F800200D900E900F90C1
:1041F00011903F480078109041480068406C40F4AE
:1042000000403F49096848640DA93D48FDF7A2FEFA
:104210004FF460400290012003900220049003209C
:10422000059002A93348FCF751FF4FF4E05002908B
:1042300000200390012004900320059002A9294842
:10424000FCF744FF4FF480500290012003900220BD
:1042500004900320059002A92748FCF737FF0022AD
:1042600002211920FDF737F91920FDF724F9244818
:10427000FDF78EFF1D48FDF749FF00211B48FEF7A3
:104280004FF904211948FEF74BF908211748FEF7AA
:1042900047F900211A48FEF743F904211848FEF7B0
:1042A0003FF908211648FEF73BF900210F48FDF7BA
:1042B0008BFE04210D48FDF787FE08210B48FDF712
:1042C00083FE00210E48FDF77FFE04210C48FDF718
:1042D0007BFE08210A48FDF777FE15B030BD0000CF
:1042E000001002400010014000340140A4020020F0
:1042F00024000020000C014000080140002C014077
:10430000EC020020014600204A7A012A01D1012056
:1043100008E04A7A022A01D1022003E04A7A042AFC
:1043200000D10320704700002DE9F05F04460D46E0
:104330000021284601F06AFD01D285F00045206881
:10434000294601F06DFEA061E1694FF0804001F067
:1043500091FD8346A16901F059FE8246216A01F070
:10436000BDFB8146616901F085FD0746A1692069B1
:1043700001F080FD8246E169A06901F051FE8346AB
:10438000E16801F077FD8146514601F0A7FB8046C8
:10439000394601F0A3FB0646616801F09FFB6060AF
:1043A000E0692062A069E0610D48008801F01AFD13
:1043B0000646616801F02AFD05D20948008801F02F
:1043C00011FD606006E06068002101F01FFD01D270
:1043D00000206060606801F0CDFCBDE8F09F000047
:1043E000280000202DE9F04705460C46688B002880
:1043F00031DD688AB0F52F7F16DD688A01F0F2FCA6
:1044000081464946184801F0D7FB80464FF07C5161
:1044100001F064FB0746154901F02CFD064601F04A
:10442000A9FC1349088003E040F2DE3010490880FF
:104430001048408B022804D120680F4901F0BCFBD2
:104440002060A88A01F0CEFC064631462046FFF7E0
:104450006BFFE88305E0002020606060E06120627F
:10446000E883BDE8F08700000000AF430080774498
:1044700028000020500200200000E03F10B5044654
:1044800000204FF0E0210861FDF734FD2046E117E0
:1044900004EB5171C1F3CF01014A118010BD00003E
:1044A0000400002070B504464FF47A7094FBF0F5D8
:1044B00094FBF0F100FB114603E0074800F00EF812
:1044C0006D1E002DF9D12EB14FF47A7106FB01F06B
:1044D00000F004F870BD000040420F000146114A90
:1044E00012884A434FF0E0235A6100229A611A462B
:1044F000126942F001021A6100BF4FF0E022106918
:1045000000F001021AB100F48032002AF5D04FF019
:10451000E022126922F001024FF0E0231A6100222A
:104520009A6170470400002010B50A461178437A5A
:1045300013B1437A072B08DBC3795B1CDBB2C37171
:10454000142B04DD0123037201E00023C371C3892E
:1045500042F21074A34203DAC3895B1CC38101E0F9
:10456000C3898381837A447AA34226D0437A8B42DB
:1045700021D1C38983810023C38101290CD1062164
:10458000837A032B02D10123C37213E0837A052BB4
:1045900010D10023C3720DE006290BD10121837ACB
:1045A000042B02D10123C37204E0837A022B01D1D0
:1045B0000023C3721170437A837210BD70B5054633
:1045C0000024012D18D120211A48FCF71FFF0128D3
:1045D00001D144F0040410211648FCF717FF01280C
:1045E00001D144F0020408211248FCF70FFF012812
:1045F0001ED144F001041BE0022D19D1E9020E483E
:10460000FCF704FF012801D144F004044FF40061D9
:104610000948FCF7FBFE012801D144F002044FF4E5
:1046200080610548FCF7F2FE012801D144F0010445
:10463000204670BD000C0140001001402DE9F05FE4
:1046400004460D460021284601F0E0FB01D285F02A
:1046500000452068294601F0E3FCA061E1694FF0C4
:10466000804001F007FC8346A16901F0CFFC82463F
:10467000216A01F033FA8146616901F0FBFB0746CC
:10468000A169206901F0F6FB8246E169A06901F0A9
:10469000C7FC8346E16801F0EDFB8146514601F01D
:1046A0001DFA8046394601F019FA0646616801F0A4
:1046B00015FA6060E0692062A069E0610D48008839
:1046C00001F090FB0646616801F0A0FB05D20948A5
:1046D000008801F087FB606006E06068002101F05F
:1046E00095FB01D200206060606801F043FBBDE8EB
:1046F000F09F0000260000200146002901DA484210
:1047000070470846FCE703461846934201DD104611
:1047100002E08B4200DA0846704700002DE9F04DB8
:10472000C84A002490B0914205DA21F00043934238
:1047300001D805D120B110B0BDE8F04DFFF74ABA5D
:10474000B1F5801F1BDA53EA000209D0002911DA03
:104750000120FBF78CFD10B0BDE8F04DFFF73DBA2E
:104760000220FBF784FDFFF72DFA10B081F0004125
:10477000BDE8F08D6FF03504362201F0F8FC04EB53
:104780002152C1F31308B049A2F2FF33414401F4AE
:10479000801282F07F6103EB225281F0405100923F
:1047A00041EA08010022A94B01F082F8044608F111
:1047B0000200A74EC0F313000D467E44032867D2C3
:1047C000D6E90023204600F0E9FE1ED1009800281B
:1047D00002BFD6E9000110B0BDE8F08D00F047FF40
:1047E00007460C469B4A9C4B00F058FF06460D4678
:1047F0009A4A9B4B3846214600F050FF10B0324693
:104800002B46BDE8F04D00F0B5BC4FF05532954B4E
:104810002046294600F042FF0022934B01F03CF86D
:1048200006460F4622462B461046194600F036FF34
:1048300032463B4600F032FF064600980F46F0B184
:1048400000F015FF80468A46824A834B00F026FF1F
:1048500032463B4601F020F822462B4601F028F86C
:1048600005460C467D4A7E4B4046514600F016FFF9
:1048700010B02A462346BDE8F04D01F019B80B46AA
:1048800010B0324620462946BDE8F04D01F010B880
:1048900000224FF08043204600F06CFC02460B469D
:1048A0002046294600F022FD06460F46009800F0FB
:1048B000DEFECDE9040132463B461046394600F0A3
:1048C000EDFE0C9069480C9A4044019009910B460A
:1048D000104600F0E3FE8246024665488B46C8F16A
:1048E00051080B4608F5D72803217844FFF714F93F
:1048F00052465B4600F0D2FE0A905E480D91524649
:104900005B4604217844FFF707F9099B0C9A00F0F5
:10491000C5FE844601980D9B40EA080860460A9A45
:1049200000F028FC83460891B8F1000F4EDD4FF0EF
:10493000FF322046294601F01AFC22462B4600F0A1
:10494000ADFE804600988A4660B3DDE90401414A25
:10495000414B00F0A3FE099100905A464046514653
:10496000089B00F007FC32463B4600F097FE099B8F
:10497000009A00F0FFFB4246534600F08DFF2246AE
:104980002B4600F095FF04460D46DDE90401334A4D
:10499000334B00F083FE10B022462B46BDE8F04DAD
:1049A00000F086BF5A464046089B00F0E3FB3246C3
:1049B0003B4600F073FE4246534600F06DFF10B0D8
:1049C00022462B46BDE8F04D00F066BF009840B38C
:1049D000DDE904011F4A204B00F060FE80468A4654
:1049E0005A4620462946089B00F062FF32463B4665
:1049F00000F054FE4246534600F05AFF22462B4632
:104A000000F056FF04460D46DDE90401134A144B3D
:104A100000F044FE10B022462B46BDE8F04D00F0F9
:104A200047BF0B465A462046294600F041FF324612
:104A30003B4600F033FE10B022462B46BDE8F04D59
:104A400000F02ABF0000F07F645F09000000F03F23
:104A5000921A0000763C7935EF39EA3D0000E0FE1D
:104A6000422EE63F5555D53F0000E03F86EBF9FF6B
:104A70002A1900002819000008B5FCF7E1FC4FF4E2
:104A8000E01000F0B7FA4820FFF7F8FC00BF6948D3
:104A9000806940F00100674988610846806900F03C
:104AA0000100009000BF00BF00BF6349486820F0CC
:104AB000E06040F00070486000BF4FF4E13000F06B
:104AC00093FA3220FFF7EEFC00205C4988830870DF
:104AD000012008740020887008714871087244F63B
:104AE0002060C88200205649888308700874887046
:104AF00008714871087244F62060C882042140F2AF
:104B0000E730FFF793FA3220FFF7CCFCFFF76EF89F
:104B1000642000F0C1F98CE04A4840680F2805D3B2
:104B20000020484948600120FBF7A2FC4548806806
:104B3000142808D3002043498860404800F066F9F3
:104B40003F4800F063F93F48C0680A286CD300244E
:104B500000203C49C8603948808902282FDD374849
:104B600080894FF2121191FBF0F084B23348408BF0
:104B7000002803DD032094FBF0F084B20A2C03DA52
:104B800000202E4948821AE02C49488A01F02AF96F
:104B900080464FF07D5101F06DF90646204601F048
:104BA00021F980464FF07A5101F064F90746314609
:104BB00000F094FF054601F0DDF8204948822048C6
:104BC000808902282FDD1E4880894FF2121191FB47
:104BD000F0F084B21A48408B002803DD032094FBD8
:104BE000F0F084B20A2C03DA0020154948821AE05A
:104BF0001349488A01F0F6F880464FF07D5101F0E4
:104C000039F90646204601F0EDF880464FF07A511A
:104C100001F030F90746314600F060FF054601F02B
:104C2000A9F80749488200BF0648006908B1FFF7A4
:104C3000DFF871E700100240000001405002002040
:104C400070020020900200202DE9F041044600206F
:104C50002E4908702E49087001202C4948832C49A0
:104C600048832C480078012824D1201E01DB01460E
:104C700000E04142333901EB810189004FF4E172D8
:104C800091FBF2F1CDB2142201212846FFF73BFD42
:104C9000C5B2691E204A32F8110001F0A3F8064699
:104CA0001E4901F0E7F81E490860084600681D49E2
:104CB000086029E02046FFF71FFD04464FF4FA7212
:104CC00000212046FFF71FFD0446251E01DB294673
:104CD00000E06942084601F06DF88046124901F093
:104CE000C9F80746114900F0F9FE064601F026F81A
:104CF00004464FF4757200212046FFF704FD044678
:104D00000249CC830249CC83BDE8F08150020020E7
:104D100070020020B6000020E00000209A99993F20
:104D2000480400206C0400206666E63F0000C8428C
:104D30002DE9FC5F04460E4615462078012853D124
:104D40002079002850D1207A00284DD160790028A0
:104D50004AD16078002847D1A078012805D1286879
:104D60004FF07D5101F086F82860608AB0F5487FE9
:104D700018DA608A01F036F81F49009000F01CFF35
:104D800083461E4901F076F882461D4900F0A6FED2
:104D90001C49019001F06EF8814600F0EBFF1A49C2
:104DA000088003E04FF4617017490880A08A01F081
:104DB00019F8814649462846FFF740FC87B2608AC9
:104DC00001F010F8814649463046FFF737FC1FFADC
:104DD00080F8474504DDA4F81C807068686009E02D
:104DE000A7836868706005E000203060706028600C
:104DF0006860A083BDE8FC9F000048443333333F24
:104E00009A99993E0000614426000020C18A44F22C
:104E10005062914204DAC8218171012141710CE094
:104E2000C18A44F63822914207DD817911B9002107
:104E3000417102E08179491E8171018B42F2107249
:104E4000914202DD0121017105E0018BB1F5FA5FAC
:104E500001DA00210171818A4CF25032914210DD59
:104E6000C178491CC170C178642904DDC821C170B2
:104E7000012141700EE0C1780A290BDD012181700A
:104E800008E0C17819B900218170417002E0C17851
:104E9000491EC1707047000010B504460020284923
:104EA0000860486088608861C86108622548C860F9
:104EB00025480861002048612449086048608860EE
:104EC0008861C86108622248C860224808610020E1
:104ED000486121490860486088608861C86108624B
:104EE0001848C86018480861002048611B490860DC
:104EF000486088608861C86108621548C8601548C4
:104F0000086100204861164908604860886088612F
:104F1000C86108620E48C8600861002048611149F4
:104F20000860486088608861C86108620848C86095
:104F3000086100204861204600F016F810BD00000E
:104F4000B8030020CDCC4C3D0AD7A33CDC030020A5
:104F50000AD7A33B6F12033B000400202404002067
:104F6000480400206C04002038B5044600BFB4F5A6
:104F70007A7F01DD0A2CFADB00BF1848C06940F0D7
:104F800001001649C8610846C06900F001000090A0
:104F900000BF00BF88041249086040F2CF2048607B
:104FA00000210F4881600F4890FBF4F0401E0C492F
:104FB000C86000210A4801618021816100214161AE
:104FC000FDF770F8002203211C20FCF784FA1C2056
:104FD000FCF771FA0248FDF7DBF838BD001002401B
:104FE00090040020A086010010B50446204600F081
:104FF00035F810BD30B58FB005460124282105A82D
:10500000FBF705F914216846FBF701F9012005902B
:10501000000406900020079002200C90C1030D911F
:105020000E9505A8FCF734FD04460CB100BFFEE761
:105030000F20009002200190002002904FF4806029
:1050400003900020049002216846FCF7EBFB044625
:105050000CB100BFFEE70FB030BD000010B586B048
:10506000044600BF3248806940F00800304988613A
:105070000846806900F00800019000BF00BF00BF33
:105080000846806940F4804088610846806900F4E1
:105090008040019000BF00BF00BF0846806940F01B
:1050A000010088610846806900F00100019000BF9E
:1050B00000BF00BF1F49486840F0E06040F00400B6
:1050C000486000BF4020029002200390012004901D
:1050D000059002A91848FBF7F9FF802002900020F4
:1050E0000390012004900220059002A91248FBF7CA
:1050F000EDFF2520FCF7DFF9002203212520FCF736
:10510000EAF90E480E4908600846446000218160B3
:10511000C160016181610C2141610021C161FDF724
:10512000BDFC012207490648FDF7F2FC06B010BDA0
:105130000010024000000140000C01400038014016
:10514000100200201600002070B504460D464FF4F2
:105150007A732A4621460648FDF75CFD00BF0448E5
:1051600000680068C0F380100028F8D070BD00000F
:105170001002002010B591EA030F48BF83F00043EE
:1051800000F19E83841A71EB030C05D2121943EBD4
:105190000C03001B61EB0C01DFF824E14FEA115412
:1051A000A4EB135C1EEA430F18BF9EEA445F73D062
:1051B00023EA0E03DCF1200E21EA045143F48013AC
:1051C00032D322FA0CFE10EB0E0023FA0CFE41EB58
:1051D0000E01CCF1200E03FA0EFE10EB0E0051F181
:1051E0000001B1F5801FCCF1200E32D201EB045149
:1051F00012FA0EF2BDE8104058BF7047401C38BF8D
:105200005FEA420218BF7047002814BF20F0010077
:1052100041F100014FEA410313F5001F38BF704709
:10522000A1F1C04100F032BB012A43EB0302ACF113
:10523000200CDCF11F0E32BF4FF0000E23FA0CF3EE
:1052400010EB030041EB0451B4EB115FD0D0A1EBA4
:10525000045101F5801149085FEA300001EB045167
:105260000ED350F1000038BF12FA0EFE08D1BDE88F
:105270001040C9E7401C38BF5FEA4202CAD1C3E709
:10528000BDE810404FEA410313F5001F38BF7047D7
:10529000A1F1C04100F0FABA9EEA445F08D011EAD9
:1052A0005E0FBDE8104004BF01F0004100207047D0
:1052B000BDE8104070B500F09BFA00BF64FBBE3E35
:1052C0000000E0FF02494FF0000000F01EBF00BFE9
:1052D0000000F87F491058BFC1F140415B1058BF32
:1052E000C3F140438B42EFF3008070472DE9C0418A
:1052F00030B4DFF8A0C23CEA111418BF3CEA131422
:1053000000F0EC8081EA03051CEA111444EAD5742C
:1053100018BF1CEA131500F0C780A4EB05044FF07A
:10532000004545EAC12145EAC32341EA505143EA19
:10533000525304F17F74994204F500344FEAC020BF
:105340004FEAC22208BF904200F09C804FEA1365EA
:105350000FF24016765D4FEA134506FB05F7C7F1DD
:10536000807706FB07F74FEAD737A7FB036876423B
:10537000C8F58038A7FB06CE38BFA8F1010807FBA7
:1053800008E64FF0000EA6FB028CE6FB03CEDCF134
:10539000000CCEF1004E38BFAEF1010EA6FB0C584A
:1053A0004FF000074FF00005E6FB0E87A1FB08C693
:1053B000A0FB07CE16EB0E0645F10005E1FB0765E5
:1053C00015F1E04E7EBFA4F580345FEA46066D41DC
:1053D00016F1800745F100054FEA17274FEA0666E8
:1053E00047EA0567A6F1DE46B6F1805F4FEA15256C
:1053F0001FD9384624F0010C05EBC471BCF1FE6FD7
:1054000001EB0C1102D8F0BCBDE8008124425CBF66
:1054100001F5801E9EEAC47F02D4F0BCBDE8008185
:10542000244238D4F0BCA1F1C041BDE8004100F0F5
:105430002DBA4FEAD22242EA43524FEAD323A7FBC6
:1054400002864FEAD02040EA415007FB03661EEA7D
:105450000E0F4FEAD12105FB026658BFA6EB00569E
:10546000B6EB00564FEA520E4EEAC37E18EB0E0E14
:1054700056EB530EBDD518EB02085E417F1C55F16B
:105480000005B6E74FF480154FF000074FF0000617
:105490004FF00008ADE7F0BC4FF0000001F1C04153
:1054A00001F00041BDE8008111EA0C1F0CEA131560
:1054B00000D00CE013EA0C1F00F025804FF0000034
:1054C000F0BC81EA030101F00041BDE80081F0BCBD
:1054D000BDE8004181EA030100F0D8B9F0BCBDE8A5
:1054E000004170B500F084F9097EFC3E00F007B879
:1054F00081EA03014FF0000001F00041704781EAAA
:10550000030100F0C3B9F0BCBDE800414FF000005A
:1055100021497047FFFDFBF9F7F5F4F2F0EEEDEBF2
:10552000E9E8E6E4E3E1E0DEDDDBDAD8D7D5D4D3A1
:10553000D1D0CFCDCCCBCAC8C7C6C5C4C2C1C0BFED
:10554000BEBDBCBBBAB9B8B7B6B5B4B3B2B1B0AFF3
:10555000AEADACABAAA9A8A8A7A6A5A4A3A3A2A1D7
:10556000A09F9F9E9D9C9C9B9A9999989797969592
:1055700095949393929191908F8F8E8E8D8C8C8B2E
:105580008B8A8989888887878685858484838382B6
:10559000828181800000FF070000F87F51EA030C40
:1055A00017D41CF5801F58BFBCF5801F00F1068082
:1055B000994218BF704708BF9042704707D711F54E
:1055C000801F58BF13F5801F19D499427047894234
:1055D00070471CF5801F08D5BCF5801FF7D58B429E
:1055E00018BF704708BF824270474FF4001C1CEB85
:1055F000410F38BF1CEB430F01D28B42704770B58F
:1056000000F0F6F8922449004FF000514FF080531B
:10561000FFF760BE4FEA1153A3F58063D3F11E0379
:10562000A8BFD3F1200C08DB4FF0004242EAC122B0
:1056300052EA505232FA03F0704709420BD4102B51
:10564000C4BF0020704703F5787CBCF1FF3F05D054
:105650004FF0FF3070474FF00000704770B500F01A
:10566000C7F800BF4992248000207047F0E710F08F
:10567000004248BF4042B0FA80F310FA03F10AD06A
:10568000C3F11D0303F580634FEA415002EB03525F
:1056900002EBD12170474FF000007047DFF848C19E
:1056A00070B51CEA111E1EBF1CEA13159EEA0C0FF2
:1056B00095EA0C0F00F06F8081EA030423EA4C1393
:1056C0004EEAD47E21EA4C1141F4801143F4801358
:1056D000AE44A1FB024CA0FB0365AEF17F7E361900
:1056E00055EB0C05A1FB034C4CF10003A0FB021C85
:1056F00016EB0C06654153F10003094218BF46F052
:10570000010613F4007F0BD14FEA03314FEA053055
:10571000340341EA155140EA16506FF003020AE0E3
:105720004FEAC3214FEAC520F40241EA555140EA4D
:1057300056506FF0020202EB2E4201EB025585EA51
:10574000CE710AD05FEA440C18BF24F0004450F137
:10575000000041F1000120EAD47040F2FE7C624575
:1057600000D270BDA84214BF4FF080444FF04044B7
:10577000002E08BF0024BEF1806FA8BFA1F1C04178
:10578000BDE8704080F282804FF0000001F1C0411E
:1057900001F0004170479EEA0C0F0CEA131518BF88
:1057A00095EA0C0F06D04FF0000081EA030E0EF0D0
:1057B000004170BD00F01CF88900013E00F007B800
:1057C00000F009B84FEA430C5FEA5C5C08D081EA5C
:1057D000030100F05BB84FEA410C5FEA5C5CF6D174
:1057E0004FF00000014970470000FF070000F87FFC
:1057F0000EF1020E2EF0030E5EF8046B364205D455
:10580000012A43EB030515F5001F12D8012841EBCF
:10581000010C1CF5001F0CD80ED14FEAD17C15F5F8
:10582000001F0CEB4C0C0CF1020C08BF4CEBD37CB2
:1058300004E04FF0080C01E04FEAD37C0CEB4C0580
:1058400026FA05F606F00706B6F1040C06D20EEBB2
:10585000860CBDE870404CF0010C6047DFE80CF0AE
:10586000090B02024FF000414FF00000A1F50021AA
:1058700070BD19461046012851EB010418BFD4F53C
:10588000001484BF002001F0004170BD0808A0F59D
:1058900000114FEA3101704791EA030F10B581F012
:1058A00000413FF56FAC83F0004300F009B8000001
:1058B00010B591EA030F48BF83F000433FF562AC97
:1058C000841A71EB030C07D212198CF0004C43EBD5
:1058D0000C03001B61EB0C01DFF8A4E14FEA11544B
:1058E000A4EB135C1EEA430F18BF9EEA445F00F06E
:1058F000B08023EA6E03524221EA0451C3EB6E03E7
:1059000038BF5B1EDCF1200E25D322FA0CFE10EB13
:105910000E0043FA0CFE41EB0E01CCF1200E03FA0F
:105920000EFE10EB0E0051F10001CCF1200E29D437
:1059300012FA0EF201EB0451BDE8104058BF704757
:10594000401C1CBFB2F1004F704700280CBF491C1F
:1059500020F00100704712EB020E43EB030218BF68
:105960004FF0010E4EEA4202ACF1200CDCF11E0EAB
:1059700054D943FA0CFE10EB0E0051F1FF31CCF17B
:105980001E0ED5D50EF1010E12FA0EFE404141EB6E
:10599000010101EB445C5FEA5C5C10D910EBDE7046
:1059A00001EB045138BFBEF1004FBDE8104018BFF5
:1059B000704700280CBF491C20F00100704730D20E
:1059C0004FEAD42C11F5001124F400641BD0B1FA75
:1059D00081F20B3AA41AA41ED2F12003914030FAAE
:1059E00003F31943904001EBCC71002C01EB0451FF
:1059F000BDE81040A8BF704701F1C0414FF0000062
:105A000001F000417047B0FA80F310FA03F100D1C1
:105A100010BDE41A173C4805C90AE4E701EB04513C
:105A200010BD491001EB0451BDE810404FEA3000B1
:105A300002E04FF0000170474A0008BF0042F8D072
:105A4000B2F5001F28BF704701F000414FF0000081
:105A500070479EEA445F07D011EA5E0FBDE8104030
:105A600004BF002100207047BDE8104070B5FFF76B
:105A7000BFFE00BF40DFF63E83F000411046704796
:105A80000000E0FF43004FEAD30C4FEA3C0C4340D8
:105A90001FBF40070CF1605113F0FE4F70471CF020
:105AA000006F03D100200CF0004170470CF0004360
:105AB00043EA507010B540EACC0000F05CFA00BF39
:105AC000000000924FEA0001FFF7E0BE4FF00041F6
:105AD0004FF00000A1F500217047000090EA010F8F
