:020000040800F2
:10000000980A0020CD010008D725000833220008F7
:10001000D525000819040008012D00080000000083
:10002000000000000000000000000000FD250008A6
:100030004704000800000000E3010008E501000893
:10004000E7010008E7010008E7010008E7010008F0
:10005000E7010008E7010008E7010008E7010008E0
:10006000E7010008E7010008E7010008E7010008D0
:10007000E7010008E7010008E7010008E7010008C0
:10008000E7010008E7010008E7010008E7010008B0
:10009000E7010008E7010008E7010008E7010008A0
:1000A000E701000835260008E7010008E70100081D
:1000B00041260008E7010008C9270008E7010008F9
:1000C000E7010008E7010008E7010008E701000870
:1000D000E7010008D12C0008E7010008E70100084B
:1000E000E7010008E7010008E7010008E701000850
:1000F00071280008E7010008E7010008E70100088F
:10010000E7010008E7010008E7010008E70100082F
:10011000E7010008E7010008E7010008E70100081F
:10012000E7010008E7010008E7010008E70100080F
:1001300000F002F800F03AF80AA090E8000C8244BF
:100140008344AAF10107DA4501D100F02FF8AFF29C
:10015000090EBAE80F0013F0010F18BFFB1A43F0A5
:10016000010318473C4B00005C4B0000103A24BFD1
:1001700078C878C1FAD8520724BF30C830C144BF0C
:1001800004680C607047000000230024002500264E
:10019000103A28BF78C1FBD8520728BF30C148BFEA
:1001A0000B6070471FB51FBD10B510BD00F06EF895
:1001B0001146FFF7F7FF03F04BFB00F08CF803B498
:1001C000FFF7F2FF03BC02F012FE0000094880476F
:1001D00009480047FEE7FEE7FEE7FEE7FEE7FEE729
:1001E000FEE7FEE7FEE7FEE704480549054A064B41
:1001F00070470000332600083101000898040020F1
:10020000980A0020980600209806002070474FF0BA
:10021000000200B5134694469646203922BFA0E856
:100220000C50A0E80C50B1F12001BFF4F7AF090762
:1002300028BFA0E80C5048BF0CC05DF804EB890053
:1002400028BF40F8042B08BF704748BF20F8022B96
:1002500011F0804F18BF00F8012B704770477047AE
:100260007047704710B500F009F8006810BD10B570
:10027000044600F003F8046010BD00000048704719
:100280003404002000487047340400207546FFF70E
:10029000F9FFAE4605006946534620F00700854643
:1002A00018B020B5FFF7A0FFBDE820404FF00006D2
:1002B0004FF000074FF000084FF0000B21F007014E
:1002C000AC46ACE8C009ACE8C009ACE8C009ACE891
:1002D000C0098D46704710B50446AFF30080204634
:1002E000BDE81040FFF76BBF70B504462068816819
:1002F000C943C9071BD1816821F00101816000F069
:100300007DFE05460EE000F079FE401B022809D96B
:10031000A06A40F01000A062E06A40F00100E062D4
:10032000012070BD20688068C043C007EBD000206A
:1003300070BD10B50146486A826A12F0500F05D0B0
:10034000006A026BBDE8104008461047816A41F41C
:100350000071816201688968C1F3424107290CD1AB
:10036000017B51B9816A21F480718162816AC9047B
:1003700003D4816A41F00101816200F0BBFA10BD33
:1003800010B5406A816A41F040018162C16A41F062
:100390000401C16200F0B0FA10BD10B5406A00F06F
:1003A000AAFA10BDF8B504460026009620688168B8
:1003B000C943C9072AD0816841F00101816014480E
:1003C00014490068B0FBF1F0009002E00098401E74
:1003D000009000980028F9D100F010FE054610E0CA
:1003E00000F00CFE401B02280BD9A06A40F0100060
:1003F000A062E06A40F00100E06284F8246001201D
:10040000F8BD20688068C043C007E9D10020F8BD6E
:100410000400002040420F00FEE730B590F8405045
:100420000124AC40C56B6C60046863604368102BAA
:1004300004D0036899600068C26030BD03689A60A8
:100440000068C16030BD70472DE9F14F82B00027D0
:10045000009701979F480178DFF87C82DFF87C9253
:10046000DFF87CA2DFF87CB29F4EA04D012915D0A9
:100470009F4800689F490968401AB0F57A7F0BD9F8
:100480002F832F70CAF80070C8F800703783377058
:10049000CBF80070C9F80070BDE8FE8F01788DF8C8
:1004A00000104188ADF8021001798DF804104179EF
:1004B0008DF8051081798DF80610C1798DF8071037
:1004C0000770BDF802008C4CA0F2DC5020604FF4A5
:1004D000FA72514203F006F820600446DDF808C0C5
:1004E000864A022101206FF03103BCF1000F19D0C0
:1004F000DDF808C0BCF1010F66D0DDF808C0BCF122
:10050000020FC9D11770CAF80070C8F80070CBF894
:100510000070C9F800709DF80520002A7BD0287370
:100520003173A6E01070764AC8F80020C9F80020A0
:100530009DF8052012B12873317301E029733073DF
:10054000322C16DD2870307040F6C41060434FF432
:10055000FA7590FBF5F004F02DF9CAF8000040F6AA
:10056000C410444394FBF5F004F024F9CBF80000E8
:1005700092E79C4218DA2F70CAF80070C8F8007031
:100580003770CBF80070C9F8007028833083604260
:1005900000EB8000C0004FF4FA7190FBF1F26A8327
:1005A00090FBF1F0708377E71D343B2CE0D22F8372
:1005B0002F70CAF80070C8F8007037833770CBF816
:1005C0000070C9F8007067E710704E4ACAF8002042
:1005D000CBF800209DF8052012B12873317301E09B
:1005E00029733073322C17DD2870307043F6982051
:1005F00060434FF4FA7590FBF5F004F0DBF8C8F8AF
:10060000000043F69820444394FBF5F004F0D2F840
:10061000C9F8000040E72AE09C4218DA28836142CA
:1006200001EB8101C9004FF4FA7291FBF2F36B8385
:100630002F70CAF80070C8F80070308391FBF2F098
:1006400070833770CBF80070C9F8007024E71D3450
:100650003B2C8DD22F832F70CAF80070C8F8007021
:1006600037833770CBF80070C9F8007014E729732E
:100670003073322C0DDD28704FF496714C434FF4DB
:10068000FA7194FBF1F26A82307094FBF1F070829F
:1006900002E79C4213DA28836F8261423339C90032
:1006A0004FF4E17291FBF2F1134A121D515C698320
:1006B0002F7030837782688B70833770ECE61D343F
:1006C0003B2CA7D22F832F706F82378337707782AE
:1006D000E2E6000014000020280300207003002040
:1006E000040300204C030020E4010020C801002086
:1006F0002800002010000020800000206E00002054
:1007000000409C4500401C45F8B504460026009674
:1007100094F82400012809D0012084F82400204600
:10072000FFF7E2FD0746380002D058E00220F8BD8E
:10073000A06A20F4885040F00200A062022000F07D
:10074000D7FC29490968B1FBF0F04000009002E0B5
:100750000098401E009000980028F9D12046FFF72D
:1007600021FE2068816841F00801816000F046FCAC
:1007700005460EE000F042FC401B0A2809D9A06A99
:1007800020F0020040F01000A06284F824600120F4
:10079000F8BD206880680007ECD42068816841F0CB
:1007A0000401816000F02AFC05460EE000F026FC02
:1007B000401B0A2809D9A06A20F0020040F010006E
:1007C000A06284F824600120F8BD2068806840079A
:1007D000ECD4A06A20F0020040F00100A06284F88E
:1007E00024603846F8BD000004000020F8B500235E
:1007F0000025009590F82420012A12D0012280F8CB
:1008000024204A681F26072A0DD20468676B521EEF
:1008100002EB82029640B7430E6896403743676307
:100820001AE00220F8BD0D2A0BD20468276BD21FF4
:1008300002EB82029640B7430E6896403743276327
:100840000AE00468E76A0D3A02EB82029640B74379
:100850000E6896403743E7620A6807260A2A0BD3D8
:100860000468E7680A3A02EB42029640B7438E6892
:1008700096403743E76009E00468276902EB4202CB
:100880009640B7438E689640374327610A68102A1E
:1008900001D0112A23D1144C0268A2421AD19468C3
:1008A00024021CD4946844F400049460096810295C
:1008B00015D10E490E4A0968B1FBF2F101EB810135
:1008C0004900009102E00099491E00910099002919
:1008D000F9D104E0816A41F020018162012380F8AE
:1008E00024501846F8BD00000024014004000020F8
:1008F00040420F0070477047704700002DE9F041FB
:1009000004460025002C03D0A06A002618B108E098
:100910000120BDE8F081E66284F82460204600F002
:100920007FF82046FFF7E0FCA16AC90600D428B191
:10093000A06A40F01000A0620120EAE7A16A21F459
:10094000885141F00201A162324923688B4206D1ED
:10095000E169B1F5402F03D14FF4002100E0E169D6
:10096000277B41EA470261680A43A1684FF4807C13
:10097000614508D0012906D0002194F81480B8F10F
:10098000010F02D00AE06146F7E7C7B1A76A47F056
:100990002007A762E76A47F00107E7625F6827F46C
:1009A00069470F435F6021688B681B4F3B401343CF
:1009B0008B60A168614509D0012907D009E0A769CA
:1009C0007F1E41EA473141F40061E7E7218A491E71
:1009D0000D052168CB6A23F470032B43CB62216899
:1009E00089680E4B1940914207D1E662A16A21F055
:1009F000020141F00101A1628BE7A06A20F0020030
:100A000040F01000A062E06A40F00100E0620120C6
:100A10007FE70000003C0140FDF7E1FFFE0E1FFFF5
:100A2000704700002DE9F047044689469246DFF8FA
:100A3000008120683F4F08F10406404501D0B842CC
:100A400007D1306810F4702F03D001252846BDE887
:100A5000F08794F8240001280BD0012084F82400AA
:100A60002046FFF79FFC0546002125B184F824109D
:100A7000ECE70220EBE7A06A40F60162904340F405
:100A80008070A0622068B84218D1326812F4702FCA
:100A900014D0A26A42F48012A2623068400505D5E3
:100AA000A06A20F4005040F48050A062A06AC00404
:100AB00012D5E06A20F00600E0620EE0A26A22F49D
:100AC0008012A26240684005F0D5A06A20F4005070
:100AD00040F48050A062E9E7E16284F82410216AC2
:100AE00015488862216A1548C862216A144808635B
:100AF00021686FF0020008602068816841F480710D
:100B00008160216853464C314A46206A00F02AF938
:100B100020688168C1F34241072904D0816841F40B
:100B20008011816092E7816841F4A00181608DE7C6
:100B30000024014000280140330300089B03000803
:100B4000810300082DE9F05F002590F821100229AB
:100B500003D004218163012595E001680A6822F031
:100B60000E020A6001680A6822F001020A60474E1C
:100B7000464FB215DFF814C1DFF81081DFF80C9191
:100B8000DFF808A1DFF804B10168783F130114020F
:100B9000ACF1640CA8F15008A9F13C09AAF1280AAB
:100BA000ABF1140B4FF4801EB1422FD9B94201D1E1
:100BB000012227E0614501D1102223E0414521D0E7
:100BC000494501D11A461DE0514501D1224619E09F
:100BD000594501D1724615E02D4EB14201D1012295
:100BE00010E02B4E1436B14201D110220AE0284EFB
:100BF0002836B14206D0264A3C32914201D11A46EB
:100C000000E022462249091F0A6033E0B94201D1BF
:100C100001222CE0614501D1102228E0414526D077
:100C2000494501D11A4622E0514501D122461EE034
:100C3000594501D172461AE0B14202D14FF080729B
:100C400015E0134EB14201D1012210E0104E1436CE
:100C5000B14201D110220AE00D4E2836B14206D031
:100C60000B4A3C32914201D11A4600E02246074924
:100C700080394A60012180F82110002180F820107D
:100C8000416B01B188472846BDE8F09F80000240D3
:100C90000804024030B500280DD01B4B0168142217
:100CA00099420AD2194B0B44B3FBF2F29200026450
:100CB000174AC2630BE0012030BD134B5B420B446B
:100CC000B3FBF2F2920002640F4A083AC2630222B6
:100CD000001D42770A6843F6F0739A43D0E9003466
:100CE0002343D0E902452C43234304692343446949
:100CF00023438469234313430B6000214163012292
:100D000042770177002030BD08040240F8FFFDBFA4
:100D10000000024070B50446002594F82000012828
:100D20000CD0012084F8200094F821600020012ECE
:100D300006D084F820000225284670BD022070BD30
:100D4000022684F82160A0632068066826F0010668
:100D500006602046FFF761FB2068016841F0010151
:100D60000160E9E770B50446002594F820000128E9
:100D70000CD0012084F8200094F821600020012E7E
:100D800006D084F820000225284670BD022070BDE0
:100D9000022684F82160A0632068066826F0010618
:100DA00006602046FFF739FBE06A28B12068016839
:100DB00041F00E01016009E02068016821F00401A2
:100DC00001602068016841F00A0101602068016843
:100DD00041F001010160D7E72DE9F84F002400231D
:100DE000DFF8E0914FF00F0809F1040A0AF1040B53
:100DF0000BF1040EDFE00127A7403A40BA4275D15B
:100E0000DFF8C4C14D68A5EB0C0665452BD00DDCA1
:100E1000032D34D005DC35B3012D19D0022D2FD18F
:100E20001BE0112D16D0122D2AD119E0B6F5881F1E
:100E300019D006DCB6F5803F15D0B6F5801F1FD15E
:100E400011E0B6F5001F0ED0B6F5041F18D10AE068
:100E5000CB6815E0CB681B1D12E0CB6808330FE0B0
:100E6000CB680C330CE08B6823B1012B04D0082332
:100E7000476105E0042303E00823076100E0002345
:100E8000FF2A01D8054601E000F1040502D84FEA27
:100E9000840603E0A4F108064FEA86062F6808FAE4
:100EA00006FC27EA0C0703FA06F647EA06072F6056
:100EB0004D68ED007ED5454DAE6946F00106AE6148
:100EC000AD6905F001050095414D24F00306771941
:100ED000BE68A5072D0F08FA05FC26EA0C06DFF808
:100EE000F4C0604503D14FF0000C25E062E0DFF86C
:100EF000E8C0604502D14FF0010C1DE0DFF8DCC016
:100F0000604502D14FF0020C16E0DFF8D4C0604516
:100F100002D14FF0030C0FE0DFF8C8C0604502D1EA
:100F20004FF0040C08E0DFF8C0C0604502D14FF07C
:100F3000050C01E04FF0060C0CFA05FC4CEA060C1F
:100F4000C7F808C04D68ED0305D5D9F80050154322
:100F5000C9F8005004E0D9F800509543C9F8005092
:100F60004D68AD0305D5DAF800501543CAF80050B6
:100F700004E0DAF800509543CAF800504D68ED02DD
:100F800005D5DBF800501543CBF8005004E0DBF842
:100F900000509543CBF800504D68AD0205D5DEF802
:100FA00000501543CEF8005004E0DEF800509543A1
:100FB000CEF80050641C0A6832FA04F57FF41BAFC7
:100FC000BDE8F88F0004014000001110001002403D
:100FD0000000014000080140000C014000100140E9
:100FE0000014014000180140001C014080680842C4
:100FF00001D0012070470020704700000148806840
:10100000704700001C00002010B50748016841F03F
:1010100010010160032000F059F80F2000F006F8DD
:1010200000F026F8002010BD0020024070B50446F4
:101030000D4D4FF47A712878B1FBF0F00B49096837
:10104000B1FBF0F000F02CFC08B1012070BD102CB9
:1010500007D200222146501E00F018F86C600020D4
:1010600070BD012070BD00001C00002004000020A5
:101070007047002809DB00F01F0201219140400960
:10108000800000F1E020C0F800117047F0B40D4678
:101090000D4B1B68C3F30223C3F10704042C00D9D2
:1010A0000424191D072901D2002300E0DB1E0126BC
:1010B00006FA04F1491E294099409E40761E1640CA
:1010C0003143F0BC01F01DBE0CED00E000F0070163
:1010D000054A10684FF6FF03184040EA0120034913
:1010E00008431060704700000CED00E00000FA05B6
:1010F00010B586B0014632A090E81C00C068CDE96A
:1011000003340292059032A0006801900020314C17
:10111000042931D00EDC012938D0022908D100F091
:10112000A5F96168C1F38131491C4900B0FBF1F0B8
:1011300006B010BD082924D01029F9D161682268B1
:10114000D201F5D502A8C1F38342805CC90309D559
:10115000616801AAC1F34041515C1F4AB2FBF1F141
:10116000484301E01D49484361684902E0D440001A
:101170000321B0FBF1F0DBE706B0BDE8104000F062
:1011800085B906B0BDE8104000F080B9216AC1F30E
:101190000122012A03D1890701D5D003C8E7022A19
:1011A00005D1616A890702D549F64040C0E7032AA4
:1011B000BED121688903BBD54FF22440B8E70000B7
:1011C00002030405060708090A0B0C0D0E0F101088
:1011D000010200000010024000127A0000093D00E8
:1011E0002DE9F8430446DFF8F8802078C0075FD087
:1011F0000027D8F81C00C0000BD4D8F81C0040F021
:101200008050C8F81C00D8F81C0000F080500090F6
:101210000127344D2868C00512D4286840F4807036
:101220002860FFF7EBFE064607E0FFF7E7FE801BAE
:10123000642802D90320BDE8F8832868C005F4D5E6
:10124000D8F8200000F4407010B3A18801F4407178
:1012500081421DD0D8F8200020F44070224901229C
:101260000A6000220A60C8F82000C00710D0FFF70B
:10127000C5FE054641F2883606E0FFF7BFFE401B7B
:10128000B04201D90320D6E7D8F820008007F4D572
:10129000D8F82000616820F440700843C8F82000A6
:1012A000012F05D1D8F81C0020F08050C8F81C0090
:1012B0002078800707D5D8F80400A16820F44040C2
:1012C0000843C8F804002078C00607D5D8F8040001
:1012D000616920F480000843C8F804000020AAE7F0
:1012E0000010024000700040400442422DE9F047E7
:1012F00004460D46002C17D0DFF83081D8F80000E6
:1013000000F00700A84211D2D8F8000020F0070032
:101310002843C8F80000D8F8000000F00700A842F1
:1013200004D00120BDE8F0870120FBE72068404E93
:10133000810712D5400703D5706840F4E060706003
:101340002078000703D5706840F4605070607068C2
:10135000A16820F0F000084370602078C0072CD00E
:101360006068012806D0022809D0316889070BD4AB
:101370000120D7E73168890306D40120D2E731681C
:10138000890101D40120CDE7716821F003010143F7
:101390007160FFF733FE074641F2883906E0FFF738
:1013A0002DFEC01B484501D90320BBE7706861686A
:1013B00000F00C00B0EB810FF1D1D8F8000000F084
:1013C0000700A8420ED9D8F8000020F007002843F3
:1013D000C8F80000D8F8000000F00700A84201D0CB
:1013E00001209FE72078400705D57068E16820F468
:1013F000E060084370602078000706D570682169B6
:1014000020F4605040EAC100706000F03FF871685D
:10141000084AC1F30311515CC840074908600748F6
:101420000068FFF703FE00207CE700000020024078
:1014300000100240464C000804000020200000205C
:1014400001480068704700000400002000B5FFF765
:10145000F7FF04494968044AC1F30221515CC840BE
:1014600000BD000000100240564C000800B5FFF718
:10147000E7FF04494968044AC1F3C221515CC840EE
:1014800000BD000000100240564C000885B014A0BA
:1014900090E80E00C068CDE902230191049014A0E9
:1014A00000680090134B5968134801F00C02042A9D
:1014B00010D0082A0ED101A8C1F38342805CC90371
:1014C0000AD55968C1F340411DF801100A4A50433A
:1014D000B0FBF1F005B0704708494843FAE7000057
:1014E00002030405060708090A0B0C0D0E0F101065
:1014F000010200000010024000127A0000093D00C5
:101500002DE9F84F0446002C0ED02078D94DC007A5
:101510005ED06868C0F3810001280BD06868C0F312
:101520008100022803D00CE00120BDE8F88F686834
:10153000C00306D5286880034AD56068A8BB01208F
:10154000F3E76068B0F5803F11D0A8B1B0F5A02FE7
:101550001BD0286820F480302860286820F4802080
:101560002860606830B3FFF749FD06461EE0286832
:1015700040F480302860F4E7286820F48030286048
:10158000286820F480202860EBE7286840F4802059
:101590002860286840F480302860E2E7FFF72EFDDD
:1015A000801B642802D90320BFE711E0286880036C
:1015B000F4D50DE0FFF722FD064606E0FFF71EFD1D
:1015C000801B642801D90320AFE728688003F5D485
:1015D0002078DFF8A48280074FF0010A4FF000095D
:1015E00045D5686810F00C0F07D06868C0F381001B
:1015F000022812D16868C0030FD42868800704D578
:101600002069012801D001208FE72868616920F056
:10161000F80040EAC100286029E02069B8B1C8F8A4
:1016200000A0FFF7EBFC064606E0FFF7E7FC801B97
:10163000022801D9032078E728688007F5D52868B3
:10164000616920F0F80040EAC10028600FE0C8F8A6
:101650000090FFF7D3FC064606E0FFF7CFFC801BA7
:10166000022801D9032060E728688007F5D4207894
:10167000000726D58148A16999B1C0F800A0FFF7FD
:10168000BDFC064606E0FFF7B9FC801B022801D925
:1016900003204AE7686A8007F5D5012000F09CFF27
:1016A0000FE0C0F80090FFF7A9FC064606E0FFF740
:1016B000A5FC801B022801D9032036E7686A800751
:1016C000F5D42078400773D50026E869C00008D417
:1016D000E86940F08050E861E86900F080500090CF
:1016E0000126DFF89CB1DBF80000C00514D4DBF85C
:1016F000000040F48070CBF80000FFF77FFC074645
:1017000006E0FFF77BFCC01B642801D903200CE72F
:10171000DBF80000C005F4D5E068012812D0B0B1B4
:1017200005281DD0286A20F001002862286A20F0D0
:1017300004002862E06841F2883B28B3FFF75EFCB2
:1017400007461DE0286A40F001002862F2E7286A97
:1017500020F001002862286A20F004002862E9E7EE
:10176000286A40F004002862286A40F001002862DC
:10177000E0E7FFF743FCC01B584501D90320D4E63E
:10178000286A8007F5D50DE0FFF738FC074606E02C
:10179000FFF734FCC01B584501D90320C5E6286A71
:1017A0008007F5D4012E03D1E86920F08050E8616C
:1017B000E069A0B36968C1F38101022946D002281B
:1017C00005D0C8F86090FFF719FC04463AE0C8F865
:1017D0006090FFF713FC064606E0FFF70FFC801B46
:1017E000022801D90320A0E628688001F5D4206AE8
:1017F000B0F5803F05D16868A16820F40030084347
:101800006860D4E908010843696821F47411084349
:101810006860C8F860A0FFF7F1FB044607E026E027
:10182000FFF7ECFB001B022801D903207DE62868A6
:101830008001F5D51BE0FFF7E1FB001B022801D971
:10184000032072E628688001F5D410E001280CD04E
:101850006868226A00F48031914204D1616A00F420
:101860007010884203D001205FE601205DE6002071
:101870005BE6000000100240000042428004424249
:10188000007000404FF0E021042804D0086920F0E7
:10189000040008617047086940F00400086170475F
:1018A00010B5401EB0F1807F01D3012010BD4FF074
:1018B000E02460610F21601701F023FA0020A0618D
:1018C00007202061002010BD7047704710B590F8C8
:1018D0003C20012A22D0012280F83C20CA68002343
:1018E0008C6822F4407222434C6822F480622243C6
:1018F0000C6822F4006222430C6922F480522243D5
:101900004C6922F400522243C96922F480420A43FE
:1019100001684A6480F83C30002010BD022010BDF0
:1019200010B50446002909D004290AD008290BD093
:1019300094F8450001280AD0012010BD94F8420017
:10194000F8E794F84300F5E794F84400F2E7022042
:1019500059B304292CD008292DD084F8450004223D
:10196000206800F0E0FF2068416C41F400414164D0
:101970001549206888420ED0144988420BD0B0F136
:10198000804F08D01249884205D01249884202D0BF
:101990001149884212D1816801F00701062911D04E
:1019A000016841F0010101600CE084F84200D6E7D3
:1019B00084F84300D3E784F84400D0E7016841F09D
:1019C00001010160002010BD002C014000340140E5
:1019D0000004004000080040000C004010B5044620
:1019E000002C03D094F83D0010B107E0012010BD99
:1019F000002084F83C00204600F015F8022084F80E
:101A00003D00211D206800F039FF01203D34607247
:101A10006070A070E07020716071A071E071207240
:101A20002070002010BD704790F83D10012901D0B2
:101A300001207047022180F83D100168CA6842F019
:101A40000102CA600068114988420ED010498842DC
:101A50000BD0B0F1804F08D00E49884205D00E4916
:101A6000884202D00D49884209D1816801F00701FE
:101A7000062908D0016841F00101016003E0016816
:101A800041F001010160002070470000002C01407E
:101A9000003401400004004000080040000C0040F9
:101AA000704770B50446206801694FF00005C943CE
:101AB000890716D4C168C943890712D4E91E016198
:101AC0000120207720688069800703D02046FFF737
:101AD000E7FF05E0204600F09BF8204600F028F9DB
:101AE000257720680169C943490718D4C168C943EB
:101AF000490714D46FF004010161022020772068A7
:101B0000806910F4407F03D02046FFF7C9FF05E04D
:101B1000204600F07DF8204600F00AF9257720687D
:101B20000169C943090717D4C168C943090713D418
:101B30006FF008010161042020772068C0698007E8
:101B400003D02046FFF7ACFF05E0204600F060F828
:101B5000204600F0EDF8257720680169C943C906E1
:101B600018D4C168C943C90614D46FF010010161CB
:101B7000082020772068C06910F4407F03D02046F9
:101B8000FFF78EFF05E0204600F042F8204600F007
:101B9000CFF8257720680169C943C90708D1C16812
:101BA000C943C90704D1891E0161204600F026F906
:101BB00020680169C943090609D4C168C9430906F7
:101BC00005D46FF0800101612046FFF77DFE20689B
:101BD0000169C943490609D4C168C943490605D406
:101BE0006FF040010161204600F0A6F9206801690C
:101BF000C94389060BD4C168C943890607D46FF06D
:101C0000200101612046BDE87040FFF75EBE70BD57
:101C1000704770B504460D4694F83C0001280AD080
:101C2000012084F83C0042B1042A1AD0082A2DD0A1
:101C30000C2A53D13EE0022070BD2946206800F0F6
:101C40007FFE2068816941F0080181612068816917
:101C500021F004018161206881692A691143816151
:101C60003CE02946206800F09FFE2068816941F42D
:101C7000006181612068816921F48061816120684F
:101C800081692A6941EA0221816127E029462068A9
:101C900000F0C4FE2068C16941F00801C1612068FC
:101CA000C16921F00401C1612068C1692A69114339
:101CB000C16113E02946206800F0E8FE2068C16990
:101CC00041F40061C1612068C16921F48061C16192
:101CD0002068C1692A6941EA0221C161002084F8B3
:101CE0003C0070BD10B50446002C03D094F83D00B4
:101CF00010B107E0012010BD002084F83C00204610
:101D000000F015F8022084F83D00211D206800F045
:101D1000B5FD01203D3460726070A070E0702071EC
:101D20006071A071E07120722070002010BD7047BA
:101D30007047000010B50446002909D004290AD0D4
:101D400008290BD094F8410001280AD0012010BDC9
:101D500094F83E00F8E794F83F00F5E794F8400067
:101D6000F2E7022079B3042931D0082932D084F86F
:101D700041000122206800F0C9FD1B4A20681B4970
:101D8000904201D0884203D1436C43F40043436442
:101D9000206890420DD088420BD0B0F1804F08D01F
:101DA0001349884205D01349884202D0124988421B
:101DB00013D1816801F00701062912D0016841F0B2
:101DC000010101600DE0FFE784F83E00D1E784F8EF
:101DD0003F00CEE784F84000CBE7016841F0010105
:101DE0000160002010BD0000002C014000340140C3
:101DF0000004004000080040000C00402DE9F041C4
:101E000000683E49012605273D4D884239D13D4CA9
:101E1000207810B3207801281DD1207B012827D0FD
:101E2000012001F0DBFA20712079062808D82079FA
:101E300030B120793249401E091D51F820008047F9
:101E400020792978884206D1A068401CA0602878B3
:101E5000052814D02F70BDE8F081208B012803D015
:101E6000BDE8F04100F016BABDE8F04100F0E2B97B
:101E7000012001F0B3FAC0F107002071D4E72E7001
:101E8000E9E721498842E6D11E4C1C34207808B38A
:101E900020780128DFD1207B012826D0022001F004
:101EA0009DFA20712079062808D8207930B1207950
:101EB0001349401E1C3151F8200080472079697871
:101EC0008842C8D1A068401CA0606878052813D05B
:101ED0006F70C0E7208B012803D0BDE8F04100F00F
:101EE000C7BABDE8F04100F095BA022001F076FAD9
:101EF000C0F107002071D5E76E70ACE700340140F7
:101F00002C000020C8010020002C014002460020C7
:101F1000002908D0042909D008290AD00C2901D1A8
:101F20001068006C70471068406B70471068806BD9
:101F300070471068C06B70477047704770B50446B3
:101F400022681068D168526900F00F03002B08D195
:101F5000850606D58D0604D52046BDE8704000F004
:101F6000E2BD002B60D002F0010301F490751D4327
:101F70005AD0C50705D0CD0503D5E56B45F0010561
:101F8000E563450705D5D50703D0E56B45F00205A8
:101F9000E563850705D5D20703D0E26B42F0040262
:101FA000E263020707D501F020021A4303D0E26B77
:101FB00042F00802E263E26B002A2AD0800604D5D0
:101FC000880602D5204600F0AEFD20684069C0F3C7
:101FD0008010E16B090700D400B3204600F088FDB3
:101FE00020684169490615D5416921F040014161E8
:101FF000606B58B115494163606BFEF7A3FD002883
:1020000007D0606B416BBDE8704008472046FFF782
:1020100094FF70BD2046FFF790FF70BD2046FFF78C
:102020008CFF0020E06370BD020606D50A0604D5C9
:102030002046BDE8704000F01BBE4006F3D54806C0
:10204000F1D52046BDE8704000F060BDE12A0008EF
:1020500070B50446002C04D094F83900002510B166
:1020600006E0012070BD84F83850204600F022F8C8
:10207000242084F839002068C16821F40051C1602F
:10208000204600F099FD2068016921F4904101612A
:102090002068416921F02A0141612068C16841F44A
:1020A0000051C160E563202084F8390084F83A00CB
:1020B000002070BD10B586B000682549884244D123
:1020C0002448816941F008018161816901F00801BA
:1020D0000191816941F008018161816901F0080184
:1020E0000191816941F480418161816901F48041FC
:1020F0000191816941F001018161806900F0010075
:1021000001901549486840F0E06040F004004860E4
:1021100040200290022003900120049003200590AB
:102120000E4C02A92046FEF757FE802102910021A5
:10213000039102A92046FEF74FFE2520FEF799FFE6
:10214000002202212520FEF7A1FF06B010BD0000ED
:10215000003801400010024000000140000C014026
:1021600090F83A30202B01D002207047F9B1F2B13B
:1021700090F83830012B1CD081628285C285002105
:10218000C163222280F83A2080F838100168CA68BA
:1021900042F48072CA6001684A6942F001024A61F1
:1021A0000068C16841F02001C16000207047012033
:1021B000704702207047000030B500681849884217
:1021C00011D1184801780023821E7B2901D0517853
:1021D00021B30478144955784C555478072C03D012
:1021E0005078401C507030BD00787D2814D10D48C7
:1021F000801D047884B90C7804704C8844800C7974
:1022000004714C7944718C798471C979C17101214F
:102210000170064800685060537030BD537030BD87
:10222000003801400E0000208C0000202800002013
:102230007047FEE71248002201684A6301688A631A
:102240000068C2630F490888112802D2401C088028
:1022500000E00A800C48428B0B880C490C489A42DB
:1022600006D980220A6001210160022101607047C5
:102270004FF400020A60D11101604900016070470B
:102280000002002060000020C8010020100801406A
:10229000100C0140084900200A6850630A689063E6
:1022A0000968C86305494FF400000860C11104487B
:1022B00001604900016070470002002010080140E1
:1022C000100C01400948418A0948026851630268BC
:1022D000002191630068C16306494FF40000086063
:1022E000054801210160490401607047C8010020D0
:1022F0000002002010080140100C01400948418AEA
:102300000948026851630268002191630068C16353
:1023100006494FF400000860C11105480160022120
:1023200001607047C8010020000200201008014031
:10233000100C01400948002102685163084A528A82
:1023400003689A630068C1630649802008604102FF
:10235000054801604900016070470000000200204C
:10236000C801002010080140100C0140094800215C
:1023700002685163084A528A03689A630068C1631D
:1023800006494FF400000860C111054801600221B0
:102390000160704700020020C801002010080140C1
:1023A000100C0140094800210268516302689163E2
:1023B0000749498A0068C1630649802008604102D4
:1023C00005480160490001607047000000020020DC
:1023D000C801002010080140100C014009480021EC
:1023E00002685163026891630749498A0068C163C2
:1023F00006494FF4000008600548012101604904C6
:102400000160704700020020C80100201008014050
:10241000100C01401248002201684A6301688A6377
:102420000068C2630F494888112802D2401C4880C6
:1024300000E04A800C48428B49880C488A4206D901
:1024400041140160490001604900016070474FF08C
:1024500000510160490001604900016070470000BF
:102460004802002060000020E4010020100C014020
:10247000084900200A6850630A6890630968C863C5
:1024800005484FF00051016081060160C1060160FE
:102490007047000048020020100C01400948418AA2
:1024A0000948026851630268002191630068C163B2
:1024B00006484FF000510160C9130160C106016078
:1024C00070470000E401002048020020100C014089
:1024D0000948418A094802685163026800219163F2
:1024E0000068C16306484FF0005101608106016039
:1024F000C913016070470000E40100204802002079
:10250000100C01400948002102685163084A528AB0
:1025100003689A630068C16306484FF40051016084
:1025200081060160C106016070470000480200207A
:10253000E4010020100C01400948002102685163A9
:10254000084A528A03689A630068C16306484FF0DC
:102550000051016081060160C913016070470000ED
:1025600048020020E4010020100C0140094800212D
:1025700002685163026891630749498A0068C16330
:1025800006484FF40051016081060160C1060160F8
:102590007047000048020020E4010020100C0140B8
:1025A0000948002102685163026891630749498A1A
:1025B0000068C16306484FF000510160C913016013
:1025C000C10601607047000048020020E4010020BD
:1025D000100C0140FEE7704708B507494FF4FA5266
:1025E0000968B1FBF2F14143009100BF0098411E20
:1025F0000091FAD208BD0000040000207047F0B539
:1026000000234E1E12E05A1C174692B20BE030F81F
:10261000134030F81250AC4203D920F8124020F891
:102620001350521C92B28A42F1D3BBB2B342EADBDE
:10263000F0BD70470148FFF734BA0000480200209F
:102640002DE9F047594800680169C943C90762D1BB
:10265000891E0161564E307800285CD0554D28788F
:10266000DFF848810024A8F16C08A8F124070128AC
:1026700003D1E87808B96878A0B17C60FC613C625D
:10268000C8F80440C8F81C40C8F820406C824A4D85
:102690002878DFF818810128A8F12408A8F1240778
:1026A0002BD02EE0A878288A02F09CF801463F48FB
:1026B0006C3800F0D5FE7080E88902F093F801468E
:1026C0003A48903800F0CCFEB080E889322806D233
:1026D00079683A48814202DD78603220B0807088A3
:1026E000B188884204D369827868C8F80400CEE7CC
:1026F0006882D8F804007860C9E7E87808B9687893
:1027000058B17C60FC613C62C8F80440C8F81C40C9
:10271000C8F820406C82BDE8F087A878288A02F0CB
:1027200061F801462148243800F09AFE7080E8895B
:1027300002F058F801461D48483800F091FEB0807C
:10274000E8891F4CDFF87C90642820D2E88902F0E9
:1027500049F8214601F04CFF214602F08BF849462A
:1027600001F0D2FE796802F051F810D2E88902F047
:1027700039F8214601F03CFF214602F07BF849463A
:1027800001F0C2FE7860786801F0F4FFB0807088D4
:10279000B188884204D369827868C8F80400BAE72F
:1027A0006882D8F804007860B5E700009403002040
:1027B0006E000020C8010020E40100200000484213
:1027C0000000C8420000484370B5254E30680169DA
:1027D000254CC9430B0723494FF0000506F1480279
:1027E0002DD46FF008030361106858B1086820F415
:1027F00000700860156008213046FFF787FB401C19
:10280000E08070BD086840F400700860022010602D
:1028100008211348FFF77AFB401CA080A08801F034
:102820003FFC02460B460020104901F061FA01F01E
:10283000F3FB2080E08860803068456270BD0369EA
:10284000DB43DB07FAD19B1E036125806580E580B1
:10285000A580086820F400700860156070BD000055
:10286000DC030020200800407400002080842E41FA
:102870000148FFF716B90000000200202DE9F041E1
:1028800002681D4D1D4E1E4FDFF878C01E4B4FF0E5
:102890008048A84209D0984207D0404505D0B042B0
:1028A00003D0B84201D0604503D122F070044A68D9
:1028B0002243A84209D0984207D0404505D0B042F3
:1028C00003D0B84201D0604503D122F44074CA68F5
:1028D00022434C6922F08002224302608A68C2626D
:1028E0000A688262A84201D0984201D10969016355
:1028F00001214161BDE8F081002C0140000400404D
:1029000000080040000C00400034014010B501F008
:102910001F0101238B40046A9C430462036A8A40BE
:102920001343036210BD10B501F01F0104238B4057
:10293000046A9C430462036A8A401343036210BD25
:10294000F0B5026A22F001020262026A43688469F9
:1029500024F0700424F003050C682C4322F00205D7
:102960008A682A430E4E0F4FB04201D0B84205D1BB
:1029700022F00805CA682A4322F00402B04201D0BE
:10298000B84207D123F4807323F400734D691D43CB
:102990008B692B4343608461496841630262F0BDE7
:1029A000002C014000340140F0B5026A22F0100210
:1029B0000262036A4268846924F4E04424F44074A7
:1029C0000D6844EA052423F020038D6843EA0513CB
:1029D000104D114EA84201D0B04206D123F0800321
:1029E000CF6843EA071323F04003A84201D0B04266
:1029F00009D122F4806222F400624D6942EA850224
:102A00008D6942EA8502426084614968816303629C
:102A1000F0BD0000002C014000340140F0B5026A16
:102A200022F480720262026A4368C46924F070046E
:102A300024F003050C682C4322F400728D6842EAEE
:102A40000522104D104EA84201D0B04206D122F40A
:102A50000062CF6842EA072222F48062A84201D0D5
:102A6000B04209D123F4805323F400534D6943EA63
:102A700005138D6943EA05134360C4614968C16366
:102A80000262F0BD002C01400034014030B5026A02
:102A900022F480520262046A4268C36923F4E0436C
:102AA00023F440730D6843EA052324F400548D6831
:102AB00044EA0534084DA84202D0084DA84204D18A
:102AC00022F480424D6942EA85124260C36149683E
:102AD0000164046230BD0000002C0140003401405C
:102AE00010B5406A0021C185C184FFF726FA10BDE8
:102AF0000168CA6822F49072CA6001684A6922F0CB
:102B000001024A61202180F83A10704710B501682F
:102B1000CA6822F04002CA60202180F83910FFF70D
:102B200087FB002010BD10B590F83A10222901D083
:102B3000022010BD82684FF480539A4201D101698E
:102B400021B1816A9A421DD052B10BE0816A0268BC
:102B50005268C2F308020A80816A891C816209E016
:102B600002697AB10268526802F07F020A70816AD3
:102B7000491C8162C18D491E0904090CC18505D01B
:102B8000002010BD026852680A70F0E70168CA6848
:102B900022F02002CA600168CA6822F48072CA600A
:102BA00001684A6922F001024A61202180F83A1046
:102BB000FFF702FB002010BD70B5044620680169D4
:102BC000E26821F4405111430161A1682069014389
:102BD000606901432068C26841F20C639A430A436A
:102BE000C26020684169A26921F4407111434161CA
:102BF0001E492068884202D1FEF738FC01E0FEF74A
:102C000025FC00EBC00101EB001061686422890023
:102C1000B0FBF1F3B3FBF2F36FF018067343B0FBB4
:102C2000F1F5B0FBF1F605EB8305322303EB051557
:102C3000B5FBF2F5B6FBF2F605F0F00505EB06156F
:102C4000B0FBF1F6B0FBF1F0B0FBF2F06FF0180161
:102C5000484306EB800003EB0010B0FBF2F0216864
:102C600000F00F002844886070BD0000003801406B
:102C700090F83910212901D0022070478168B1F500
:102C8000805F01D1016961B1016A4A1C0262026878
:102C900009785160C18C491E0904090CC1840AD00D
:102CA00013E0016A02680988C1F308015160016AF2
:102CB000891C0162EEE70168CA6822F08002CA60DE
:102CC0000068C16841F04001C16000207047000009
:102CD00008B50948FFF732F9074800680168C94399
:102CE000090702D4016840680090BDE8084001224D
:102CF00002490148FFF734BA880100200E00002085
:102D0000FEE70907090E002804DB00F1E02080F847
:102D10000014704700F00F0000F1E02080F8141D4F
:102D200070472DE9F0414F1E00EBC7010446D1E981
:102D3000000115461E4637F006020DD02A463346DE
:102D400001F0C2F97F1E04EBC703D3E9002300F0B2
:102D500013FF37F00602F1D1022F25D0042F13D034
:102D6000062F18BFBDE8F0812A46334601F0ACF9C2
:102D7000D4E90A2300F000FF2A46334601F0A4F903
:102D8000D4E9082300F0F8FE2A46334601F09CF906
:102D9000D4E9062300F0F0FE2A46334601F094F908
:102DA000D4E9042300F0E8FE2A46334601F08CF90A
:102DB000D4E9022300F0E0FE2A46334601F084F90C
:102DC000D4E90023BDE8F04100F0D6BE002213464E
:102DD0001046014900F08CBF0000F03F012201F0D5
:102DE000C6BE002213461046114600F081BF704750
:102DF0002DE9F0478EB0182104A8FDF708FA002647
:102E00000196029603964B48816941F400718161F5
:102E1000816901F400710091816941F004018161CF
:102E2000816901F004010091416941F001014161B2
:102E3000406900F0010000904FF0020ACDF810A0A8
:102E40004FF40040069004A8FEF7CAF933200A9018
:102E500003270B970C960D970AA93748FDF7BCFF7F
:102E6000374C364820606660A6608020E0604FF4F2
:102E70008078C4F81080C0006061A6618000E061C5
:102E80002046FDF707FF04F144052E4828606E60D8
:102E9000C5F808804FF0010885F80C804FF0040950
:102EA000C5F810902E75AE614FF46020E861284699
:102EB000FDF724FD002207210B20FEF7E7F80B2089
:102EC000FEF7D7F82C6265620196CDF808800724DA
:102ED000039401A92846FDF789FCCDF80480CDF8BC
:102EE00008A0039401A92846FDF780FCCDF80490C2
:102EF0000297039401A92846FDF778FC052001906C
:102F0000CDF80890039401A92846FDF76FFC2846E8
:102F1000FDF7FAFB0B4904230B4A4C310848FDF737
:102F2000F9FE042208492846FDF77CFD0EB0BDE8F5
:102F3000F087000000100240000801400800024035
:102F40009002002000240140660000202DE9F0439B
:102F500095B0074628210BA8FDF759F9282101A8AB
:102F6000FDF755F94FF00008C146142F00D914277A
:102F7000002F7CD000244D4E4D4D2FE0322000F02C
:102F800013FA306820F001003060A86820F00100DA
:102F9000A860A868C007FCD10420E860A86840F0D9
:102FA0000100A860306840F001003060306840F4F3
:102FB000800030602868686840F0020068603D4822
:102FC00041880BAA22F81410018801AA22F81410D3
:102FD000C188884480888144641CE4B2BC42CDD35B
:102FE00014210BA8FFF70BFBBDF84E40142101A8DC
:102FF000FFF705FBBDF82650204601F0F3FB2E4EEF
:10300000314601F0F5FA01F0B5FB2C4C2082284640
:1030100001F0E8FB314601F0EBFA01F0ABFB284E82
:103020003082244DAD1E288864283BD9B9FBF7F0C7
:1030300001F0D8FB234901F0DBFA01F09BFBA082F1
:10304000A08AB082B8FBF7F01F49B1FBF0F0A0F501
:103050004050D43801F0C6FB1C4901F0C9FA01F018
:1030600027FA00F047FA4FF0C042194B00E016E093
:1030700001F02AF84FF04042164B00F07DFD024669
:103080000B460020144900F033FE00F0C5FFA0F508
:10309000D440B338E082E08AF0820020288015B066
:1030A000BDE8F083401C2880F9E7000008240140B7
:1030B0000000024066000020B6F3FD3DC80100207C
:1030C000E40100204A7B833D0000710200401C4661
:1030D0006797303FE3796B3F000059402DE9F04F8F
:1030E00095B080468946924A906940F0040090610C
:1030F000906900F004000190906940F00800906130
:10310000906900F008000190906940F01000906113
:10311000906900F010000190906940F400609061A7
:10312000906900F400600190906940F40050906153
:10313000906900F4005001904FF4E0700290022773
:10314000039704970326059602A97A48FDF744FEE3
:103150007A4D79482860C5F804900024AC60C5F821
:103160000C802C614FF0800AC5F818A06C612846CD
:10317000FEF7B8FD60200690079408940994042097
:103180000A900B940C94002206A92846FEF741FDF4
:10319000042206A92846FEF73CFD082206A9284677
:1031A000FEF737FD11942868416C41F400414164F9
:1031B0003F2010900DA92846FEF788FB002202212F
:1031C0002C20FDF763FF2C20FDF753FF2846FEF768
:1031D0002BFC00212846FEF7ADFD04212846FEF712
:1031E000A9FD08212846FEF7A5FD00212846FEF787
:1031F00097FB04212846FEF793FB08212846FEF79B
:103200008FFB02964FF0010BCDF80CB0049705969A
:1032100002A94B48FDF7E0FDCDF808A0494D02A9F1
:103220002846FDF7D9FD382002900394CDF810B060
:10323000059602A94248FDF7CFFD4FF4E0600290E9
:1032400003970497059602A92846FDF7C5FD3B4D57
:103250003D4848352860C5F80490AC60C5F80C803E
:103260002C61C5F818A06C612846FEF73BFD602074
:10327000069007940894099404200A900B940C94E7
:10328000002206A92846FEF7C4FC042206A9284607
:10329000FEF7BFFC082206A92846FEF7BAFC1194E7
:1032A0002868416C41F4004141643F2010900DA911
:1032B0002846FEF70BFB002202211920FDF7E6FE4F
:1032C0001920FDF7D6FE2846FEF7AEFB0021284662
:1032D000FEF730FD04212846FEF72CFD0821284684
:1032E000FEF728FD00212846FEF71AFB0421284698
:1032F000FEF716FB08212846FEF712FB4FF460404C
:103300000290CDF80CB00497059602A90C48FDF781
:1033100063FD4FF4E05002900394CDF810B0059691
:1033200002A90448FDF758FD15B0BDE8F08F000074
:103330000010024000100140003401400002002053
:10334000000C014000080140002C014010B504466B
:103350004FF0E022002111610020FEF793FA0249AC
:10336000E008088010BD00000800002070B54FF490
:103370007A71B0FBF1F4B0FBF1F201FB1205094EDA
:1033800003E0304600F010F8641E002CF9D1002D47
:1033900006D04FF47A706843BDE8704000F004B87E
:1033A00070BD000040420F000B49098848434FF0B0
:1033B000E021486100238B61086940F00100086149
:1033C0000869C20701D0C003FAD5086920F00100DE
:1033D00008618B61704700000800002070B5002470
:1033E000012802D0022819D033E01B4D20212846A5
:1033F000FDF7FCFD012800D1042410212846FDF72B
:10340000F5FD012801D144F0020408212846FDF70A
:10341000EDFD01281DD144F001041AE00F4D4FF4D9
:1034200080512846FDF7E2FD012800D104244FF425
:1034300000612846FDF7DAFD012801D144F00204BD
:103440004FF480612846FDF7D1FD012801D144F0F9
:103450000104204670BD0000000C01400010014036
:1034600070B50446206801F0DBFAA061E069012133
:1034700001F0ABFBA16901F0C9FA216A01F044F83F
:10348000616901F0F7F9A1690546206901F0F2F9D7
:10349000E1690646A06901F0C3FAE16801F0EAF9C2
:1034A000314601F031F8294601F02EF8616801F04B
:1034B0002BF86060E0692062A069E06161680848FB
:1034C000814201DD606005E0606810F1FF4F01D3CB
:1034D000002060606068BDE8704001F04BB90000FA
:1034E00000009643904201DD104670478842FCDAA6
:1034F000084670472DE9F04DC84A002490B091422B
:1035000005DA21F00043934201D805D120B110B073
:10351000BDE8F04DFFF762BCB1F5801F1BDA53EA3E
:10352000000209D0002911DA0120FCF7A0FE10B03A
:10353000BDE8F04DFFF755BC0220FCF798FEFFF701
:1035400045FC10B081F00041BDE8F08D6FF035040E
:10355000362201F00CFB04EB2152C1F31308B049F1
:10356000A2F2FF33414401F4801282F07F6103EB49
:10357000225281F04051009241EA08010022A94BF9
:1035800000F0ACFE044608F10200A74EC0F31300A1
:103590000D467E44032867D2D6E90023204600F07A
:1035A000FFFC1ED10098002802BFD6E9000110B030
:1035B000BDE8F08D00F05DFD07460C469B4A9C4B34
:1035C00000F082FD06460D469A4A9B4B384621463E
:1035D00000F07AFD10B032462B46BDE8F04D00F009
:1035E000CBBA4FF05532954B2046294600F06CFD82
:1035F0000022934B00F066FE06460F4622462B46FD
:103600001046194600F060FD32463B4600F05CFD76
:10361000064600980F46F0B100F02BFD80468A4622
:10362000824A834B00F050FD32463B4600F04AFE92
:1036300022462B4600F052FE05460C467D4A7E4B44
:103640004046514600F040FD10B02A462346BDE8F2
:10365000F04D00F043BE0B4610B0324620462946DE
:10366000BDE8F04D00F03ABE00224FF08043204606
:1036700000F082FA02460B462046294600F038FB4D
:1036800006460F46009800F0F4FCCDE904013246EE
:103690003B461046394600F017FD0C9069480C9ADD
:1036A0004044019009910B46104600F00DFD824602
:1036B000024665488B46C8F151080B4608F5D728E5
:1036C00003217844FFF72DFB52465B4600F0FCFCDB
:1036D0000A905E480D9152465B4604217844FFF7FC
:1036E00020FB099B0C9A00F0EFFC844601980D9B8F
:1036F00040EA080860460A9A00F03EFA83460891BC
:10370000B8F1000F4EDD4FF0FF322046294601F0A0
:103710002EFA22462B4600F0D7FC804600988A46B7
:1037200060B3DDE90401414A414B00F0CDFC099151
:1037300000905A4640465146089B00F01DFA32461A
:103740003B4600F0C1FC099B009A00F015FA424686
:10375000534600F0B7FD22462B4600F0BFFD04465D
:103760000D46DDE90401334A334B00F0ADFC10B0E7
:1037700022462B46BDE8F04D00F0B0BD5A4640460B
:10378000089B00F0F9F932463B4600F09DFC4246AA
:10379000534600F097FD10B022462B46BDE8F04D91
:1037A00000F090BD009840B3DDE904011F4A204BB2
:1037B00000F08AFC80468A465A4620462946089BE5
:1037C00000F08CFD32463B4600F07EFC42465346FC
:1037D00000F084FD22462B4600F080FD04460D4695
:1037E000DDE90401134A144B00F06EFC10B02246D0
:1037F0002B46BDE8F04D00F071BD0B465A46204601
:10380000294600F06BFD32463B4600F05DFC10B0EF
:1038100022462B46BDE8F04D00F054BD0000F07F7D
:10382000645F09000000F03F02170000763C793524
:10383000EF39EA3D0000E0FE422EE63F5555D53F08
:103840000000E03F86EBF9FF9A1500009815000094
:1038500008B5FDF7D9FB4FF4E01000F045F948201A
:10386000FFF774FD4D48816941F001018161806974
:1038700000F0010000904A49486820F0E06040F004
:10388000007048604FF4E13000F02CF96420FFF73D
:103890006DFD444C00266682267001202073A670C0
:1038A000E670414D6E822E7002202873AE70EE706D
:1038B000032140F2E730FFF711FC4FF47A70FFF775
:1038C00055FDFFF795FAC82000F0A2F8374F396888
:1038D0000A20B1FBF0F200FB121010B90220FCF735
:1038E000B3FD39680520B1FBF0F200FB121010B9EE
:1038F0001420FFF72BFB38684FF01408B0FBF8F1E9
:1039000008FB110028B9274800F056F8264800F0B7
:1039100053F83868B0FBF8F108FB1100B8BBE08938
:1039200000F060FFDFF88890494600F0A3FF83466F
:10393000A06840F6B83148434FF00E08B0FBF8F0ED
:1039400000F050FFDFF86CA0514600F093FF59469D
:1039500000F0DAFD00F00EFFE081A660E88900F0DB
:1039600041FF494600F086FF8146A86840F6B8311D
:103970004843B0FBF8F000F035FF514600F07AFF05
:10398000494600F0C1FD00F0F5FEE881AE60386800
:10399000401C38600120FFF7E9FC98E70010024066
:1039A00000000140C8010020E401002028000020A0
:1039B0003333333F9A99993E30B5C18A42F2283366
:1039C00000220124994201D9C47005E0C18A41F660
:1039D0005833994200D2C270018A43F698250B4BA6
:1039E000A94208D984705988491C89B259800A298A
:1039F00000D9447030BD1988491C89B21980192931
:103A0000F8D91A805A808270427030BD00000020C0
:103A100030B4174A00211160516091609161D16109
:103A20001162144BD36013615161243211605160F3
:103A300091609161D16111620F4DD5600F4C14619D
:103A4000516124321160516091609161D1611162C4
:103A5000D3601361516124321160516091609161B2
:103A6000D1611162D5601461516130BC00F008B8B9
:103A7000040300206F12033BA69BC43A6F12833AE3
:103A800008B51549CA6942F00102CA61C96901F065
:103A90000101009111494FF080420A6040F2CF22AB
:103AA0004A6000228A600E4BB3FBF0F0401EC860F3
:103AB0000A61802088614A610846FDF78FFF002275
:103AC00008211C20FDF7E2FA1C20FDF7D2FABDE820
:103AD00008400248FDF7A8BF0010024094030020F0
:103AE000A086010000F02CB870B590B006462821E1
:103AF00006A8FCF78CFB142101A8FCF788FB012128
:103B00000691090407910024089402250D950E9151
:103B10000F9606A8FDF7F4FC00B1FEE70F20019018
:103B2000029503944FF4806004900594022101A84B
:103B3000FDF7DCFB002800D0FEE710B070BD0000F0
:103B400010B50B49094A0A60486000208860C860C7
:103B5000086188610C2048610846FEF779FABDE8E3
:103B60001040012203490248FEF7FABA003801402A
:103B7000880100200E00002010B591EA030F48BF15
:103B800083F0004300F1B283841A71EB030C05D279
:103B9000121943EB0C03001B61EB0C01DFF824E16D
:103BA0004FEA1154A4EB135C1EEA430F18BF9EEAC0
:103BB000445F73D023EA0E03DCF1200E21EA0451A6
:103BC00043F4801332D322FA0CFE10EB0E0023FADA
:103BD0000CFE41EB0E01CCF1200E03FA0EFE10EBB1
:103BE0000E0051F10001B1F5801FCCF1200E32D250
:103BF00001EB045112FA0EF2BDE8104058BF7047B5
:103C0000401C38BF5FEA420218BF7047002814BF4B
:103C100020F0010041F100014FEA410313F5001FBC
:103C200038BF7047A1F1C04100F046BB012A43EB09
:103C30000302ACF1200CDCF11F0E32BF4FF0000E7E
:103C400023FA0CF310EB030041EB0451B4EB115FCA
:103C5000D0D0A1EB045101F5801149085FEA300092
:103C600001EB04510ED350F1000038BF12FA0EFEE2
:103C700008D1BDE81040C9E7401C38BF5FEA4202E6
:103C8000CAD1C3E7BDE810404FEA410313F5001F56
:103C900038BF7047A1F1C04100F00EBB9EEA445FFF
:103CA00008D011EA5E0FBDE8104004BF01F00041EA
:103CB00000207047BDE8104070B500F0AFFA00BFBB
:103CC00064FBBE3E0000E0FF02494FF0000000F040
:103CD0001CBF00BF0000F87F491058BFC1F1404130
:103CE0005B1058BFC3F140438B42EFF30080704735
:103CF0002DE9C04130B4DFF8A0C23CEA111418BF6E
:103D00003CEA131400F0EC8081EA03051CEA11146C
:103D100044EAD57418BF1CEA131500F0C780A4EB61
:103D200005044FF0004545EAC12145EAC32341EAB5
:103D3000505143EA525304F17F74994204F5003420
:103D40004FEAC0204FEAC22208BF904200F09C8098
:103D50004FEA13650FF24016765D4FEA134506FBF6
:103D600005F7C7F1807706FB07F74FEAD737A7FBC0
:103D700003687642C8F58038A7FB06CE38BFA8F1A5
:103D8000010807FB08E64FF0000EA6FB028CE6FBDD
:103D900003CEDCF1000CCEF1004E38BFAEF1010EC7
:103DA000A6FB0C584FF000074FF00005E6FB0E870E
:103DB000A1FB08C6A0FB07CE16EB0E0645F10005D9
:103DC000E1FB076515F1E04E7EBFA4F580345FEAA4
:103DD00046066D4116F1800745F100054FEA1727A9
:103DE0004FEA066647EA0567A6F1DE46B6F1805F50
:103DF0004FEA15251FD9384624F0010C05EBC47194
:103E0000BCF1FE6F01EB0C1102D8F0BCBDE80081E3
:103E100024425CBF01F5801E9EEAC47F02D4F0BC40
:103E2000BDE80081244238D4F0BCA1F1C041BDE816
:103E3000004100F041BA4FEAD22242EA43524FEA2F
:103E4000D323A7FB02864FEAD02040EA415007FB6C
:103E500003661EEA0E0F4FEAD12105FB026658BF2A
:103E6000A6EB0056B6EB00564FEA520E4EEAC37E62
:103E700018EB0E0E56EB530EBDD518EB02085E4143
:103E80007F1C55F10005B6E74FF480154FF0000791
:103E90004FF000064FF00008ADE7F0BC4FF0000017
:103EA00001F1C04101F00041BDE8008111EA0C1FA1
:103EB0000CEA131500D00CE013EA0C1F00F025806B
:103EC0004FF00000F0BC81EA030101F00041BDE8C1
:103ED0000081F0BCBDE8004181EA030100F0ECB9CB
:103EE000F0BCBDE8004170B500F098F9097EFC3ED9
:103EF00000F007B881EA03014FF0000001F0004133
:103F0000704781EA030100F0D7B9F0BCBDE8004179
:103F10004FF0000021497047FFFDFBF9F7F5F4F27F
:103F2000F0EEEDEBE9E8E6E4E3E1E0DEDDDBDAD854
:103F3000D7D5D4D3D1D0CFCDCCCBCAC8C7C6C5C4B2
:103F4000C2C1C0BFBEBDBCBBBAB9B8B7B6B5B4B3C9
:103F5000B2B1B0AFAEADACABAAA9A8A8A7A6A5A4B4
:103F6000A3A3A2A1A09F9F9E9D9C9C9B9A99999878
:103F70009797969595949393929191908F8F8E8E1B
:103F80008D8C8C8B8B8A89898888878786858584A8
:103F900084838382828181800000FF070000F87F94
:103FA00051EA030C17D41CF5801F58BFBCF5801FC5
:103FB00000F10680994218BF704708BF90427047D1
:103FC00007D711F5801F58BF13F5801F19D49942E8
:103FD0007047894270471CF5801F08D5BCF5801FCB
:103FE000F7D58B4218BF704708BF824270474FF425
:103FF000001C1CEB410F38BF1CEB430F01D28B425E
:10400000704770B500F00AF9922449004FF0005152
:104010004FF08053FFF760BE4FEA1153A3F5806362
:10402000D3F11E03A8BFD3F1200C08DB4FF00042F0
:1040300042EAC12252EA505232FA03F07047094272
:104040000BD4102BC4BF0020704703F5787CBCF163
:10405000FF3F05D04FF0FF3070474FF00000704732
:1040600070B500F0DBF800BF499224800020704753
:10407000F0E710F0004248BF4042B0FA80F310FA77
:1040800003F10AD0C3F11D0303F580634FEA4150E9
:1040900002EB035202EBD12170474FF00000704752
:1040A000B0FA80F310FA03F10AD0C3F11D0303F54F
:1040B00080634FEA41504FEA035202EBD12170472F
:1040C0004FF0000070470000DFF848C170B51CEAEF
:1040D000111E1EBF1CEA13159EEA0C0F95EA0C0F69
:1040E00000F06F8081EA030423EA4C134EEAD47E89
:1040F00021EA4C1141F4801143F48013AE44A1FB3A
:10410000024CA0FB0365AEF17F7E361955EB0C0522
:10411000A1FB034C4CF10003A0FB021C16EB0C06A8
:10412000654153F10003094218BF46F0010613F43C
:10413000007F0BD14FEA03314FEA0530340341EAE7
:10414000155140EA16506FF003020AE04FEAC3210E
:104150004FEAC520F40241EA555140EA56506FF04B
:10416000020202EB2E4201EB025585EACE710AD023
:104170005FEA440C18BF24F0004450F1000041F104
:10418000000120EAD47040F2FE7C624500D270BD8E
:10419000A84214BF4FF080444FF04044002E08BFA7
:1041A0000024BEF1806FA8BFA1F1C041BDE87040FE
:1041B00080F282804FF0000001F1C04101F0004127
:1041C00070479EEA0C0F0CEA131518BF95EA0C0F06
:1041D00006D04FF0000081EA030E0EF0004170BDE2
:1041E00000F01CF88900013E00F007B800F009B8A3
:1041F0004FEA430C5FEA5C5C08D081EA030100F0FF
:104200005BB84FEA410C5FEA5C5CF6D14FF000000E
:10421000014970470000FF070000F87F0EF1020E11
:104220002EF0030E5EF8046B364205D4012A43EBF0
:10423000030515F5001F12D8012841EB010C1CF5F0
:10424000001F0CD80ED14FEAD17C15F5001F0CEBE6
:104250004C0C0CF1020C08BF4CEBD37C04E04FF08B
:10426000080C01E04FEAD37C0CEB4C0526FA05F66E
:1042700006F00706B6F1040C06D20EEB860CBDE87C
:1042800070404CF0010C6047DFE80CF0090B0202B3
:104290004FF000414FF00000A1F5002170BD19461C
:1042A0001046012851EB010418BFD4F5001484BF57
:1042B000002001F0004170BD0808A0F500114FEA90
:1042C0003101704791EA030F10B581F000413FF5CD
:1042D0005BAC83F0004300F009B8000010B591EA30
:1042E000030F48BF83F000433FF54EAC841A71EBD7
:1042F000030C07D212198CF0004C43EB0C03001B8B
:1043000061EB0C01DFF8A4E14FEA1154A4EB135C5C
:104310001EEA430F18BF9EEA445F00F0B08023EA14
:104320006E03524221EA0451C3EB6E0338BF5B1E99
:10433000DCF1200E25D322FA0CFE10EB0E0043FA1E
:104340000CFE41EB0E01CCF1200E03FA0EFE10EB39
:104350000E0051F10001CCF1200E29D412FA0EF218
:1043600001EB0451BDE8104058BF7047401C1CBF12
:10437000B2F1004F704700280CBF491C20F001002B
:10438000704712EB020E43EB030218BF4FF0010E11
:104390004EEA4202ACF1200CDCF11E0E54D943FA75
:1043A0000CFE10EB0E0051F1FF31CCF11E0ED5D5F5
:1043B0000EF1010E12FA0EFE404141EB010101EB3C
:1043C000445C5FEA5C5C10D910EBDE7001EB0451D9
:1043D00038BFBEF1004FBDE8104018BF704700283D
:1043E0000CBF491C20F00100704730D24FEAD42C9A
:1043F00011F5001124F400641BD0B1FA81F20B3ADC
:10440000A41AA41ED2F12003914030FA03F31943F9
:10441000904001EBCC71002C01EB0451BDE8104041
:10442000A8BF704701F1C0414FF0000001F000410A
:104430007047B0FA80F310FA03F100D110BDE41A0E
:10444000173C4805C90AE4E701EB045110BD4910C7
:1044500001EB0451BDE810404FEA300002E04FF09C
:10446000000170474A0008BF0042F8D0B2F5001FB3
:1044700028BF704701F000414FF0000070479EEAEE
:10448000445F07D011EA5E0FBDE8104004BF002171
:1044900000207047BDE8104070B5FFF7BFFE00BFB9
:1044A00040DFF63E83F00041104670470000E0FF19
:1044B00043004FEAD30C4FEA3C0C43401FBF400778
:1044C0000CF1605113F0FE4F70471CF0006F03D1E8
:1044D00000200CF0004170470CF0004343EA50709C
:1044E00010B540EACC0000F046FA00BF0000009290
:1044F0004FEA0001FFF7E0BE4FF000414FF000002F
:10450000A1F500217047000090EA010F48BF81F03B
:10451000004100F18C82421A3CBF801A89184FEA90
:10452000D0524FF07F4C1CEA410FA2EBD15318BF81
:104530009CEA026F00F03B804FF0004C4CEA0020F8
:104540004CEA012121FA03FC10EB0C0C1ED202F103
:10455000FF325FEA1C2040EBC25038BF70471CF0AE
:104560007F0F4FEA400C18BFBCF17F4F38BF704738
:10457000C3F12003994008BF20F00100BCF17F4F38
:1045800038BF7047A0F1C04000F03BBA4FEA3C0092
:10459000000A40EBC25028BF1CF0FF0F4FEA400C4E
:1045A000E6D018BFBCF17F4F38BF7047EAE79CEAFE
:1045B000026F05D010EA5C0F08BF00F000407047A2
:1045C00010B500F0D8F900BF64FBBE3E014800F012
:1045D0009CBA00BF0000C07F401058BFC0F14040EF
:1045E000491058BFC1F140418142EFF3008070474C
:1045F0004FF47F0C1CEAD0121EBF1CEAD11392EAC2
:104600000C0F93EA0C0F00F0858090EA010F48BF71
:1046100042F4807240F4000C41F400002CF07F4121
:1046200020F07F4000B58142A2EB03020FF2081C8C
:10463000ACEB504EC0F100009EF800E04FEA4E0E89
:1046400000FB0EFC38BF49004FEA2C1C02F5FA02B1
:104650000CFB0EF34FEACE1E4FEA112C4FEAC1219C
:104660000EEB635E42EB22420EFB0CFC4FEA1C5346
:1046700000FB03114FEA112C4FEA01310EFB0CFC39
:104680004FEADC4C00FB0C11C14228BF09184CEB6F
:1046900003335DF804EB10EB410143EBC250B2F57C
:1046A0007C0F38BF704729D512F0F00F1CBF00F106
:1046B000C04000F000407047008182838485868777
:1046C00088898B8C8D8E8F919293959697999A9CD1
:1046D0009D9FA0A2A3A5A7A8AAACAEB0B2B3B5B740
:1046E000B9BCBEC0C2C5C7C9CCCED1D4D7D9DCDF16
:1046F000E2E6E9ECF0F3F7FAFE0000004FEA400CC6
:104700000CF1807CBCF17E4F28BF7047B0F1C040F7
:1047100000F077B990EA010F0CEAD11348BF42F4D8
:104720008072624538BF634507D213F47F0F16D0FD
:1047300080EA010000F00040704710B500F01BF95E
:10474000097EFC3E00F005B880EA010000F0004060
:10475000704780EA010000F0004000F052B912F406
:104760007F0F04BF0248704780EA010000F049B99A
:104770000000C07FC10DD1F19E0206DB4FEA00238D
:1047800043F0004323FA02F07047004207D54FEA96
:104790004001B1F1FE4F02D24FF00000704710B55A
:1047A00000F0E9F849922480002070476FEA200069
:1047B0007047000010F0004148BF4042B0FA80F35B
:1047C00010FA03F2C3F19D030BD051EAC35101EB80
:1047D0001220530638BF704700F1010008BF20F0D7
:1047E00001007047B0FA80F310FA03F2C3F19D03A1
:1047F0000AD0D90501EB1220530638BF704700F1EB
:10480000010008BF20F001007047000050EA010CD1
:1048100000F113801CF5000F58BFBCF5000F01D448
:104820008842704707D710F5000F58BF11F5000FE9
:1048300015D488427047894270471CF5000F04D593
:10484000BCF5000FF7D5814270474FF0807C1CEB20
:10485000400F38BF1CEB410F01D28142704710B5A9
:1048600000F089F8922449004FF000504FF0805139
:10487000FFF7B2BE4FF47F0C1CEAD0121EBF1CEA39
:10488000D11392EA0C0F93EA0C0F00F0478090EAE4
:10489000010F48BF42F480724FF0004C4CEA0020F8
:1048A0004CEA012102EB0302A0FB0113A2F5000276
:1048B000002918BF43F001035B0028BF4FEA330310
:1048C00042EB22425FEA132C4CEBC2502EBFBCEBF2
:1048D000436FB2F57C0F70474FEA036CBCF1004F99
:1048E00008BF20F00100B2F57C0F38BF70470BD530
:1048F00082F0FF0212F5803FC8BF704700F1C04050
:10490000D8BF00F00040704700F5000C5FEA4C0C87
:1049100048BF7047B0F1C04000F073B890EA010F93
:104920000CEAD11348BF42F48072624538BF634538
:1049300004D280EA010000F00040704710B500F09A
:104940001AF800BF8900013E00F007B800F009B86E
:104950005FEA410C5FEA1C6C08D080EA010000F0BD
:1049600050B85FEA400C5FEA1C6CF6D14FF0004093
:10497000A0F5800070470EF1020E2EF0030E5EF8D7
:10498000044B244204D44FEA4102B2F17F4F11D8C4
:104990004FEA4003B3F17F4F0CD80ED14FEAD07CE1
:1049A000B2F17F4F0CEB4C0C0CF1020C08BF4CEB3E
:1049B000D17C04E04FF0080C01E04FEAD17C0CEB15
:1049C0004C0324FA03F404F00704B4F1040C06D2F7
:1049D0000EEB840CBDE810404CF0010C6047DFE8A2
:1049E0000CF0070802024FF00040A0F5800010BD57
:1049F0000846420018BFD2F1807288BF00F0004024
:104A000010BDFF2141EAD050C005704780F0004042
:104A100090EA010F7FF57FAD81F0004100F007B80B
:104A200090EA010F48BF81F000413FF574AD421A92
:104A300004D882F00042A0EB020011444FEAD052A9
:104A40004FF07F4C1CEA410FA2EBD15318BF9CEAF8
:104A5000026F4AD04FF0004C4CEA00204CEA012192
:104A600021FA03FCB0EB0C0C0FD412F0FE0F36D081
:104A70005FEA4C001DD5001240EBC25038BF7047B2
:104A80001CF03F0F18BF70470BE0A2F101025FEA74
:104A90001C2040EBC25038BF70471CF07F0F18BF7E
:104AA0007047C3F12003994014BF401E20F001005D
:104AB000704780084FEA122308BF7047B0FA80FCA5
:104AC000A2EB0C02CCF1280C60FA0CF093EA122F46
:104AD00004BF00EBC25070474FEAC3707047130A1F
:104AE0005FEADC1008BF7047F6E79CEA026F04D06B
:104AF00010EA5C0F08BF0020704710B5FFF73BFFBE
:104B000040DFF63E81F0004070470CF00F03092BA8
:104B100008BF082000F07F800A2B0BD0082B18BF9D
:104B2000704708BF1CF0400F0AD04FF000004FF054
:104B3000000170471CF0400F18BF4FF00040704755
:104B40001CF0100F08D020F0704300F07F4242EAC2
:104B5000D3014FEA4370704700F0604021F07F427C
:104B600042EA000201F07F4040EA727070474FF065
:104B7000FF0C4CF4E06C1CEA11531CBF9CEA030CC4
:104B80009445C2BFDA4201EB02517047002B0DD0B1
:104B9000BCF1000F0FD0002A01F00041A4BF41F08A
:104BA000E04141F07F614FF00000704701F00041AB
:104BB0004FF00000704750EA01334FF09B0C18BFD4
:104BC0004CF0806C7FF480A870474FF0FF0212EA2F
:104BD000D0521CBF92F0FF038B42C2BFD14200EB08
:104BE000C1507047002A0AD0002B0BD0002900F0DA
:104BF0000040A4BF40F0FE4040F40000704700F0C9
:104C00000040704743024FF00B0C18BF4CF0806C13
:104C10007FF4DCAC70471CF4801F11D01CF4E02F33
:104C200003D06FEACC31490070474FF04050EFF3AA
:104C3000008222F0704242EA000282F3008870474C
:104C40004FF000007047000000000000000001026B
:104C50000304060708090000000001020304000025
:104C600004FA97999999D93FAF788E1DC571CC3FB9
:104C70009FC678D0099AC33F935555555555E53F82
:104C8000599322942449D23FDE03CB966446C73F12
:104C900044523EDF12F1C23F00000000000000005D
:104CA000C04C0008000000208C0000006C010008CF
:104CB0004C4D00088C0000200C0A00008801000800
:104CC000000000000024F4000000000000000000CC
:104CD00000000000000000000000000001000000D3
:104CE00010000000000000000000000001010000B2
:104CF000DD23000835230008A5230008FD22000855
:104D0000C52200086D230008A1250008052500081C
:104D10006D250008D12400089D24000839250008CD
:104D20000000000000000000000000000000010082
:104D30000000000000000000000000000000000073
:0C4D4000000000000102030507090C0F31
:0400000508000131BD
:00000001FF
