:020000040800F2
:10000000E80C0020D501000897360008552F00089D
:1000100059360008F1070008853F0008000000007D
:10002000000000000000000000000000C5360008CD
:10003000210800080000000099360008C7360008B3
:10004000EF010008EF010008EF010008EF010008D0
:10005000EF010008EF010008EF010008EF010008C0
:10006000EF010008EF010008EF010008EF010008B0
:10007000EF010008EF010008EF010008EF010008A0
:10008000EF010008EF010008EF010008EF01000890
:10009000EF010008EF010008EF010008EF01000880
:1000A000EF010008D1360008EF010008EF01000859
:1000B000E1360008EF010008EF010008EF01000839
:1000C000EF010008EF010008EF010008EF01000850
:1000D000EF010008893E0008EF010008EF01000869
:1000E000EF010008EF010008EF010008EF01000830
:1000F000EF010008EF010008EF010008EF01000820
:10010000EF010008EF010008EF010008EF0100080F
:10011000EF010008EF010008EF010008EF010008FF
:10012000EF010008EF010008EF010008EF010008EF
:1001300000F002F800F03EF80AA090E8000C8244BB
:100140008344AAF10107DA4501D100F033F8AFF298
:10015000090EBAE80F0013F0010F18BFFB1A43F0A5
:1001600001031847F464000014650000103A24BF2E
:1001700078C878C1FAD8520724BF30C830C144BF0C
:1001800004680C607047000000230024002500264E
:10019000103A28BF78C1FBD8520728BF30C148BFEA
:1001A0000B6070471FB59DE8030000F055F91FBDB7
:1001B00010B510BD00F0E9F91146FFF7F3FF04F0A8
:1001C00067FE00F01BFA03B4FFF7F2FF03BC03F075
:1001D0005EFF00000948804709480047FEE7FEE748
:1001E000FEE7FEE7FEE7FEE7FEE7FEE7FEE7FEE7E7
:1001F00004480549054A064B70470000CF36000801
:1002000031010008E8060020E80C0020E808002082
:10021000E8080020704770B5064600F001F905684F
:1002200006F10B0020F00704B4429CBF002070BD13
:100230002B466A68BAB11068A04210D304F10801D5
:1002400088423CBF5068586007D35168101941601C
:100250001168091B016058601460101D70BD1346C1
:100260005268002AE7D12146284600F0E1F800282C
:10027000DED170BD70B50446051F00F0D1F80068EE
:10028000002C14BF446870BD002C18BFAC423CBFAA
:1002900020466468F8D301680A18AA4218BF45606E
:1002A00003D12A6805461144016028684119A1421A
:1002B0001CBF6C6070BD616869602168084428607B
:1002C00070BD00000FB4044910B503AA029800F0F5
:1002D00005F910BC5DF814FB08000020032A40F269
:1002E000308010F0030C00F0158011F8013BBCF1D8
:1002F000020F624498BF11F801CB00F8013B38BFF0
:1003000011F8013BA2F1040298BF00F801CB38BFFD
:1003100000F8013B11F0030300F02580083AC0F01B
:10032000088051F8043B083A51F804CBA0E80810C3
:10033000F5E7121D5CBF51F8043B40F8043BAFF3F6
:100340000080D20724BF11F8013B11F801CB48BF50
:1003500011F8012B24BF00F8013B00F801CB48BF86
:1003600000F8012B704710B5203AC0F00B80B1E8BF
:100370001850203AA0E81850B1E81850A0E81850DA
:10038000BFF4F5AF5FEA027C24BFB1E81850A0E8E3
:10039000185044BF18C918C0BDE810405FEA827CFD
:1003A00024BF51F8043B40F8043B08BF7047D20714
:1003B00028BF31F8023B48BF11F8012B28BF20F8B5
:1003C000023B48BF00F8012B70474FF0000200B518
:1003D000134694469646203922BFA0E80C50A0E868
:1003E0000C50B1F12001BFF4F7AF090728BFA0E816
:1003F0000C5048BF0CC05DF804EB890028BF40F8E2
:10040000042B08BF704748BF20F8022B11F0804F23
:1004100018BF00F8012B704770477047704770474E
:10042000004870478C06002070477047704770473F
:1004300038B504460A4600206946AFF3008000281C
:1004400008BF38BD02460099204600F061F801203F
:1004500038BD012000F092B8F8B5AFF30080054632
:1004600000200C46102000BF0646A819A0420DD956
:10047000324669460020AFF30080070008BF00F055
:100480007DF80098A04218BF0546C419FFF7C8FFC1
:1004900005600746F01D20F007004619284600F0C9
:1004A0000AF8B44208BFF8BDA21B31463868BDE85F
:1004B000F84000F02DB800210160C0E9011070473C
:1004C0001020704710B500F01FF8006810BD10B57F
:1004D000044600F019F8046010BD0000074B70B529
:1004E0000D467B4400F033F80446284600F042F8FD
:1004F00010B14FF0FF3070BD204670BD5F4400006A
:100500000048704784060020004870478406002099
:10051000034640688C46002818BF88423CBF03460B
:100520004068F8D318681844884207D00CF10300DB
:1005300020F00700001D411A521A0146081D0A60EA
:10054000FFF798BE01694A1C02610878704700B540
:100550008FB0CDE901310021059105497944CDE9FC
:1005600003101146684600F035F80FB000BD0000DA
:10057000E5FFFFFF007B00F08000704710B500F042
:100580004BF8BDE8104000F042B87546FFF7B8FFE1
:10059000AE4605006946534620F00700854618B070
:1005A00020B5FFF725FEBDE820404FF000064FF0D4
:1005B00000074FF000084FF0000B21F00701AC4698
:1005C000ACE8C009ACE8C009ACE8C009ACE8C009B7
:1005D0008D4670472DE9F04106460024D6E90170AA
:1005E000F5688046304603E04146B847641C304613
:1005F000A8470028F8D12046BDE8F08110B5044690
:10060000AFF300802046BDE81040FFF7DCBD0028B6
:1006100001D003F03CBD704710B5012805D0002182
:1006200003A000F021F8012010BD09A1F8E70000A7
:1006300053494752544D454D3A204F7574206F66CB
:100640002068656170206D656D6F72790000000033
:100650003A2048656170206D656D6F727920636F17
:10066000727275707465640070B505460C460A2098
:1006700000E06D1C03F00DFD35B128780028F8D19D
:1006800002E0641C03F005FD14B120780028F8D1C5
:10069000BDE870400A2003F0FCBC70B5044600259C
:1006A0002068806800F00100F0B12068806820F0C8
:1006B00001002168886001F0ADF805460EE001F008
:1006C000A9F8401B022809D9A06A40F01000A062D6
:1006D000E06A40F00100E062012070BD206880689F
:1006E00000F001000028EAD10020F6E770B50546C9
:1006F0006C6AA06A00F05000E0B9A06A40F4007093
:10070000A0622068806800F46020B0F5602F0DD1F1
:10071000207B58B9A06A20F48070A062A06A00F41F
:10072000805018B9A06A40F00100A062204600F095
:10073000B1FB03E0206A016B2846884770BD70B5A5
:1007400005466C6AA06A40F04000A062E06A40F092
:100750000400E062204600F09FFB70BD70B50446C7
:10076000656A284600F097FB70BD000038B5044666
:100770000025002000902068806800F0010080BB08
:100780002068806840F00100216888601648006891
:100790001649B0FBF1F0009002E00098401E009076
:1007A00000980028F9D101F035F8054613E001F072
:1007B00031F8401B02280ED9A06A40F01000A06258
:1007C000E06A40F00100E06200BF002084F82400ED
:1007D00000BF012038BD2068806800F001000028BB
:1007E000E5D00020F6E700000000002040420F00A6
:1007F00000BFFEE730B590F840500124AC40C56B17
:100800006C60046863604468102C04D10468A260C2
:100810000468E16003E00468A1600468E26030BD40
:10082000704700002DE9FE4F064600200090019021
:1008300002908046C5480068401CC449086004F026
:100840008FFDC348007801287ED1C24800788DF81A
:100850000000C0484088ADF80200BE4800798DF81D
:100860000400BC4840798DF80500BA4880798DF8BD
:100870000600B8480089ADF80800B648807A8DF8BF
:100880000A000020B2490870BDF80880ADF80800E1
:100890000C21684602F0E2FEADF80800BDF8080041
:1008A000404501D0BDE8FE8FAB480068AB49086009
:1008B000BDF80200A0F2DC50A94908604FF4FA72BA
:1008C0005142A748006804F02BF9A5490860002EA2
:1008D0006CD0012E7ED1A348A3490860A3490860CB
:1008E0009DF8050030B10120A14908740020A149FC
:1008F000087405E000209E49087401209D49087491
:10090000974800681E2852DD4FF000099848007C87
:100910009749897A884206D09548408AB0F5FA7F8F
:1009200001DD4FF001099348007C9249897A8842A1
:1009300006D09048408AB0F5FA7F01DD4FF00109FA
:10094000B9F1010F16D100E0F1E04FF4FA718848D7
:1009500004F094FB824605F09BFB874908604FF446
:10096000FA71844804F08AFB824605F091FB8349C2
:1009700008601BE07A48006849F6404148434FF45C
:10098000FA7190FBF1F01FFA80FA012078490870A3
:10099000504605F07DFB7A490860012075490870D2
:1009A000504605F075FB7649486200BF2BE06C4865
:1009B000006810F11E0F18DA6948006841426C485F
:1009C00004F05CFB814605F063FB6B4908606448FA
:1009D000006800E016E04142664804F04FFB8146A3
:1009E00005F056FB654908600DE00020604908707D
:1009F00060490870604908606049086060490860A3
:100A0000486200E000BF7B205E4908707D200873CB
:100A10005748C08AC8804D48006841F270718842CA
:100A20000AD90846494908605148008B642190FB67
:100A3000F1F05449088106E0534800684821B0FBB2
:100A4000F1F0504908814A48C079012804D14FF695
:100A5000E1704C49088119E045488078012804D1AB
:100A60004FF6E2704749088110E0414800790128BB
:100A700004D14FF6E3704349088107E03C484078D1
:100A8000012803D14FF6E4703E4908813848408A76
:100A90003E4908803748408A3D4908803B480088E5
:100AA00010B10846008860B93848008820B9384835
:100AB00000883449488013E0344800883149488030
:100AC0000EE03248008832490988884204DD304807
:100AD00000882C49488003E02C4800882949488038
:100AE0002349898A234A928A881800EBD071C1F37E
:100AF0004F01244A91800E2400201146488121464E
:100B0000104602F0ABFD1F49488125462846FFF7F5
:100B100082FB074622461B493846FFF7DFFB21468A
:100B2000384604F09BFC3846FFF7A4FB0BE00A486C
:100B300000680A490968401AC82804D900200C49ED
:100B400008700C49087000BFACE600009C00002053
:100B50001000002048030020D40300209000002053
:100B6000980000200080BB45FC04002044050020C4
:100B700094030020B40300208C050020B005002061
:100B80002C06002074060020200000209400002085
:100B90009600002072B645E000BF23480068006A56
:100BA00041F21111084068B91F480068006A8910B5
:100BB000084038B91C480068006820F001001A4954
:100BC0000968086000BF00BF18480068006A41F269
:100BD0001111084068B915480068006A891008407A
:100BE00038B912480068006820F001000F49096810
:100BF000086000BF012002F0B1F9012002F020FBE3
:100C0000002002F0D1F9002002F040FB02F048FA87
:100C100002F0B2FB6FF00100034909680861034963
:100C200009680861B8E70000E803002030040020EC
:100C3000F8B5044600260020009000BF94F8240078
:100C4000012801D10220F8BD012084F8240000BF52
:100C50002046FFF722FD0646002E62D1A06A20F44E
:100C6000885040F00200A062022000F0B3FE30493C
:100C70000968B1FBF0F04000009002E00098401ECF
:100C8000009000980028F9D12046FFF76FFD2068FA
:100C9000806840F008002168886000F0BBFD0546D0
:100CA00011E000F0B7FD401B0A280CD9A06A20F023
:100CB000020040F01000A06200BF002084F8240071
:100CC00000BF0120BFE72068806800F0080000280E
:100CD000E7D12068806840F004002168886000F057
:100CE00099FD054611E000F095FD401B0A280CD93E
:100CF000A06A20F0020040F01000A06200BF0020B7
:100D000084F8240000BF01209DE72068806800F07F
:100D100004000028E7D1A06A20F0020040F00100A2
:100D2000A06200BF002084F8240000BF30468AE79C
:100D30000000002038B5024600230020009000BFCC
:100D400092F82400012801D1022038BD012082F848
:100D5000240000BF4868072812D21068406B0C7945
:100D6000641E04EB84051F24AC40A0430D796D1E66
:100D700005EB85050C68AC4020431468606327E0F0
:100D800048680D2812D21068006B0C79E41F04EB40
:100D900084051F24AC40A0430D79ED1F05EB8505AC
:100DA0000C68AC4020431468206311E01068C06AEE
:100DB0000C790D3C04EB84051F24AC40A0430D7955
:100DC0000D3D05EB85050C68AC4020431468E062DE
:100DD00008680A2812D31068C0680C780A3C04EB33
:100DE00044050724AC40A0430D780A3D05EB4505BA
:100DF0008C68AC4020431468E0600FE01068006924
:100E00000C7804EB44050724AC40A0430D7805EBB7
:100E100045058C68AC4020431468206108681028A0
:100E200002D00868112827D1174C1068A0421ED1A3
:100E30001068806800F40000F0B91068806840F421
:100E400000001468A0600868102815D10F480068D9
:100E50000F4CB0FBF4F000EB80004000009002E08B
:100E60000098401E009000980028F9D104E0906A94
:100E700040F020009062012300BF002082F824008F
:100E800000BF184661E70000002401400000002078
:100E900040420F0070477047704700002DE9F04155
:100EA0000446002700250026A84614B90120BDE805
:100EB000F081A06810B1207D00B100BFA06A30B9F8
:100EC0000020E06284F82400204600F097F82046D5
:100ED000FFF7E3FB0746A06A00F01000002873D17B
:100EE000002F7ED1A06A20F4885040F00200A0625A
:100EF0003F4AD4E90001904208D1E069B0F5402FA3
:100F000002D14FF4002002E0E06900E0E069014313
:100F1000207B41EA40000643A068B0F5807F02D004
:100F2000A068012802D14FF4807000E00020054342
:100F3000207D012811D1207B38B9A069401E4FF4D3
:100F4000006141EA4030054307E0A06A40F020001C
:100F5000A062E06A40F00100E0622068406820F48E
:100F6000694028432168486020688068214908401A
:100F7000304321688860A068B0F5807F02D0A06807
:100F8000012802D14FF4807000E00020B0F5807F8E
:100F900003D1208A401E4FEA00582068C06A20F41E
:100FA000700040EA08002168C86220688068124921
:100FB0000840B04209D10020E062A06A20F002009F
:100FC00040F00100A06211E00BE0A06A20F00200F6
:100FD00040F01000A062E06A40F00100E0620127EA
:100FE00004E0A06A40F01000A062012738465EE7E6
:100FF000003C0140FDF7E1FFFE0E1FFF70470000BF
:101000002DE9F04104460D46164600275749206851
:10101000884203D056492068884205D15348001DB4
:10102000006800F4702000E0002000287ED100BF9E
:1010300094F82400012802D10220BDE8F0810120AB
:1010400084F8240000BF2046FFF790FB0746002FDE
:101050006DD1A06A40F60161884340F48070A062BF
:1010600043492068884209D14048001D006800F4C7
:10107000702008B9012002E0002000E0012078B1D2
:10108000A06A20F48010A0622068406800F48060AC
:1010900000B3A06A20F4005040F48050A06219E030
:1010A000A06A40F48010A06230492068884203D0D2
:1010B0002F492068884205D12C48001D006800F4A3
:1010C000806000E0002028B1A06A20F4005040F4C5
:1010D0008050A062A06A00F4805020B1E06A20F045
:1010E0000600E06201E00020E06200BF002084F81A
:1010F000240000BF1F48216A88621F48216AC86215
:101100001E48216A08636FF00200216808602068A9
:10111000806840F4807021688860226802F14C0188
:1011200033462A46206A00F07EF901E01AE014E016
:101130002068806800F46020B0F5602F06D1206838
:10114000806840F4A000216888600CE02068806816
:1011500040F480102168886005E000BF002084F81A
:10116000240000E00127384667E700000024014022
:1011700000280140ED0600085D0700083F07000851
:1011800070B50446002594F82100022803D00420FD
:10119000A0630125C1E02068006820F00E002168EE
:1011A00008602068006820F00100216808605C4940
:1011B0002068884252D95A4978392068884201D13A
:1011C000012047E0564964392068884201D1102047
:1011D00040E0534950392068884201D1801539E0F8
:1011E0004F493C392068884201D1801432E04C4993
:1011F00028392068884202D14FF480302AE04849DB
:1012000014392068884202D14FF4801022E044490A
:101210002068884201D140041CE04249206888428D
:1012200001D1012016E03F4914312068884201D1E4
:1012300010200FE03B4928312068884201D18015F9
:1012400008E038493C312068884201D1801401E02F
:101250004FF480303349091F086051E03049783934
:101260002068884201D1012047E02D496439206877
:10127000884201D1102040E0294950392068884235
:1012800001D1801539E026493C392068884201D1D6
:10129000801432E0224928392068884202D14FF474
:1012A00080302AE01E4914392068884202D14FF468
:1012B000801022E01A492068884201D140041CE0D5
:1012C00018492068884201D1012016E015491431DF
:1012D0002068884201D110200FE01249283120688F
:1012E000884201D1801508E00E493C3120688842CF
:1012F00001D1801401E04FF4803009498039486001
:10130000012084F8210000BF002084F8200000BFE5
:10131000606B10B12046616B8847284670BD0000A5
:1013200080000240080402400146002209B9012061
:1013300070471E4B086898420BD21D4B0868C01AB4
:101340001423B0FBF3F08000086419480838C86320
:101350000AE0164B0868C01A1423B0FBF3F08000B3
:10136000086412480838C863022081F82100086820
:10137000026843F6F0708243D1E901031843CB6859
:1013800018430B6918434B6918438B691843CB69A1
:10139000184302430868026000208863012081F836
:1013A0002100002081F8200000BFC1E708040240AE
:1013B000080002402DE9F04104460D4616461F463E
:1013C0004FF0000800BF94F82000012802D102204D
:1013D000BDE8F081012084F8200000BF94F82100CE
:1013E000012817D1022084F821000020A063206882
:1013F000006820F00100216808603B46324629461B
:101400002046FFF7F7F92068006840F001002168E6
:10141000086006E000BF002084F8200000BF4FF005
:1014200002084046D4E72DE9F04104460D46164631
:101430001F464FF0000800BF94F82000012802D199
:101440000220BDE8F081012084F8200000BF94F85C
:10145000210001282CD1022084F821000020A06363
:101460002068006820F00100216808603B46324691
:1014700029462046FFF7BEF9E06A30B120680068CF
:1014800040F00E00216808600BE02068006820F042
:101490000400216808602068006840F00A002168A4
:1014A00008602068006840F001002168086006E0DC
:1014B00000BF002084F8200000BF4FF00208404623
:1014C000BFE700002DE9F847024600239C467BE178
:1014D0004FF0010808FA03F4D1F8008008EA04008C
:1014E000A0427DD1DFF8F4A2D1F80480A8EB0A096C
:1014F000D0453AD014DCB8F1030F50D009DCB8F174
:10150000000F31D0B8F1010F1CD0B8F1020F49D152
:1015100020E0B8F1110F18D0B8F1120F42D11EE03F
:10152000B9F5881F25D006DCB9F5803F20D0B9F584
:10153000801F37D11AE0B9F5001F18D0B9F5041F84
:1015400030D117E0D1F80CC02DE0D1F80C8008F1B3
:10155000040C28E0D1F80C8008F1080C23E0D1F845
:101560000C8008F10C0C1EE000BF00BF00BF00BFE4
:1015700000BF00BFD1F80880B8F1000F02D14FF0D2
:10158000040C0BE0D1F80880B8F1010F03D14FF043
:10159000080C146102E04FF0080C546103E04FF0B6
:1015A000000C00E000BF00BFFF2801D8904601E01A
:1015B00002F104084646FF2802D84FEA830803E0F8
:1015C000A3F108084FEA88084746D6F800804FF094
:1015D0000F0909FA07F928EA09080CFA07F900E0E7
:1015E0007AE048EA0908C6F80080D1F8048008F0DB
:1015F0008058B8F1805F6FD100BFDFF8E481D8F880
:10160000188048F00108DFF8D891C9F81880C8465A
:10161000D8F8188008F00108CDF8008000BF00BF9E
:101620004FEAB9384FEA930958F829504FEA8378BE
:101630004FEA18794FF00F0808FA09F825EA08056B
:10164000DFF8A081424502D14FF0000824E0DFF826
:101650009881424502D14FF001081DE0DFF88C81EE
:10166000424502D14FF0020816E0DFF8848142457E
:1016700002D14FF003080FE0DFF87881424502D134
:101680004FF0040808E0DFF87081424502D14FF0C6
:10169000050801E04FF006084FEA83794FEA19790F
:1016A00008FA09F848EA0505DFF850814FEA93097E
:1016B00048F82950D1F8048008F48038B8F5803F04
:1016C0000BD1DFF83C81D8F8008048EA0008DFF849
:1016D0003091C9F800800AE075E0DFF82481D8F87D
:1016E000008028EA0008DFF81891C9F80080D1F8D6
:1016F000048008F40038B8F5003F0ED1DFF800810F
:1017000008F10408D8F8008048EA0008DFF8F090F3
:1017100009F10409C9F800800DE0DFF8E48008F160
:101720000408D8F8008028EA0008DFF8D49009F10E
:101730000409C9F80080D1F8048008F48018B8F5CD
:10174000801F0ED1DFF8B88008F10808D8F80080B3
:1017500048EA0008DFF8A89009F10809C9F80080F4
:101760000DE0DFF89C8008F10808D8F8008028EA2E
:101770000008DFF88C9009F10809C9F80080D1F859
:10178000048008F40018B8F5001F0ED1DFF870804F
:1017900008F10C08D8F8008048EA0008DFF86090EB
:1017A00009F10C09C9F800800DE0DFF8548008F158
:1017B0000C08D8F8008028EA0008DFF8449009F106
:1017C0000C09C9F800805B1CD1F8008028FA03F8E6
:1017D000B8F1000F7FF47CAEBDE8F887000011106F
:1017E0000010024000080140000C014000100140C0
:1017F0000014014000180140001C01400800014095
:1018000000040140024693680B400BB1012000E048
:101810000020704701480068704700001400002055
:1018200070B504460CB9012070BD4CF6CC4021685F
:10183000086045F2555021680860D4E900104860FE
:101840002168A0688860FFF7E5FF054606E0FFF71E
:10185000E1FF401B262801D90320E5E72068C06886
:101860000028F4D14AF6AA20216808600020DBE7AE
:1018700001464AF6AA200A6810600020704700005E
:101880000348006803490978084401490860704723
:10189000140000201C00002010B50848006840F02B
:1018A000100006490860032000F080F80F2000F0C7
:1018B00007F800F02BF8002010BD000000200240C7
:1018C00070B504460E4800784FF47A71B1FBF0F021
:1018D0000C490968B1FBF0F5284600F029FD08B174
:1018E000012070BD102C07D200222146501E00F0AE
:1018F0001EF80548046001E00120F2E70020F0E74F
:101900001C00002000000020180000207047014645
:101910000846002809DB00F01F0301229A40430912
:101920009B0003F1E023C3F8002100BF70472DE9BD
:10193000F05F80460D461646002702F025FB07465D
:1019400039462A46334601F00700C0F1070ABAF1CA
:10195000040F02D94FF0040A01E0C0F1070AD14692
:1019600000F1040ABAF1070F02D24FF0000A01E0B9
:10197000A0F1030AD4464FF0010A0AFA09FAAAF1C3
:10198000010A0AEA020A0AFA0CFA4FF0010B0BFAF2
:101990000CFBABF1010B0BEA030B4AEA0B042146EB
:1019A000404602F0F9FABDE8F09F000000BF00F0E9
:1019B0000702064B19684FF6FF031940044B0B430F
:1019C00043EA0221014B196000BF70470CED00E0B3
:1019D0000000FA052DE9F04385B0064642A30FCB7F
:1019E00001AC0FC444A0006800904FF0000800252F
:1019F00000270024A146042E36D004DC012E3BD063
:101A0000022E6BD15FE0082E32D0102E66D13B48FB
:101A10004468006800F0807000B301A8C4F38341FB
:101A2000475C04F4803070B134484068C0F34040F3
:101A30001DF8008004F4803040B13148B0FBF8F06C
:101A400000FB07F502E02F4807FB00F52B48406834
:101A500000F48000B0F5800F01D1A94603E06800D2
:101A60000321B0FBF1F93AE000F0D2F9814636E00B
:101A700000F0CEF9814632E02048046A04F4407058
:101A8000B0F5807F05D104F0020010B14FF4004999
:101A900018E004F44070B0F5007F07D11748406AA1
:101AA00000F0020010B149F640490BE004F4407028
:101AB000B0F5407F06D11148006800F4003008B14D
:101AC0004FF224490BE000F093F90C494968C1F347
:101AD0008131491C4900B0FBF1F900E000BF00BFB3
:101AE000484605B0BDE8F08302030405060708096F
:101AF0000A0B0C0D0E0F1010010200000010024026
:101B000000127A0000093D00F8B5044600260025C1
:101B1000207800F0010000286BD000274348C069FE
:101B200000F0805070B900BF4048C06940F080505C
:101B30003E49C8610846C06900F08050009000BF6F
:101B400000BF01273A48006800F48070B0B93848F7
:101B5000006840F4807036490860FFF75BFE064677
:101B600006E0FFF757FE801B642801D90320F8BD6B
:101B70002F48006800F480700028F2D02B48006ADB
:101B800000F440752DB3A08800F44070A84220D026
:101B90002648006A20F4407501202649086000208C
:101BA00008602248056205F0010090B1FFF732FE9F
:101BB000064608E0FFF72EFE801B41F2883188427E
:101BC00001D90320D3E71948006A00F00200002879
:101BD000F0D01648006A20F4407061680843134949
:101BE0000862012F04D10846C06920F08050C86106
:101BF00000BF207800F00200022807D10B4840689F
:101C000020F44040A168084308494860207800F06B
:101C10001000102807D10548406820F48000616951
:101C20000843024948600020A1E70000001002407C
:101C3000007000404004424270B504460D460CB9A5
:101C4000012070BD5A48006800F00700A8420ED27B
:101C50005748006820F007002843554908600846A7
:101C6000006800F00700A84201D00120E9E72078D1
:101C700000F0020002281DD1207800F004000428A2
:101C800005D14C48406840F4E0604A4948602078FB
:101C900000F00800082805D14648406840F460502C
:101CA000444948604348406820F0F000A168084378
:101CB00040494860207800F0010078B3606801284E
:101CC00006D13C48006800F4003090B90120B8E724
:101CD0006068022806D13748006800F0007040B9FB
:101CE0000120AEE73348006800F0020008B9012087
:101CF000A7E73048406820F00300616808432D4999
:101D00004860FFF787FD064609E0FFF783FD801B6B
:101D100041F28831884202D9032092E707E0254842
:101D2000406800F00C006168B0EB810FEDD12048F5
:101D3000006800F00700A8420ED91D48006820F096
:101D4000070028431A4908600846006800F00700A9
:101D5000A84201D0012074E7207800F00400042894
:101D600007D11448406820F4E060E1680843114955
:101D70004860207800F00800082808D10D48406825
:101D800020F46050216940EAC1000A49486000F02F
:101D90003FF808494968C1F30311074A515CC8403C
:101DA0000649086006480068FFF78AFD002048E7FA
:101DB00000200240001002400A65000800000020D8
:101DC0001800002001480068704700000000002053
:101DD00000B5FFF7F7FF04494968C1F30221034A40
:101DE000515CC84000BD0000001002401A650008A8
:101DF00000B5FFF7E7FF04494968C1F3C221034A70
:101E0000515CC84000BD0000001002401A65000887
:101E1000F0B585B00FF26C0C9CE8E01001A8A0E8CA
:101E2000E0101CA52D68009500210022002300244D
:101E30000020194D696801F00C05F5B1042D02D0A0
:101E4000082D19D101E0154819E001ADC1F3834611
:101E5000AC5D01F4803555B10F4D6D68C5F340455B
:101E60001DF805200D4D6543B5FBF2F302E00C4D66
:101E700004FB05F3184602E000BF084800BF00BF9E
:101E800005B0F0BD02030405060708090A0B0C0D96
:101E90000E0F1010010200000010024000127A0024
:101EA00000093D00F8B504460CB90120F8BD2078C2
:101EB00000F00100002878D0F848406800F00C00DD
:101EC00004280CD0F548406800F00C00082811D117
:101ED000F248406800F48030B0F5803F0AD1EF4806
:101EE000006800F4003000285FD0606800285CD1F2
:101EF0000120DBE700BF6068B0F5803F06D1E7480E
:101F0000006840F48030E549086028E0606858B90E
:101F1000E248006820F48030E04908600846006824
:101F200020F4802008601AE06068B0F5A02F0BD183
:101F3000DA48006840F48020D84908600846006804
:101F400040F4803008600AE0D448006820F4803013
:101F5000D24908600846006820F48020086000BF6D
:101F6000606888B1FFF756FC054606E0FFF752FCB3
:101F7000401B642801D9032098E7C848006800F492
:101F800000300028F2D010E0FFF744FC054606E0E0
:101F9000FFF740FC401B642801D9032086E7BF48B7
:101FA000006800F400300028F2D1207800F0020030
:101FB000022857D1B948406800F00C0050B1B7482A
:101FC000406800F00C00082818D1B448406800F4BC
:101FD000803098B9B148006800F0020020B1206953
:101FE000012801D0012061E7AC48006820F0F8002A
:101FF000616940EAC100A949086033E02069E8B19D
:102000000120A7490860FFF705FC054606E0FFF739
:1020100001FC401B022801D9032047E79F480068C4
:1020200000F002000028F2D09C48006820F0F80080
:10203000616940EAC1009949086013E000209849AD
:102040000860FFF7E7FB054606E0FFF7E3FB401BF0
:10205000022801D9032029E79048006800F0020017
:102060000028F2D1207800F0080008282DD1A069BE
:10207000B8B101208B490860FFF7CCFB054606E0AC
:10208000FFF7C8FB401B022801D903200EE7834855
:10209000406A00F002000028F2D0012001F0FEFAB0
:1020A00013E000207F490860FFF7B4FB054606E017
:1020B000FFF7B0FB401B022801D90320F6E6774862
:1020C000406A00F002000028F2D1207800F00400FD
:1020D000042873D100277148C06900F0805070B99E
:1020E00000BF6E48C06940F080506C49C861084626
:1020F000C06900F08050009000BF00BF01276A480F
:10210000006800F48070B0B96748006840F48070DF
:1021100065490860FFF77EFB054606E0FFF77AFB9E
:10212000401B642801D90320C0E65F48006800F422
:1021300080700028F2D000BFE068012806D157481F
:10214000006A40F001005549086227E0E06858B98C
:102150005248006A20F00100504908620846006AAF
:1021600020F00400086219E0E06805280BD14B4814
:10217000006A40F00400494908620846006A40F0DD
:10218000010008620AE04548006A20F00100434966
:1021900008620846006A20F00400086200BFE06898
:1021A000A0B1FFF737FB054609E0FFF733FB401B03
:1021B00041F28831884202D9032077E622E037488D
:1021C000006A00F002000028EFD012E0FFF722FBC7
:1021D000054608E0FFF71EFB401B41F288318842AC
:1021E00001D9032062E62D48006A00F002000028B1
:1021F000F0D1012F05D12948C06920F0805027492E
:10220000C86100BFE069C8B32448406800F00C0012
:10221000082860D0E069022848D1002020490866DB
:10222000FFF7F8FA054606E0FFF7F4FA401B02282C
:1022300001D903203AE61948006800F00070002830
:10224000F2D1206AB0F5803F07D11448406820F4ED
:102250000030A168084311494860D4E908010843E7
:102260000E49496821F4741108430C494860012063
:102270000B490866FFF7CEFA054607E03DE0FFF799
:10228000C9FA401B022801D903200FE60348006861
:1022900000F000700028F2D02FE000000010024093
:1022A0000000424280044242007000400020144975
:1022B0000866FFF7AFFA054606E0FFF7ABFA401BEA
:1022C000022801D90320F1E50E48006800F00070F3
:1022D0000028F2D111E0E069012800D1E6E50948C3
:1022E000466806F48031206A814204D106F47011F8
:1022F000606A814201D00120D8E50020D6E50000C7
:102300000000424200100240042808D14FF0E021B2
:10231000096941F004014FF0E022116107E04FF03C
:10232000E021096921F004014FF0E02211617047BA
:1023300070B504462546681EB0F1807F01D30120A8
:102340000FE0681E4FF0E02148610F214FF0FF3091
:1023500001F022FE00204FF0E02188610720086193
:10236000002070BD7047704710B50346002200BFC3
:1023700093F83C00012801D1022010BD012083F810
:102380003C0000BF22F0FF00CC6840EA040222F4C7
:1023900040708C6840EA040222F480604C6840EA95
:1023A000040222F400600C6840EA040222F4805027
:1023B0000C6940EA040222F400504C6940EA04022D
:1023C00022F48040CC6940EA04021868426400BFED
:1023D000002083F83C0000BF00BFCEE770B5044684
:1023E0000D4615B994F842000BE0042D02D14320AC
:1023F000005D06E0082D02D14420005D01E045208B
:10240000005D012801D0012070BD1DB9022084F8B3
:1024100042000EE0042D03D102214320015508E0C3
:10242000082D03D102214420015502E0022145205C
:10243000015504222946206801F07FFA2068406C8B
:1024400040F400402168486416492068884213D04F
:102450001549206888420FD02068B0F1804F0BD01A
:1024600012492068884207D011492068884203D069
:102470001049206888420CD12068806800F0070667
:10248000062E0CD02068006840F00100216808602A
:1024900005E02068006840F0010021680860002025
:1024A000B2E70000002C014000340140000400406D
:1024B00000080040000C004010B504460CB9012093
:1024C00010BD94F83D0028B9002084F83C00204657
:1024D00000F025F8022084F83D00211D206801F05D
:1024E000CDF9012084F8460000BF84F83E000121A8
:1024F0003F200155402001554120015500BF00BF3C
:10250000012084F842004320015544200155452014
:10251000015500BF012084F83D000020D0E770473E
:10252000014691F83D00012801D0012070470220AA
:1025300081F83D00164B0868984213D0154B086887
:1025400098420FD00868B0F1804F0BD0124B08684A
:10255000984207D0114B0868984203D0104B086886
:1025600098420CD10868806800F00702062A0CD057
:102570000868006840F001000B68186005E0086812
:10258000006840F001000B6818600020CEE70000F2
:10259000002C0140003401400004004000080040CD
:1025A000000C0040014691F83D00012801D00120B7
:1025B0007047022081F83D000868C06840F00100C3
:1025C0000B68D860164B0868984213D0154B086802
:1025D00098420FD00868B0F1804F0BD0124B0868BA
:1025E000984207D0114B0868984203D0104B0868F6
:1025F00098420CD10868806800F00702062A0CD0C7
:102600000868006840F001000B68186005E0086881
:10261000006840F001000B6818600020C8E7000067
:10262000002C01400034014000040040000800403C
:10263000000C0040704710B5044620680069C0F3E4
:102640004000D8B12068C068C0F34000B0B16FF05E
:10265000020021680861012020772068806900F06D
:10266000030018B12046FFF7E5FF05E0204600F023
:10267000ADF8204600F05DF9002020772068006961
:10268000C0F38000D8B12068C068C0F38000B0B14A
:102690006FF00400216808610220207720688069BB
:1026A00000F4407018B12046FFF7C4FF05E0204653
:1026B00000F08CF8204600F03CF9002020772068DC
:1026C0000069C0F3C000D8B12068C068C0F3C00082
:1026D000B0B16FF0080021680861042020772068FD
:1026E000C06900F0030018B12046FFF7A3FF05E022
:1026F000204600F06BF8204600F01BF90020207700
:1027000020680069C0F30010D8B12068C068C0F329
:102710000010B0B16FF01000216808610820207728
:102720002068C06900F4407018B12046FFF782FFAE
:1027300005E0204600F04AF8204600F0FAF80020B4
:1027400020772068006900F0010058B12068C06857
:1027500000F0010030B16FF00100216808612046EF
:1027600000F062F920680069C0F3C01058B1206819
:10277000C068C0F3C01030B16FF0800021680861FC
:102780002046FFF7EFFD20680069C0F3801058B1C4
:102790002068C068C0F3801030B16FF0400021683D
:1027A0000861204600F022FA20680069C0F340105A
:1027B00058B12068C068C0F3401030B16FF02000FD
:1027C000216808612046FFF7CEFD10BD704770B547
:1027D00004460D46164600BF94F83C00012801D17E
:1027E000022070BD012084F83C0000BF36B1042EE9
:1027F0001BD0082E31D00C2E5ED145E02946206832
:1028000001F0ACF82068806940F008002168886118
:102810002068806920F00400216888612068806950
:10282000296908432168886147E02946206801F04A
:10283000CDF82068806940F40060216888612068D4
:10284000806920F480602168886120688069296936
:1028500040EA0120216888612FE02946206801F0C4
:10286000F3F82068C06940F008002168C86120685A
:10287000C06920F004002168C8612068C069296926
:1028800008432168C86118E02946206801F018F95A
:102890002068C06940F400602168C8612068C06990
:1028A00020F480602168C8612068C069296940EA15
:1028B00001202168C86100E000BF00BF00BF002008
:1028C00084F83C0000BF00BF8BE710B504460CB98C
:1028D000012010BD94F83D0028B9002084F83C0088
:1028E000204600F025F8022084F83D00211D2068D4
:1028F00000F0C4FF012084F8460000BF84F83E00C9
:1029000001213F200155402001554120015500BFC4
:1029100000BF012084F842004320015544200155A6
:102920004520015500BF012084F83D000020D0E77C
:102930007047704770B504460D4615B994F83E00CF
:102940000BE0042D02D13F20005D06E0082D02D1EE
:102950004020005D01E04120005D012801D0012000
:1029600070BD1DB9022084F83E000EE0042D03D195
:1029700002213F20015508E0082D03D1022140200B
:10298000015502E00221412001550122294620681B
:1029900000F0C2FF1F492068884203D01E4920680A
:1029A000884201D1012000E0002028B12068406C5D
:1029B00040F400402168486416492068884213D0DA
:1029C0001549206888420FD02068B0F1804F0BD0A5
:1029D00012492068884207D011492068884203D0F4
:1029E0001049206888420CD12068806800F00706F2
:1029F000062E0CD02068006840F0010021680860B5
:102A000005E02068006840F00100216808600020AF
:102A1000A6E70000002C0140003401400004004003
:102A200000080040000C004010B5044662492068D0
:102A300088425BD161480078401C604908700846B4
:102A400000780E2816DB002008705D480068401CE6
:102A50005B49086008464068401C4860084680683A
:102A6000401C88600846C068401CC8600846006971
:102A7000401C08615348006840F4800051490860D8
:102A8000012001F0B7FF50490872022001F0B2FFA7
:102A90004E4908724E494C4801F062FF4D494B487F
:102AA00001F05EFF48480078022803D047480078CC
:102AB00002281CD148480078012813D0012046493B
:102AC0000870002000F04AFA002000F0B9FB012055
:102AD00000F06AFA012000F0D9FB00203A4988771B
:102AE0003A49887700F08AFA00F0F6FB63E03A484A
:102AF000007870B1002038490870012000F02EFAEB
:102B0000012000F09DFB002000F04EFA002000F0B4
:102B1000BDFB2D48007818B12B48C079012802D19F
:102B200000F0BEFA1EE02848007801281AD1264895
:102B3000007A002816DD2448007A072812DA224895
:102B4000007C012807D12049097A491E234A52F8FE
:102B50002100804706E01C49097A491E204A52F8A4
:102B6000210080471948007818B11848C079012819
:102B700002D100F001FC1EE01448007801281AD1AF
:102B80001248007A002816DD1048007A072812DA69
:102B90000E48007C012807D10C49097A491E114AC8
:102BA00052F82100804706E00849097A491E0E4A7A
:102BB00052F82100804710BD002C01408900002000
:102BC000D40300200824014094030020B403002013
:102BD0008A0000208B000020880000204000002098
:102BE0002800002070000020580000207047704727
:102BF0002DE9F0470446206805682068C66820680B
:102C000047694FF00008C14605F00F08B8F1000F02
:102C10000AD105F0200038B106F0200020B120468E
:102C200000F0FEFFBDE8F087B8F1000F71D007F0AB
:102C3000010018B906F4907000286AD005F0010070
:102C400030B106F4807018B1E06B40F00100E06331
:102C500005F0040030B107F0010018B1E06B40F05E
:102C60000200E06305F0020030B107F0010018B186
:102C7000E06B40F00400E06305F0080048B106F0A6
:102C8000200010B907F0010018B1E06B40F0080017
:102C9000E063E06B68B305F0200028B106F0200087
:102CA00010B1204600F0BCFF20684069C0F38019D5
:102CB000E06B00F0080010B9B9F1000F22D02046F7
:102CC00000F084FF2068406900F04000B0B1206847
:102CD000406920F0400021684861606B50B118489D
:102CE000616B4863606BFEF74BFA10B1606B416B30
:102CF00088470CE02046FFF77AFF08E02046FFF700
:102D000076FF04E02046FFF772FF0020E06389E7CA
:102D1000FFE705F0800030B106F0800018B12046D2
:102D200001F04CF87EE705F0400030B106F04000BD
:102D300018B1204600F05AFF74E700BF72E70000A8
:102D4000153B000810B504460CB9012010BDA06960
:102D500000B100E000BF94F8390028B9002084F8E1
:102D60003800204600F027F8242084F83900206835
:102D7000C06820F400502168C860204600F0A0FF21
:102D80002068006920F4904021680861206840694B
:102D900020F02A00216848612068C06840F4005093
:102DA0002168C8600020E063202084F8390084F89E
:102DB0003A000020CAE7704777B581B0044615464F
:102DC00094F83A00202850D1029800B115B901209A
:102DD00004B070BD00BF94F83800012801D1022072
:102DE000F6E7012084F8380000BF0298A062A585AC
:102DF0000020E063222084F83A001D48616B88625D
:102E00001C48616BC8621C48616B08630020616BE1
:102E1000486302AE32682368191D2B46606BFEF7CB
:102E200002FB00BF0020009020680068009020682E
:102E30004068009000BF00BF00BF002084F8380049
:102E400000BF2068C06840F480702168C8602068B6
:102E5000406940F00100216848612068406940F005
:102E60004000216848610020B2E70220B0E700007E
:102E7000793B0008BF3B0008293B000870477047BA
:102E80002DE9F84F04460E46174699464FF0000AC2
:102E900094F8390020285AD106B117B90120BDE8AD
:102EA000F88F00BF94F83800012801D10220F6E71E
:102EB000012084F8380000BF0020E063212084F85E
:102EC0003900FEF7A7FC8246A784E784A068B0F526
:102ED000805F04D1206910B90025B04602E0354674
:102EE0004FF0000800BF002084F8380000BF1BE04E
:102EF0005346002280212046CDF8009000F08EFF3E
:102F000008B10320CBE745B9B8F80000C0F30800CA
:102F10002168486008F1020803E0287821684860C9
:102F20006D1CE08C401EE084E08C0028E0D153460C
:102F3000002240212046CDF8009000F06FFF08B13C
:102F40000320ACE7202084F839000020A7E7022006
:102F5000A5E7704701E0FDF71DFEFCE780B11149D0
:102F6000096841F000610F4A11601146096841F09B
:102F7000004111601146496841F0080151600FE0BD
:102F80000849096821F00061064A11601146096884
:102F900021F0004111601146496821F0080151609B
:102FA000704700000010014088B11249096841F0E3
:102FB0000041104A11601049096841F008010E4AA9
:102FC00011601146096841F08001116010E0094963
:102FD000096821F00041074A11600749096821F09A
:102FE0000801054A11601146096821F0800111604D
:102FF0007047000000080140000C014000B54FF48C
:1030000080002249086140000861400008612048B2
:10301000807F012815D11E48808B40F2B63188424E
:1030200006DC0120FFF7C0FF00201949887700BDAA
:1030300080201849086001201749086002200860B4
:1030400021E01348808B40F2E731884206DB002004
:10305000FFF7AAFF01200E498877E8E70C48808B2C
:10306000C0F57A700D49096848630948808BC0F53E
:103070007A700A49096888630548808BC0F57A70C0
:1030800006490968C86300BFD1E70000001001408D
:103090009403002010080140100C0140E8030020B8
:1030A0000020094909684863074909688863064997
:1030B0000968C8634FF4000004490860C01104495E
:1030C0000860400008607047E803002010080140D5
:1030D000100C01400A48408B0A49096848630020E7
:1030E00008490968886307490968C8634FF4000004
:1030F00005490860012005490860400408607047E0
:1031000094030020E803002010080140100C014047
:103110000A48408B0A490968486300200849096841
:10312000886307490968C8634FF4000005490860CF
:10313000C011054908600220086070479403002010
:10314000E803002010080140100C014000200A494B
:10315000096848630948408B07490968886300206B
:1031600005490968C863802005490860400205498F
:103170000860400008607047E803002094030020C6
:1031800010080140100C014000200B4909684863F9
:103190000A48408B08490968886300200649096885
:1031A000C8634FF4000006490860C0110549086073
:1031B0000220086070470000E8030020940300200C
:1031C00010080140100C014000200A4909684863BA
:1031D0000849096888630848408B06490968C8633C
:1031E00080200649086040020549086040000860E8
:1031F00070470000E80300209403002010080140FD
:10320000100C014000200A49096848630849096810
:1032100088630848408B06490968C8634FF400007A
:1032200005490860012005490860400408607047AE
:10323000E80300209403002010080140100C014016
:1032400080B11149096841F008010F4A1160114627
:10325000096841F0800111601146096841F400617C
:1032600011600FE00849096821F00801064A116061
:103270001146096821F0800111601146096821F4A6
:1032800000611160704700000408014080B11149DD
:10329000096841F400010F4A11601146096841F0C4
:1032A000006111601146096841F0004111600FE0B2
:1032B0000849096821F40001064A116011460968AD
:1032C00021F0006111601146096821F00041116090
:1032D00070470000040C014000B54FF08070224997
:1032E000086040000860400008602048807F012896
:1032F00015D11E48808B40F2B631884206DC012091
:10330000FFF7C4FF00201949887700BD4FF4005033
:1033100017490860400008604000086021E0134839
:10332000808B40F2E731884206DB0020FFF7AEFFDA
:1033300001200E498877E8E70C48808BC0F57A7049
:103340000C49096848630948808BC0F57A700949BF
:10335000096888630548808BC0F57A70054909685B
:10336000C86300BFD1E7000010080140B40300208B
:10337000100C01403004002000200949096848630E
:1033800007490968886306490968C8634FF0005017
:103390000449086040000860400008607047000071
:1033A00030040020100C01400A48408B0A4909688B
:1033B0004863002008490968886307490968C863A9
:1033C0004FF0005005490860C013086040040860D1
:1033D00070470000B403002030040020100C0140AE
:1033E0000A48408B0A49096848630020084909686F
:1033F000886307490968C8634FF0005005490860B1
:1034000040000860C013086070470000B40300204B
:1034100030040020100C014000200A49096848636C
:103420000948408B074909688863002005490968F5
:10343000C8634FF40050054908604004086040002C
:103440000860704730040020B4030020100C0140D5
:1034500000200A49096848630948408B0749096800
:103460008863002005490968C8634FF0005005498A
:10347000086040000860C0130860704730040020F6
:10348000B4030020100C014000200A490968486379
:103490000849096888630848408B06490968C86379
:1034A0004FF400500549086040040860400008607F
:1034B0007047000030040020B4030020100C0140CD
:1034C00000200A4909684863084909688863084870
:1034D000408B06490968C8634FF0005005490860F1
:1034E000C0130860400408607047000030040020EA
:1034F000B4030020100C014000B585B000BF4E4859
:10350000806940F008004C4988610846806900F0F5
:103510000800009000BF00BF00BF0846806940F46B
:10352000804088610846806900F48040009000BFB8
:1035300000BF00BF0846806940F00100886108466E
:10354000806900F00100009000BF00BF00BF084686
:10355000406940F0010048610846406900F0010000
:10356000009000BF00BF00BF3449486840F0E060F1
:1035700040F00400486000BF0020019002900390DA
:10358000049040200190022002900120039003202B
:10359000049001A92A48FDF795FF802001900020A2
:1035A0000290012003900320049001A92448FDF714
:1035B00089FF2448244908604FF4E1304860002125
:1035C00021488160C16001610C214161002181615C
:1035D000C161FFF7B7FB1D481D4908600020486026
:1035E00000211B4881608021C1600021016141618F
:1035F00081614FF48051C161FDF796FE00BF144810
:103600001149486308461249486200BF0068C06813
:1036100040F010000C490968C860002201212520F3
:10362000FEF785F92520FEF772F9C82209490648F8
:10363000FFF7C2FB05B000BD0010024000000140D2
:10364000000C0140003801405403002058000240A3
:1036500004030020AC00002000BFFEE730B50246A6
:103660000B464FF6FF700021002400BF10E0555CB0
:103670006840002409E000F0010525B140104AF23D
:103680000105684000E04010641C082CF3DB491C75
:103690009942ECDB30BD70477047000008B508491F
:1036A0000968C9084FF47A72B1FBF2F14143009105
:1036B00000BF00BF00994A1E00920029F9D108BD41
:1036C00000000020704710B5FEF7DAF810BD704713
:1036D00010B50248FEF7AFFF10BD00003004002017
:1036E00010B559480068006900F0010000287BD03F
:1036F0006FF0010054490968086154484079012875
:1037000007D052488078012803D05048007901281A
:103710002BD164204E4908704E4A11684E4A1068F9
:1037200002F0CAFD03D24B4800684B4908604A4981
:1037300008684A4902F0FCFD47490860434840795F
:10374000012808D10868002102F0B6FC1ED2002032
:10375000414908601AE040490868414902F0ACFC60
:1037600014D23F483C49086010E0394800780128ED
:1037700004DA384800683849086007E00020364914
:10378000086033480078401E314908703548407958
:10379000012807D033488078012803D031480079C8
:1037A00001282CD164202A4948702A4A516A2E4A9D
:1037B000106802F081FD03D22648406A2A49086059
:1037C00029490868254902F0B3FD274908602548C2
:1037D0004079012809D10868002102F06DFC1FD250
:1037E0000020214908601BE02CE01F4908681C49A3
:1037F00002F062FC14D21A481B49086010E0144819
:103800004078012804DA1348406A1749086007E045
:103810000020154908600E484078401E0C49487049
:103820000D4A1249094801F04BFC0F4A10490D4856
:1038300001F046FC0F49054801F012F80E4909480D
:1038400001F00EF810BD0000D40500209403002004
:103850008E0000202C060020200500200000484299
:1038600000409C45B403002068050020FC040020B3
:10387000440500208C050020B005002010B502682A
:10388000204B98420ED0204B98420BD0B0F1804F85
:1038900008D01E4B984205D01D4B984202D01D4BBC
:1038A000984203D122F070024B681A43154B98429C
:1038B0000ED0154B98420BD0B0F1804F08D0134B6F
:1038C000984205D0124B984202D0124B984203D135
:1038D00022F44072CB681A4322F080034C6943EA19
:1038E000040202608B68C3620B688362054B9842D6
:1038F00002D0054B984201D10B6903630123436158
:1039000010BD0000002C01400034014000040040C4
:1039100000080040000C004030B501F01F050124F4
:1039200004FA05F3046A9C430462046A01F01F056B
:1039300002FA05F52C43046230BD30B501F01F05D5
:10394000042404FA05F3046A9C430462046A01F047
:103950001F0502FA05F52C43046230BD30B5056A37
:1039600025F001050562026A4368846924F0700449
:1039700024F003040D682C4322F002028D682A43D0
:10398000104DA84200D103E00F4DA84206D100BF60
:1039900022F00802CD682A4322F00402094DA84211
:1039A00002D0094DA84207D123F4807323F4007399
:1039B0004D692B438D692B43436084614D6845639A
:1039C000026230BD002C01400034014030B5056A70
:1039D00025F010050562026A4368846924F4E04416
:1039E00024F440740D6844EA052422F020028D6816
:1039F00042EA0512124DA84200D103E0114DA8423F
:103A000007D100BF22F08002CD6842EA051222F001
:103A100040020B4DA84202D00A4DA84209D123F41E
:103A2000806323F400634D6943EA85038D6943EAAB
:103A30008503436084614D688563026230BD000088
:103A4000002C01400034014030B5056A25F4807532
:103A50000562026A4368C46924F0700424F0030418
:103A60000D682C4322F400728D6842EA0522124D43
:103A7000A84200D103E0114DA84207D100BF22F4B3
:103A80000062CD6842EA052222F480620A4DA84213
:103A900002D00A4DA84209D123F4805323F40053E5
:103AA0004D6943EA05138D6943EA05134360C46118
:103AB0004D68C563026230BD002C014000340140F6
:103AC00030B5056A25F480550562036A4468C26909
:103AD00022F4E04222F440720D6842EA052223F407
:103AE00000538D6843EA0533084DA84202D0084DC3
:103AF000A84204D124F480444D6944EA851444600A
:103B0000C2614D680564036230BD0000002C0140B5
:103B10000034014070B505466C6A0020E085E08401
:103B20002046FFF764F870BD70B506460025746A3C
:103B300020684069C0F3C01594F83900212805D1E8
:103B400025B10020E084204600F060F8206840693C
:103B5000C0F3801594F83A00222805D125B1002041
:103B6000E085204600F032F8E06B40F01000E063A2
:103B70002046FFF73CF870BD70B505466C6A2868B2
:103B8000006800F02000B0B90020E0852068C0681F
:103B900020F480702168C8602068406920F001002E
:103BA000216848612068406920F040002168486130
:103BB000202084F83A002046FFF760F970BD70B508
:103BC0000446656A2846FFF75AF970BD0168C9685E
:103BD00021F490710268D1600168496921F0010106
:103BE00002685161202180F83A10704710B50446F0
:103BF0002068C06820F040002168C860202084F858
:103C000039002046FFF7A5F9002010BD0168C968FA
:103C100021F0C0010268D160202180F8391070477E
:103C200070B5044694F83A00222847D1A068B0F550
:103C3000805F0CD1206950B90025A66A20684068D1
:103C4000C0F308003080A06A801CA06215E0A56A5D
:103C50000026A068B0F5805F03D0A06828B920696D
:103C600018B920684068287004E02068406800F0B7
:103C70007F002870A06A401CA062E08D401E80B2C8
:103C8000E085C8B92068C06820F020002168C860BD
:103C90002068C06820F480702168C860206840698E
:103CA00020F0010021684861202084F83A00204675
:103CB000FFF7E4F8002070BD0020FCE70220FAE7DF
:103CC00070B504462168096921F44051E268114346
:103CD000226811612269A1681143626941EA020503
:103CE0002168C96841F20C62914329432268D1607E
:103CF0002168496921F44071A26911432268516128
:103D00002D4A2168914202D1FEF772F801E0FEF7D8
:103D10005FF800EBC00101EB001162689200B1FB9B
:103D2000F2F100EBC00202EB001263689B00B2FBF1
:103D3000F3F26423B2FBF3F202EBC20303EB0212D1
:103D4000A1EB8201322202EB01116422B1FBF2F1FC
:103D500001F0F00100EBC00202EB001263689B006F
:103D6000B2FBF3F26423B2FBF3F201EB021200EBBD
:103D7000C00101EB001163689B00B1FBF3F100EBA4
:103D8000C00303EB00136668B600B3FBF6F36426CA
:103D9000B3FBF6F303EBC30606EB0313A1EB8301BE
:103DA000322303EB01116423B1FBF3F101F00F01A6
:103DB00011442268916070BD00380140014691F8BD
:103DC0003900212828D18868B0F5805F0BD10869B7
:103DD00048B90A6A1088C0F308000B685860086A7E
:103DE000801C086205E00B6A581C086218780B6892
:103DF0005860C88C401E80B2C88458B90868C06832
:103E000020F080000B68D8600868C06840F040006F
:103E10000B68D860002070470220FCE72DE9F041D4
:103E200004460D4617469846069E21E0701CF8B1E0
:103E30002EB1FDF7EFFCA0EB0800B04218D92068C6
:103E4000C06820F4D0702168C8602068406920F004
:103E5000010021684861202084F8390084F83A0084
:103E600000BF002084F8380000BF0320BDE8F081C7
:103E7000206800682840A84201D1012000E000200D
:103E8000B842D3D00020F1E708B50020344948609B
:103E900034480068006800F01000102851D100BFBD
:103EA000002000902F480068006800902D480068AE
:103EB0004068009000BF00BF2B4800684068C0F118
:103EC000C8002A4908802A480078012809D10846F4
:103ED000028828492848FCF746FA0020244908703F
:103EE00009E02248028823492348C830FCF73BFAFE
:103EF00001201F49087021480078022804DA1F4871
:103F00000078401C1D49087017480068006820F0C0
:103F10000100154909680860164813490968C86016
:103F2000C8201149096848600F480068006840F0DF
:103F300001000D4909680860C8220E490948FEF7CA
:103F40003BFF0848FEF754FE054840680C490968E5
:103F5000884203D9024840680949086008BD00004A
:103F6000001000E054030020040300200C00002097
:103F70000E000020AC000020740100200F00002083
:103F80002000002000BFFEE702480068C0F30220C6
:103F9000704700000CED00E010B5002804DB0A07B4
:103FA000130E054A135406E00A07140E034A00F0E4
:103FB0000F031B1FD45410BD00E400E018ED00E017
:103FC0002DE9F0414F1E00EBC7010446D1E9000185
:103FD00015461E4637F006020DD02A46334601F03C
:103FE000E7FC7F1E04EBC703D3E9002301F04CFA82
:103FF00037F00602F1D1022F25D0042F13D0062F5F
:1040000018BFBDE8F0812A46334601F0D1FCD4E95F
:104010000A2301F039FA2A46334601F0C9FCD4E9F3
:10402000082301F031FA2A46334601F0C1FCD4E9F5
:10403000062301F029FA2A46334601F0B9FCD4E9F7
:10404000042301F021FA2A46334601F0B1FCD4E9F9
:10405000022301F019FA2A46334601F0A9FCD4E9FB
:104060000023BDE8F04101F00FBA00000022134622
:104070001046014901F0C4BA0000F03F012202F0ED
:10408000FEB9002213461046114601F0B9BA00BF2E
:10409000704700BF7047000000B58FB0182105A819
:1040A000FCF793F9002002900390049000BF6F4842
:1040B000806940F400706D4988610846806900F4A9
:1040C0000070019000BF00BF00BF0846806940F04B
:1040D000040088610846806900F00400019000BF78
:1040E00000BF00BF0846806940F0100088610846A4
:1040F000806900F01000019000BF00BF00BF0846BB
:10410000406940F0010048610846406900F0010044
:10411000019000BF00BF022005908003079005A812
:10412000FDF7F2FC3F200B9003200C9000200D9037
:1041300003200E900BA94E48FDF7C4F930200B90D8
:104140000BA94C48FDF7BEF94B484C4908600020CC
:1041500048600021494881608021C16049000161B7
:104160008900416120218161C901C161FDF7DCF84D
:10417000434844490860002048604FF4807141483A
:1041800081600121017308210161002101758161B4
:104190004FF46021C161FCF781FE00BF3748394907
:1041A000086208463549486200BF0020029001209D
:1041B00003900520049002A93248FCF7BBFD0120C2
:1041C0000290022003900520049002A92D48FCF7DC
:1041D000B1FD02200290032003900520049002A963
:1041E0002848FCF7A7FD0320029004200390052037
:1041F000049002A92348FCF79DFD042002900520AD
:104200000390049002A91F48FCF794FD052002903A
:10421000062003900520049002A91A48FCF78AFDA5
:104220000E200290072003900520049002A9154853
:10423000FCF780FD0F2002900820039005200490D9
:1042400002A91048FCF776FD0E48FCF7F1FC0823A4
:104250000D4A0B494C310948FDF7ACF808220A49D0
:104260000848FCF7CDFE0FB000BD00000010024072
:1042700000080140001001400800024078040020BE
:1042800000240140BC040020EC0400202DE9F04F84
:1042900093B000200D900024002500278046814621
:1042A00082460026834600BF63E0002109E04A1CE5
:1042B00092B211464FF6F0739A4202DD13B0BDE898
:1042C000F08F8C4A126802F00202002AEFD08A4A6C
:1042D0001288ADF83820884A5288ADF83A20864ACC
:1042E0009288ADF83C20844AD288ADF83E20824ABC
:1042F0001289ADF84020804A5289ADF842207E4AAA
:104300009289ADF844207C4AD289ADF84620BDF8A8
:104310003840BDF83A20A24201DDBDF83A40BDF870
:104320003C20A24201DDBDF83C40BDF83E50BDF846
:104330004020AA4201DDBDF84050BDF84220AA420B
:1043400001DDBDF84250BDF844209344BDF846203D
:104350001644322C04DD08F1010202F0FF08274464
:10436000322D04DD0AF1010202F0FF0AA944411CCA
:10437000C8B2142899DB1420BBFBF0FBB6FBF0F6A7
:10438000B8F1000F02DDB7FBF8F700E00027BAF143
:10439000000F02DDB9FBFAF901E04FF000093846E1
:1043A00001F076FE5549089001F090FD54490990BE
:1043B00001F0B6FE53490B90888A01F069FE52491C
:1043C000099001F0ADFE0A900B9901F011FD0C90DF
:1043D00001F03EFE4B498882484601F059FE4749AC
:1043E000089001F073FD4649099001F099FE474994
:1043F0000B90888A01F04CFE4349099001F090FE31
:104400000A900B9901F0F4FC0C9001F021FE3F4959
:1044100088823F480088322864DD584601F038FE23
:104420003C49079001F07CFE3549089001F078FE88
:1044300034490A90C88A01F02BFE3349089001F0F4
:104440006FFE09900A9901F0D3FC0B9001F000FE79
:104450002C49C8820846C08A2C49C8822E48B0FB25
:10446000F6F0A0F54050D4380D900D9801F010FEF4
:104470002A49009001F02AFD019001F08DFCCDE960
:10448000020100F057FB4FF0C042254BCDE904017B
:1044900001F08EFA4FF04042224BCDE9060100F0C8
:1044A000F3FF02460B46CDE9080100201E4901F04A
:1044B000A7F8CDE90A0101F037FA86B2A6F5D44093
:1044C000B3380C900C98002801DA002000E00C981A
:1044D0000C4908830846008B0C49088300200C49CE
:1044E000088004E00A480088401C0949088000BF91
:1044F000E4E6000000000240EC040020295C8F3D4F
:10450000CDCC4C3E94030020CDCC4C3FB4030020D6
:104510008C00002052B85A410000710200401C4635
:104520006797303FE3796B3F0000594030B595B055
:1045300005460C4600BF9648806940F00400944947
:1045400088610846806900F00400019000BF00BF48
:1045500000BF0846806940F008008861084680690D
:1045600000F00800019000BF00BF00BF084680694E
:1045700040F0100088610846806900F0100001904A
:1045800000BF00BF00BF0846806940F4006088613A
:104590000846806900F40060019000BF00BF00BFC2
:1045A0000846806940F4005088610846806900F43C
:1045B0000050019000BF00BF4FF4E0700290022055
:1045C000039004900320059002A97248FCF77AFF3B
:1045D0000320029001200390022004900320059004
:1045E00002A96D48FCF76EFF8020029002A96B487B
:1045F000FCF768FF3820029000200390049003200D
:10460000059002A96448FCF75DFF4FF4E06002905A
:104610000220039004900320059002A95F48FCF754
:1046200051FF4FF46040029001200390022004905B
:104630000320059002A95848FCF744FF4FF4E050CE
:10464000029000200390012004900320059002A90D
:104650005048FCF737FF524852490860084644600A
:1046600000218160C560016180218161002141617B
:10467000FEF72BF94C484D4908600846446000217C
:104680008160C56001618021816100214161FEF787
:104690001CF96020069000200790089009900420E3
:1046A0000A9000200B900C90002206A93D48FEF7CE
:1046B0008EF8042206A93B48FEF789F8082206A9CD
:1046C0003848FEF784F8002206A93848FEF77FF83C
:1046D000042206A93548FEF77AF8082206A93348CD
:1046E000FEF775F84FF400600D900E90C0100F901B
:1046F000002011902E48007810904FF480401490C4
:104700000DA92848FDF730FE0DA92848FDF72CFE1D
:10471000002211461920FDF70AF91920FDF7F7F8D4
:104720002248FDF73FFF1F48FDF7FAFE00211D4814
:10473000FEF700F904211B48FEF7FCF80821194890
:10474000FEF7F8F800211948FEF7F4F8042117489D
:10475000FEF7F0F808211548FEF7ECF800211148A3
:10476000FDF73CFE04210F48FDF738FE08210D48F7
:10477000FDF734FE00210D48FDF730FE04210B4803
:10478000FDF72CFE08210948FDF728FE15B030BDC5
:104790000010024000100140000C014000080140E0
:1047A00000340140E8030020002C014030040020C8
:1047B000240000202DE9F05F04460D460021284624
:1047C00001F07AFC01D285F000452068294601F00D
:1047D000AFFDA061E1694FF0804001F0A1FC83468C
:1047E000A16901F09AFD8246216A01F001FB814630
:1047F000616901F095FC0746A169206901F090FC10
:104800008246E169A06901F093FD8346E16801F009
:1048100087FC8146514601F0EBFA8046394601F0AB
:10482000E7FA0646616801F0E3FA6060E069206239
:10483000A069E0616068094901F03EFD02D20748C5
:10484000606006E06068002101F036FC01D20020C3
:104850006060606801F0FCFBBDE8F09F00C0794437
:1048600070B505460C462878022809D1A88A01F0BF
:104870000FFC064631462046FFF79CFFA88307E061
:1048800000202060034860600020E0612062A8836F
:1048900070BD00000000484310B5044600204FF0F2
:1048A000E0210861FDF730FD2046E11704EB51716E
:1048B000C1F3CF01014A118010BD000004000020A7
:1048C00070B504464FF47A7094FBF0F594FBF0F168
:1048D00000FB114603E0074800F00EF86D1E002DA6
:1048E000F9D12EB14FF47A7106FB01F000F004F813
:1048F00070BD000040420F000146114A12884A4331
:104900004FF0E0235A6100229A611A46126942F080
:1049100001021A6100BF4FF0E022106900F00102AD
:104920001AB100F48032002AF5D04FF0E02212696B
:1049300022F001024FF0E0231A6100229A617047D1
:104940000400002000BF054A126802F04002002A5D
:10495000F9D0C2B2014B1B1D1A60704700380140EC
:1049600010B50A461178037A13B1037A072B08DBD6
:1049700083795B1CDBB28371142B04DD0123C371CB
:1049800001E000238371C38942F21074A34203DA69
:10499000C3895B1CC38101E0C3898381437A047AA4
:1049A000A34226D0037A8B4221D1C389838100237D
:1049B000C38101290CD10621437A032B02D10123A3
:1049C000837213E0437A052B10D1002383720DE02C
:1049D00006290BD10121437A042B02D101238372D2
:1049E00004E0437A022B01D1002383721170037A11
:1049F000437210BD70B505460024012D18D1202149
:104A00001A48FCF7FFFE012801D144F004041021EC
:104A10001648FCF7F7FE012801D144F002040821F2
:104A20001248FCF7EFFE01281ED144F001041BE000
:104A3000022D19D1E9020E48FCF7E4FE012801D14C
:104A400044F004044FF400610948FCF7DBFE012840
:104A500001D144F002044FF480610548FCF7D2FE16
:104A6000012801D144F00104204670BD000C014032
:104A7000001001402DE9F05F04460D460021284654
:104A800001F01AFB01D285F000452068294601F0AB
:104A90004FFCA061E1694FF0804001F041FB83468B
:104AA000A16901F03AFC8246216A01F0A1F9814630
:104AB000616901F035FB0746A169206901F030FB0F
:104AC0008246E169A06901F033FC8346E16801F0A8
:104AD00027FB8146514601F08BF98046394601F0AB
:104AE00087F90646616801F083F96060E069206239
:104AF000A069E0616068094901F0DEFB02D2074865
:104B0000606006E06068002101F0D6FA01D2002062
:104B10006060606801F09CFABDE8F09F00006144AD
:104B200003461846934201DD104602E08B4200DA4C
:104B3000084670472DE9F04DC84A002490B09142D4
:104B400005DA21F00043934201D805D120B110B01D
:104B5000BDE8F04DFFF792BAB1F5801F1BDA53EABA
:104B6000000209D0002911DA0120FBF7B0FC10B0D7
:104B7000BDE8F04DFFF785BA0220FBF7A8FCFFF770
:104B800075FA10B081F00041BDE8F08D6FF035048A
:104B9000362201F074FC04EB2152C1F31308B04932
:104BA000A2F2FF33414401F4801282F07F6103EBF3
:104BB000225281F04051009241EA08010022A94BA3
:104BC00001F000F8044608F10200A74EC0F31300FC
:104BD0000D467E44032867D2D6E90023204600F024
:104BE00067FE1ED10098002802BFD6E9000110B070
:104BF000BDE8F08D00F0C5FE07460C469B4A9C4B75
:104C000000F0D6FE06460D469A4A9B4B3846214692
:104C100000F0CEFE10B032462B46BDE8F04D00F05D
:104C200033BC4FF05532954B2046294600F0C0FE6C
:104C30000022934B00F0BAFF06460F4622462B4651
:104C40001046194600F0B4FE32463B4600F0B0FE76
:104C5000064600980F46F0B100F093FE80468A4663
:104C6000824A834B00F0A4FE32463B4600F09EFF92
:104C700022462B4600F0A6FF05460C467D4A7E4B99
:104C80004046514600F094FE10B02A462346BDE847
:104C9000F04D00F097BF0B4610B032462046294633
:104CA000BDE8F04D00F08EBF00224FF0804320465B
:104CB00000F0EAFB02460B462046294600F0A0FC25
:104CC00006460F46009800F05CFECDE9040132462E
:104CD0003B461046394600F06BFE0C9069480C9A32
:104CE0004044019009910B46104600F061FE824657
:104CF000024665488B46C8F151080B4608F5D7288F
:104D000003217844FFF75CF952465B4600F050FE01
:104D10000A905E480D9152465B4604217844FFF7A5
:104D20004FF9099B0C9A00F043FE844601980D9BB5
:104D300040EA080860460A9A00F0A6FB83460891FC
:104D4000B8F1000F4EDD4FF0FF322046294601F04A
:104D500096FB22462B4600F02BFE804600988A46A2
:104D600060B3DDE90401414A414B00F021FE0991A5
:104D700000905A4640465146089B00F085FB32465B
:104D80003B4600F015FE099B009A00F07DFB424671
:104D9000534600F00BFF22462B4600F013FF04465B
:104DA0000D46DDE90401334A334B00F001FE10B03B
:104DB00022462B46BDE8F04D00F004BF5A4640465F
:104DC000089B00F061FB32463B4600F0F1FD424695
:104DD000534600F0EBFE10B022462B46BDE8F04DE6
:104DE00000F0E4BE009840B3DDE904011F4A204B07
:104DF00000F0DEFD80468A465A4620462946089B3A
:104E000000F0E0FE32463B4600F0D2FD42465346FB
:104E100000F0D8FE22462B4600F0D4FE04460D4694
:104E2000DDE90401134A144B00F0C2FD10B0224624
:104E30002B46BDE8F04D00F0C5BE0B465A46204655
:104E4000294600F0BFFE32463B4600F0B1FD10B0EF
:104E500022462B46BDE8F04D00F0A8BE0000F07FD2
:104E6000645F09000000F03F7A1A0000763C793553
:104E7000EF39EA3D0000E0FE422EE63F5555D53FB2
:104E80000000E03F86EBF9FF121900001019000046
:104E900008B5FCF701FD4FF4E01000F02EFA4820B1
:104EA000FFF7FAFC6848006840F0807066490860C7
:104EB0006648006840F001006449086000204860CE
:104EC0000846406862490968884203D95F484068DB
:104ED0005F49086000BF5F48806940F001005D499C
:104EE00088610846806900F00100009000BF00BFA3
:104EF00000BF5949486820F0E06040F00070486009
:104F000000BF4FF4E13000F0F3F954A0FBF7DAF9F9
:104F10003220FFF7D5FC00205349488308700874FD
:104F2000887008714871C87144F62060C8820020FA
:104F30004E49488308700120087400208870087169
:104F40004871C87144F62060C882042140F2E730FD
:104F5000FFF7ECFA3220FFF7B3FCFFF79DF864206F
:104F600000F01AF9424843490860042048607D2156
:104F700040488160FCF754FC64E03E48FCF778FC54
:104F80003D484068052805D300203B494860012082
:104F9000FBF748FC38488068142808D300203649BD
:104FA0008860314800F0BCF8304800F0B9F8324869
:104FB000C06805283ED3002000212F4AD1602A492D
:104FC0008989022918DD284989894FF2121292FB3A
:104FD000F1F188B20A2803DA0021234A51820BE05A
:104FE000214A528A072303FB0201CA1701EB5272BE
:104FF000C2F3CF021C4B5A821C498989022918DD51
:105000001A4989894FF2121292FBF1F188B20A28EB
:1050100003DA0021154A51820BE0144A528A072311
:1050200003FB0201CA1701EB5272C2F3CF020F4B0E
:105030005A8200BF1048006920B100200E49086163
:10504000FFF724F999E70000FCED00E0001000E014
:10505000200000200010024000000140706F7765C2
:1050600072206F6E200D0A0094030020B40300200C
:1050700000300040A0000020D403002070B5054699
:105080000E46022028704FF4FA7200213046FFF7D6
:1050900047FD84B2192094FBF0F0401C84B2142226
:1050A00001212046FFF73CFD84B2601E034931F820
:1050B00010004004040C204670BD0000EA650008A2
:1050C0002DE9F04704460D461646207801281FD1E9
:1050D000E079E8B9A08A00F0DBFF81464946304616
:1050E000FFF7C8FC87B2608A00F0D2FF81464946CC
:1050F0002846FFF7BFFC1FFA80F8474504DDA4F8F7
:105100001A806868706009E067837068686005E00D
:10511000002028606860306070606083BDE8F087C0
:10512000C18A46F67812914202DA0121417106E005
:10513000C18A46F66C32914201DD00214171018B3A
:1051400042F60412914202DD0121017106E0018B59
:1051500042F23412914201DA00210171818A4CF24B
:105160005032914213DDC178491CC170C178642965
:1051700007DD418A3C2904DAC821C1700121417050
:1051800009E0C1780A2906DD0121817003E00021D0
:10519000C17081704170704710B5044600202949E4
:1051A0000860486088608861C86108622648C860F5
:1051B00026480861002048612549086048608860E9
:1051C0008861C86108622348C860234808610020DC
:1051D000486122490860486088608861C861086247
:1051E0001948C86019480861002048611C490860D6
:1051F000486088608861C86108621648C8601648BF
:10520000086100204861174908604860886088612B
:10521000C86108621048C8601348086100204861EE
:1052200012490860486088608861C86108620A485D
:10523000C8600D48086100204861204600F018F859
:1052400010BD0000FC040020B81E853D8FC2753CD7
:10525000200500206F12033A6F12833A44050020A4
:10526000680500208C0500200AD7233BB0050020EC
:1052700038B5044600BFB4F57A7F01DD0A2CFADBAD
:1052800000BF1848C06940F001001649C8610846CF
:10529000C06900F00100009000BF00BF88041249FF
:1052A000086040F2CF20486000210F4881600F481D
:1052B00090FBF4F0401E0C49C86000210A480161CF
:1052C0008021816100214161FDF7F6F80022032170
:1052D0001C20FCF72CFB1C20FCF719FB0248FDF7F7
:1052E00061F938BD00100240D4050020A0860100FD
:1052F00010B50446FEF700F910BD30B58FB0054675
:105300000124282105A8FBF760F814216846FBF763
:105310005CF8012005900004069000200790022010
:105320000C90C1030D910E9505A8FCF7BBFD04463A
:105330000CB100BFFEE70F2000900220019000207A
:1053400002904FF480600390002004900221684690
:10535000FCF772FC04460CB100BFFEE70FB030BD95
:1053600010B500233848007800286ADD36480078F8
:10537000401E354908703548027800215EE002EB96
:10538000C20000EB0210324C04EBC000405C7B28F2
:1053900052D102EBC20000EB021004EBC000405CF3
:1053A0002C4C207002EBC20000EB0210284C04EBE6
:1053B000C00008444088274C608002EBC20000EB2C
:1053C0000210234C04EBC00008440079214C2071EA
:1053D00002EBC20000EB02101D4C04EBC0000844BD
:1053E00040791C4C607102EBC20000EB0210184CBB
:1053F00004EBC00008448079164CA07102EBC20097
:1054000000EB0210124C04EBC00008440089114C60
:10541000208102EBC20000EB02100D4C04EBC00037
:105420000844807A0B4CA0722046807A7D2803D1F4
:105430000120094C207010BD481C81B2C8299EDB98
:1054400000BF1846F7E700000F0000200E00002004
:1054500074010020480300201000002070B50446AD
:105460000D464FF47A732A4621460648FDF708FD9B
:1054700000BF044800680068C0F380100028F8D01E
:1054800070BD00005403002010B591EA030F48BF1F
:1054900083F0004300F19E83841A71EB030C05D264
:1054A000121943EB0C03001B61EB0C01DFF824E144
:1054B0004FEA1154A4EB135C1EEA430F18BF9EEA97
:1054C000445F73D023EA0E03DCF1200E21EA04517D
:1054D00043F4801332D322FA0CFE10EB0E0023FAB1
:1054E0000CFE41EB0E01CCF1200E03FA0EFE10EB88
:1054F0000E0051F10001B1F5801FCCF1200E32D227
:1055000001EB045112FA0EF2BDE8104058BF70478B
:10551000401C38BF5FEA420218BF7047002814BF22
:1055200020F0010041F100014FEA410313F5001F93
:1055300038BF7047A1F1C04100F032BB012A43EBF4
:105540000302ACF1200CDCF11F0E32BF4FF0000E55
:1055500023FA0CF310EB030041EB0451B4EB115FA1
:10556000D0D0A1EB045101F5801149085FEA300069
:1055700001EB04510ED350F1000038BF12FA0EFEB9
:1055800008D1BDE81040C9E7401C38BF5FEA4202BD
:10559000CAD1C3E7BDE810404FEA410313F5001F2D
:1055A00038BF7047A1F1C04100F0FABA9EEA445FEB
:1055B00008D011EA5E0FBDE8104004BF01F00041C1
:1055C00000207047BDE8104070B500F09BFA00BFA6
:1055D00064FBBE3E0000E0FF02494FF0000000F017
:1055E0001CBF00BF0000F87F491058BFC1F1404107
:1055F0005B1058BFC3F140438B42EFF3008070470C
:105600002DE9C04130B4DFF8A0C23CEA111418BF44
:105610003CEA131400F0EC8081EA03051CEA111443
:1056200044EAD57418BF1CEA131500F0C780A4EB38
:1056300005044FF0004545EAC12145EAC32341EA8C
:10564000505143EA525304F17F74994204F50034F7
:105650004FEAC0204FEAC22208BF904200F09C806F
:105660004FEA13650FF24016765D4FEA134506FBCD
:1056700005F7C7F1807706FB07F74FEAD737A7FB97
:1056800003687642C8F58038A7FB06CE38BFA8F17C
:10569000010807FB08E64FF0000EA6FB028CE6FBB4
:1056A00003CEDCF1000CCEF1004E38BFAEF1010E9E
:1056B000A6FB0C584FF000074FF00005E6FB0E87E5
:1056C000A1FB08C6A0FB07CE16EB0E0645F10005B0
:1056D000E1FB076515F1E04E7EBFA4F580345FEA7B
:1056E00046066D4116F1800745F100054FEA172780
:1056F0004FEA066647EA0567A6F1DE46B6F1805F27
:105700004FEA15251FD9384624F0010C05EBC4716A
:10571000BCF1FE6F01EB0C1102D8F0BCBDE80081BA
:1057200024425CBF01F5801E9EEAC47F02D4F0BC17
:10573000BDE80081244238D4F0BCA1F1C041BDE8ED
:10574000004100F02DBA4FEAD22242EA43524FEA1A
:10575000D323A7FB02864FEAD02040EA415007FB43
:1057600003661EEA0E0F4FEAD12105FB026658BF01
:10577000A6EB0056B6EB00564FEA520E4EEAC37E39
:1057800018EB0E0E56EB530EBDD518EB02085E411A
:105790007F1C55F10005B6E74FF480154FF0000768
:1057A0004FF000064FF00008ADE7F0BC4FF00000EE
:1057B00001F1C04101F00041BDE8008111EA0C1F78
:1057C0000CEA131500D00CE013EA0C1F00F0258042
:1057D0004FF00000F0BC81EA030101F00041BDE898
:1057E0000081F0BCBDE8004181EA030100F0D8B9B6
:1057F000F0BCBDE8004170B500F084F9097EFC3EC4
:1058000000F007B881EA03014FF0000001F0004109
:10581000704781EA030100F0C3B9F0BCBDE8004164
:105820004FF0000021497047FFFDFBF9F7F5F4F256
:10583000F0EEEDEBE9E8E6E4E3E1E0DEDDDBDAD82B
:10584000D7D5D4D3D1D0CFCDCCCBCAC8C7C6C5C489
:10585000C2C1C0BFBEBDBCBBBAB9B8B7B6B5B4B3A0
:10586000B2B1B0AFAEADACABAAA9A8A8A7A6A5A48B
:10587000A3A3A2A1A09F9F9E9D9C9C9B9A9999984F
:105880009797969595949393929191908F8F8E8EF2
:105890008D8C8C8B8B8A898988888787868585847F
:1058A00084838382828181800000FF070000F87F6B
:1058B00051EA030C17D41CF5801F58BFBCF5801F9C
:1058C00000F10680994218BF704708BF90427047A8
:1058D00007D711F5801F58BF13F5801F19D49942BF
:1058E0007047894270471CF5801F08D5BCF5801FA2
:1058F000F7D58B4218BF704708BF824270474FF4FC
:10590000001C1CEB410F38BF1CEB430F01D28B4234
:10591000704770B500F0F6F8922449004FF000513E
:105920004FF08053FFF760BE4FEA1153A3F5806339
:10593000D3F11E03A8BFD3F1200C08DB4FF00042C7
:1059400042EAC12252EA505232FA03F07047094249
:105950000BD4102BC4BF0020704703F5787CBCF13A
:10596000FF3F05D04FF0FF3070474FF00000704709
:1059700070B500F0C7F800BF49922480002070473E
:10598000F0E710F0004248BF4042B0FA80F310FA4E
:1059900003F10AD0C3F11D0303F580634FEA4150C0
:1059A00002EB035202EBD12170474FF00000704729
:1059B000DFF848C170B51CEA111E1EBF1CEA1315A2
:1059C0009EEA0C0F95EA0C0F00F06F8081EA030449
:1059D00023EA4C134EEAD47E21EA4C1141F48011A3
:1059E00043F48013AE44A1FB024CA0FB0365AEF16F
:1059F0007F7E361955EB0C05A1FB034C4CF10003DF
:105A0000A0FB021C16EB0C06654153F10003094292
:105A100018BF46F0010613F4007F0BD14FEA0331A3
:105A20004FEA0530340341EA155140EA16506FF051
:105A300003020AE04FEAC3214FEAC520F40241EA1B
:105A4000555140EA56506FF0020202EB2E4201EB34
:105A5000025585EACE710AD05FEA440C18BF24F0E3
:105A6000004450F1000041F1000120EAD47040F2FE
:105A7000FE7C624500D270BDA84214BF4FF0804446
:105A80004FF04044002E08BF0024BEF1806FA8BF35
:105A9000A1F1C041BDE8704080F282804FF000006B
:105AA00001F1C04101F0004170479EEA0C0F0CEA81
:105AB000131518BF95EA0C0F06D04FF0000081EACD
:105AC000030E0EF0004170BD00F01CF88900013E8D
:105AD00000F007B800F009B84FEA430C5FEA5C5CDD
