:020000040800F2
:10000000200B0020CD01000813250008392100082D
:100010001125000819040008352B00080000000015
:10002000000000000000000000000000392500086A
:100030004704000800000000E3010008E501000893
:10004000E7010008E7010008E7010008E7010008F0
:10005000E7010008E7010008E7010008E7010008E0
:10006000E7010008E7010008E7010008E7010008D0
:10007000E7010008E7010008E7010008E7010008C0
:10008000E7010008E7010008E7010008E7010008B0
:10009000E7010008E7010008E7010008E7010008A0
:1000A000E70100083D250008E7010008E701000816
:1000B00049250008E7010008B1250008E70100080C
:1000C000E7010008E7010008E7010008E701000870
:1000D000E7010008052B0008E7010008E701000818
:1000E000E7010008E7010008E7010008E701000850
:1000F00059260008E7010008E7010008E7010008A9
:10010000E7010008E7010008E7010008E70100082F
:10011000E7010008E7010008E7010008E70100081F
:10012000E7010008E7010008E7010008E70100080F
:1001300000F002F800F03AF80AA090E8000C8244BF
:100140008344AAF10107DA4501D100F02FF8AFF29C
:10015000090EBAE80F0013F0010F18BFFB1A43F0A5
:10016000010318472C4B00004C4B0000103A24BFF1
:1001700078C878C1FAD8520724BF30C830C144BF0C
:1001800004680C607047000000230024002500264E
:10019000103A28BF78C1FBD8520728BF30C148BFEA
:1001A0000B6070471FB51FBD10B510BD00F06EF895
:1001B0001146FFF7F7FF03F0B7FA00F08CF803B42D
:1001C000FFF7F2FF03BC02F02CFD00000948804756
:1001D00009480047FEE7FEE7FEE7FEE7FEE7FEE729
:1001E000FEE7FEE7FEE7FEE704480549054A064B41
:1001F000704700003B250008310100082005002061
:10020000200B0020200700202007002070474FF01F
:10021000000200B5134694469646203922BFA0E856
:100220000C50A0E80C50B1F12001BFF4F7AF090762
:1002300028BFA0E80C5048BF0CC05DF804EB890053
:1002400028BF40F8042B08BF704748BF20F8022B96
:1002500011F0804F18BF00F8012B704770477047AE
:100260007047704710B500F009F8006810BD10B570
:10027000044600F003F8046010BD00000048704719
:10028000BC04002000487047BC0400207546FFF7FE
:10029000F9FFAE4605006946534620F00700854643
:1002A00018B020B5FFF7A0FFBDE820404FF00006D2
:1002B0004FF000074FF000084FF0000B21F007014E
:1002C000AC46ACE8C009ACE8C009ACE8C009ACE891
:1002D000C0098D46704710B50446AFF30080204634
:1002E000BDE81040FFF76BBF70B504462068816819
:1002F000C943C9071BD1816821F00101816000F069
:1003000031FE05460EE000F02DFE401B022809D903
:10031000A06A40F01000A062E06A40F00100E062D4
:10032000012070BD20688068C043C007EBD000206A
:1003300070BD10B50146486A826A12F0500F05D0B0
:10034000006A026BBDE8104008461047816A41F41C
:100350000071816201688968C1F3424107290CD1AB
:10036000017B51B9816A21F480718162816AC9047B
:1003700003D4816A41F00101816200F06FFA10BD7F
:1003800010B5406A816A41F040018162C16A41F062
:100390000401C16200F064FA10BD10B5406A00F0BB
:1003A0005EFA10BDF8B50446002600962068816804
:1003B000C943C9072AD0816841F00101816014480E
:1003C00014490068B0FBF1F0009002E00098401E74
:1003D000009000980028F9D100F0C4FD054610E017
:1003E00000F0C0FD401B02280BD9A06A40F01000AD
:1003F000A062E06A40F00100E06284F8246001201D
:10040000F8BD20688068C043C007E9D10020F8BD6E
:100410000800002040420F00FEE730B590F8405041
:100420000124AC40C56B6C60046863604368102BAA
:1004300004D0036899600068C26030BD03689A60A8
:100440000068C16030BD70472DE9FC5F82464FF007
:100450000008CDF80080CDF8048076480278764E0A
:10046000764F7749DFF8DC91774C784D4FF0010BF0
:10047000012A21D00868D9F80010401A02F09AFF2A
:10048000B0F57A7F16DDA4F81CB009F10800808869
:10049000E08384F800806E49C1F80080C6F80080CF
:1004A000A5F81CB0E88385F800806A48C0F8008091
:1004B000C7F80080BDE8FC9F0968C9F80010017802
:1004C0008DF800104188ADF8021001798DF8041004
:1004D00041798DF8051081798DF80610C1798DF874
:1004E000071080F80080BDF80200A0F2DC50C9F8C7
:1004F00004004FF4FA72514202F060FFC9F80400A0
:10050000BAF1000F71D0BAF1010F6ED1524981F8E2
:1005100000B04F49514A0A60DFF83891C9F800200D
:10052000232810DD84F800B048F6B80148434FF4A2
:10053000FA7190FBF1F004F069F9306085F800B0D1
:100540003068386051E010F1230F33DAC1F80080D1
:10055000C6F80080A4F81CB0A4F8168040490A78B8
:1005600040F2D1116AB140422438C00090FBF1F052
:100570003449183131F8100004F060F93949086045
:1005800009E040422438C00090FBF1F041002D48C2
:100590000830405AE08384F80080C9F80080C7F82A
:1005A0000080A5F81CB0A5F81680E08BE88385F8DC
:1005B00000801AE0A4F81C8084F80080C1F8008054
:1005C000C6F80080A5F81C8085F80080C9F8008076
:1005D000C7F800809DF80510022019B184F80EB00C
:1005E000A87302E0A07385F80EB01F4E7B20307018
:1005F0007D20B072208BF080608B6421B0FBF1F025
:10060000308120692969084400EBD070401004F063
:10061000FDF8164904F026F904F0D8F87080A08A95
:10062000A98A08444008B0803046BDE8FC5F0C2130
:1006300003F0ACBA1200002080030020C8030020A1
:1006400028000020A400002008020020280200202A
:100650005C030020A4030020960000200060EA450F
:1006600097000020EC030020B0040020F4FDD43BF0
:10067000F8B504460026009694F82400012809D015
:10068000012084F824002046FFF72EFE074638009C
:1006900002D058E00220F8BDA06A20F4885040F053
:1006A0000200A062022000F0D7FC29490968B1FBD2
:1006B000F0F04000009002E00098401E009000988A
:1006C0000028F9D12046FFF76DFE2068816841F0CF
:1006D0000801816000F046FC05460EE000F042FC97
:1006E000401B0A2809D9A06A20F0020040F010003F
:1006F000A06284F824600120F8BD206880680007AB
:10070000ECD42068816841F00401816000F02AFC8B
:1007100005460EE000F026FC401B0A2809D9A06A15
:1007200020F0020040F01000A06284F82460012054
:10073000F8BD206880684007ECD4A06A20F0020071
:1007400040F00100A06284F824603846F8BD000043
:1007500008000020F8B500230025009590F824201B
:10076000012A12D0012280F824204A681F26072A75
:100770000DD20468676B521E02EB82029640B743AB
:100780000E689640374367631AE00220F8BD0D2AD1
:100790000BD20468276BD21F02EB82029640B7434C
:1007A0000E689640374327630AE00468E76A0D3A0B
:1007B00002EB82029640B7430E6896403743E762E9
:1007C0000A6807260A2A0BD30468E7680A3A02EB8C
:1007D00042029640B7438E6896403743E76009E08F
:1007E0000468276902EB42029640B7438E68964040
:1007F000374327610A68102A01D0112A23D1144CEB
:100800000268A2421AD1946824021CD4946844F469
:10081000000494600968102915D10E490E4A096830
:10082000B1FBF2F101EB81014900009102E0009976
:10083000491E009100990029F9D104E0816A41F034
:1008400020018162012380F824501846F8BD000081
:10085000002401400800002040420F00704770470C
:10086000704700002DE9F04104460025002C03D01C
:10087000A06A002618B108E00120BDE8F081E66218
:1008800084F82460204600F07FF82046FFF72CFD16
:10089000A16AC90600D428B1A06A40F01000A06285
:1008A0000120EAE7A16A21F4885141F00201A16226
:1008B000324923688B4206D1E169B1F5402F03D15B
:1008C0004FF4002100E0E169277B41EA47026168BB
:1008D0000A43A1684FF4807C614508D0012906D005
:1008E000002194F81480B8F1010F02D00AE06146AB
:1008F000F7E7C7B1A76A47F02007A762E76A47F0A2
:100900000107E7625F6827F469470F435F6021686A
:100910008B681B4F3B4013438B60A168614509D036
:10092000012907D009E0A7697F1E41EA473141F458
:100930000061E7E7218A491E0D052168CB6A23F48F
:1009400070032B43CB62216889680E4B194091429A
:1009500007D1E662A16A21F0020141F00101A16222
:100960008BE7A06A20F0020040F01000A062E06A6D
:1009700040F00100E06201207FE70000003C014000
:10098000FDF7E1FFFE0E1FFF704700002DE9F04765
:10099000044689469246DFF8008120683F4F08F1FF
:1009A0000406404501D0B84207D1306810F4702FDA
:1009B00003D001252846BDE8F08794F824000128DB
:1009C0000BD0012084F824002046FFF7EBFC0546FD
:1009D000002125B184F82410ECE70220EBE7A06A9F
:1009E00040F60162904340F48070A0622068B842F3
:1009F00018D1326812F4702F14D0A26A42F4801217
:100A0000A2623068400505D5A06A20F4005040F489
:100A10008050A062A06AC00412D5E06A20F00600EF
:100A2000E0620EE0A26A22F48012A26240684005F1
:100A3000F0D5A06A20F4005040F48050A062E9E7AD
:100A4000E16284F82410216A15488862216A1548F9
:100A5000C862216A1448086321686FF002000860C8
:100A60002068816841F480718160216853464C316F
:100A70004A46206A00F02AF920688168C1F34241A1
:100A8000072904D0816841F48011816092E7816870
:100A900041F4A00181608DE700240140002801405D
:100AA000330300089B030008810300082DE9F05F71
:100AB000002590F82110022903D00421816301252B
:100AC00095E001680A6822F00E020A6001680A686F
:100AD00022F001020A60474E464FB215DFF814C1FA
:100AE000DFF81081DFF80C91DFF808A1DFF804B11E
:100AF0000168783F13011402ACF1640CA8F15008AE
:100B0000A9F13C09AAF1280AABF1140B4FF4801E9D
:100B1000B1422FD9B94201D1012227E0614501D16B
:100B2000102223E0414521D0494501D11A461DE05C
:100B3000514501D1224619E0594501D1724615E0CF
:100B40002D4EB14201D1012210E02B4E1436B1429C
:100B500001D110220AE0284E2836B14206D0264A9A
:100B60003C32914201D11A4600E022462249091F37
:100B70000A6033E0B94201D101222CE0614501D184
:100B8000102228E0414526D0494501D11A4622E0ED
:100B9000514501D122461EE0594501D172461AE065
:100BA000B14202D14FF0807215E0134EB14201D133
:100BB000012210E0104E1436B14201D110220AE099
:100BC0000D4E2836B14206D00B4A3C32914201D13B
:100BD0001A4600E02246074980394A60012180F820
:100BE0002110002180F82010416B01B18847284670
:100BF000BDE8F09F800002400804024030B50028A4
:100C00000DD01B4B0168142299420AD2194B0B4498
:100C1000B3FBF2F292000264174AC2630BE00120B8
:100C200030BD134B5B420B44B3FBF2F29200026403
:100C30000F4A083AC2630222001D42770A6843F64F
:100C4000F0739A43D0E900342343D0E902452C43A2
:100C5000234304692343446923438469234313439F
:100C60000B6000214163012242770177002030BDF3
:100C700008040240F8FFFDBF0000024070B50446C2
:100C8000002594F8200001280CD0012084F82000D1
:100C900094F821600020012E06D084F8200002255F
:100CA000284670BD022070BD022684F82160A06332
:100CB0002068066826F0010606602046FFF7ADFBB7
:100CC0002068016841F001010160E9E770B5044660
:100CD000002594F8200001280CD0012084F8200081
:100CE00094F821600020012E06D084F8200002250F
:100CF000284670BD022070BD022684F82160A063E2
:100D00002068066826F0010606602046FFF785FB8E
:100D1000E06A28B12068016841F00E01016009E035
:100D20002068016821F0040101602068016841F039
:100D30000A0101602068016841F001010160D7E704
:100D40002DE9F84F00240023DFF8E0914FF00F0861
:100D500009F1040A0AF1040B0BF1040EDFE001278C
:100D6000A7403A40BA4275D1DFF8C4C14D68A5EB3F
:100D70000C0665452BD00DDC032D34D005DC35B3D6
:100D8000012D19D0022D2FD11BE0112D16D0122DBF
:100D90002AD119E0B6F5881F19D006DCB6F5803FD8
:100DA00015D0B6F5801F1FD111E0B6F5001F0ED08B
:100DB000B6F5041F18D10AE0CB6815E0CB681B1DFF
:100DC00012E0CB6808330FE0CB680C330CE08B6883
:100DD00023B1012B04D00823476105E0042303E07D
:100DE0000823076100E00023FF2A01D8054601E03F
:100DF00000F1040502D84FEA840603E0A4F10806D6
:100E00004FEA86062F6808FA06FC27EA0C0703FA61
:100E100006F647EA06072F604D68ED007ED5454D82
:100E2000AE6946F00106AE61AD6905F001050095B9
:100E3000414D24F003067719BE68A5072D0F08FA67
:100E400005FC26EA0C06DFF8F4C0604503D14FF03C
:100E5000000C25E062E0DFF8E8C0604502D14FF009
:100E6000010C1DE0DFF8DCC0604502D14FF0020C40
:100E700016E0DFF8D4C0604502D14FF0030C0FE05C
:100E8000DFF8C8C0604502D14FF0040C08E0DFF87D
:100E9000C0C0604502D14FF0050C01E04FF0060CD8
:100EA0000CFA05FC4CEA060CC7F808C04D68ED03C7
:100EB00005D5D9F800501543C9F8005004E0D9F819
:100EC00000509543C9F800504D68AD0305D5DAF8D8
:100ED00000501543CAF8005004E0DAF8005095437A
:100EE000CAF800504D68ED0205D5DBF800501543F7
:100EF000CBF8005004E0DBF800509543CBF80050ED
:100F00004D68AD0205D5DEF800501543CEF800500F
:100F100004E0DEF800509543CEF80050641C0A68E7
:100F200032FA04F57FF41BAFBDE8F88F00040140EE
:100F300000001110001002400000014000080140B4
:100F4000000C014000100140001401400018014055
:100F5000001C01408068084201D001207047002039
:100F60007047000001488068704700001C000020A6
:100F700010B50748016841F010010160032000F03E
:100F800059F80F2000F006F800F026F8002010BDF8
:100F90000020024070B504460D4D4FF47A71287858
:100FA000B1FBF0F00B490968B1FBF0F000F02CFC4C
:100FB00008B1012070BD102C07D200222146501E1E
:100FC00000F018F86C60002070BD012070BD0000BA
:100FD0001C000020080000207047002809DB00F0FA
:100FE0001F02012191404009800000F1E020C0F87B
:100FF00000117047F0B40D460D4B1B68C3F302237C
:10100000C3F10704042C00D90424191D072901D2B7
:10101000002300E0DB1E012606FA04F1491E2940E8
:1010200099409E40761E16403143F0BC01F083BDCE
:101030000CED00E000F00701054A10684FF6FF03D1
:10104000184040EA0120034908431060704700003F
:101050000CED00E00000FA0510B586B0014632A0A4
:1010600090E81C00C068CDE903340292059032A0DC
:10107000006801900020314C042931D00EDC012998
:1010800038D0022908D100F0A5F96168C1F3813197
:10109000491C4900B0FBF1F006B010BD082924D06E
:1010A0001029F9D161682268D201F5D502A8C1F3EF
:1010B0008342805CC90309D5616801AAC1F340413C
:1010C000515C1F4AB2FBF1F1484301E01D4948431E
:1010D00061684902E0D440000321B0FBF1F0DBE796
:1010E00006B0BDE8104000F085B906B0BDE810407C
:1010F00000F080B9216AC1F30122012A03D18907D6
:1011000001D5D003C8E7022A05D1616A890702D553
:1011100049F64040C0E7032ABED121688903BBD508
:101120004FF22440B8E7000002030405060708094F
:101130000A0B0C0D0E0F10100102000000100240EF
:1011400000127A0000093D002DE9F8430446DFF85B
:10115000F8802078C0075FD00027D8F81C00C000B6
:101160000BD4D8F81C0040F08050C8F81C00D8F808
:101170001C0000F0805000900127344D2868C00505
:1011800012D4286840F480702860FFF7EBFE064612
:1011900007E0FFF7E7FE801B642802D90320BDE8C3
:1011A000F8832868C005F4D5D8F8200000F4407012
:1011B00010B3A18801F4407181421DD0D8F82000FD
:1011C00020F44070224901220A6000220A60C8F817
:1011D0002000C00710D0FFF7C5FE054641F2883653
:1011E00006E0FFF7BFFE401BB04201D90320D6E75F
:1011F000D8F820008007F4D5D8F82000616820F4E2
:1012000040700843C8F82000012F05D1D8F81C0011
:1012100020F08050C8F81C002078800707D5D8F847
:101220000400A16820F440400843C8F80400207876
:10123000C00607D5D8F80400616920F4800008438F
:10124000C8F804000020AAE7001002400070004027
:10125000400442422DE9F04704460D46002C17D0C9
:10126000DFF83081D8F8000000F00700A84211D262
:10127000D8F8000020F007002843C8F80000D8F88C
:10128000000000F00700A84204D00120BDE8F0876C
:101290000120FBE72068404E810712D5400703D5A7
:1012A000706840F4E06070602078000703D57068D3
:1012B00040F4605070607068A16820F0F00008434E
:1012C00070602078C0072CD06068012806D0022802
:1012D00009D0316889070BD40120D7E73168890329
:1012E00006D40120D2E73168890101D40120CDE77D
:1012F000716821F0030101437160FFF733FE074677
:1013000041F2883906E0FFF72DFEC01B484501D9A0
:101310000320BBE77068616800F00C00B0EB810F40
:10132000F1D1D8F8000000F00700A8420ED9D8F893
:10133000000020F007002843C8F80000D8F800009B
:1013400000F00700A84201D001209FE72078400765
:1013500005D57068E16820F4E0600843706020788B
:10136000000706D57068216920F4605040EAC1008A
:10137000706000F03FF87168084AC1F30311515CD6
:10138000C8400749086007480068FFF703FE0020CF
:101390007CE700000020024000100240364C0008AC
:1013A000080000202000002001480068704700006D
:1013B0000800002000B5FFF7F7FF04494968044A18
:1013C000C1F30221515CC84000BD00000010024082
:1013D000464C000800B5FFF7E7FF04494968044A96
:1013E000C1F3C221515CC84000BD000000100240A2
:1013F000464C000885B014A090E80E00C068CDE906
:1014000002230191049014A000680090134B5968C6
:10141000134801F00C02042A10D0082A0ED101A8AA
:10142000C1F38342805CC9030AD55968C1F34041C6
:101430001DF801100A4A5043B0FBF1F005B07047A7
:1014400008494843FAE700000203040506070809B3
:101450000A0B0C0D0E0F10100102000000100240CC
:1014600000127A0000093D002DE9F84F0446002CD7
:101470000ED02078D94DC0075ED06868C0F38100D7
:1014800001280BD06868C0F38100022803D00CE06B
:101490000120BDE8F88F6868C00306D5286880037E
:1014A0004AD56068A8BB0120F3E76068B0F5803FCB
:1014B00011D0A8B1B0F5A02F1BD0286820F480303F
:1014C0002860286820F480202860606830B3FFF727
:1014D00049FD06461EE0286840F480302860F4E7A5
:1014E000286820F480302860286820F48020286054
:1014F000EBE7286840F480202860286840F48030BA
:101500002860E2E7FFF72EFD801B642802D9032044
:10151000BFE711E028688003F4D50DE0FFF722FD56
:10152000064606E0FFF71EFD801B642801D9032054
:10153000AFE728688003F5D42078DFF8A48280071D
:101540004FF0010A4FF0000945D5686810F00C0F04
:1015500007D06868C0F38100022812D16868C00310
:101560000FD42868800704D52069012801D0012004
:101570008FE72868616920F0F80040EAC100286020
:1015800029E02069B8B1C8F800A0FFF7EBFC0646D7
:1015900006E0FFF7E7FC801B022801D9032078E76B
:1015A00028688007F5D52868616920F0F80040EACE
:1015B000C10028600FE0C8F80090FFF7D3FC064692
:1015C00006E0FFF7CFFC801B022801D9032060E76B
:1015D00028688007F5D42078000726D58148A169BE
:1015E00099B1C0F800A0FFF7BDFC064606E0FFF782
:1015F000B9FC801B022801D903204AE7686A8007EA
:10160000F5D5012000F086FF0FE0C0F80090FFF74D
:10161000A9FC064606E0FFF7A5FC801B022801D9BD
:10162000032036E7686A8007F5D42078400773D531
:101630000026E869C00008D4E86940F08050E861FD
:10164000E86900F0805000900126DFF89CB1DBF8DB
:101650000000C00514D4DBF8000040F48070CBF823
:101660000000FFF77FFC074606E0FFF77BFCC01B8E
:10167000642801D903200CE7DBF80000C005F4D58D
:10168000E068012812D0B0B105281DD0286A20F0EA
:1016900001002862286A20F004002862E06841F214
:1016A000883B28B3FFF75EFC07461DE0286A40F040
:1016B00001002862F2E7286A20F001002862286A07
:1016C00020F004002862E9E7286A40F0040028625C
:1016D000286A40F001002862E0E7FFF743FCC01BE6
:1016E000584501D90320D4E6286A8007F5D50DE0D6
:1016F000FFF738FC074606E0FFF734FCC01B5845EF
:1017000001D90320C5E6286A8007F5D4012E03D14C
:10171000E86920F08050E861E069A0B36968C1F32E
:101720008101022946D0022805D0C8F86090FFF751
:1017300019FC04463AE0C8F86090FFF713FC06462F
:1017400006E0FFF70FFC801B022801D90320A0E66A
:1017500028688001F5D4206AB0F5803F05D168681B
:10176000A16820F4003008436860D4E90801084308
:10177000696821F4741108436860C8F860A0FFF735
:10178000F1FB044607E026E0FFF7ECFB001B022814
:1017900001D903207DE628688001F5D51BE0FFF71D
:1017A000E1FB001B022801D9032072E628688001B2
:1017B000F5D410E001280CD06868226A00F480316A
:1017C000914204D1616A00F47010884203D0012074
:1017D0005FE601205DE600205BE6000000100240AD
:1017E0000000424280044242007000404FF0E0217D
:1017F000042804D0086920F00400086170470869D3
:1018000040F004000861704710B5401EB0F1807FC1
:1018100001D3012010BD4FF0E02460610F2160175B
:1018200001F089F90020A06107202061002010BD8F
:101830007047704710B50446002C03D094F83D0063
:1018400010B107E0012010BD002084F83C002046C4
:1018500000F015F8022084F83D00211D206800F0FA
:1018600001FF01203D3460726070A070E070207153
:101870006071A071E07120722070002010BD70476F
:1018800090F83D10012901D001207047022180F815
:101890003D100168CA6842F00102CA60006811493F
:1018A00088420ED0104988420BD0B0F1804F08D04A
:1018B0000E49884205D00E49884202D00D4988421F
:1018C00009D1816801F00701062908D0016841F0BB
:1018D0000101016003E0016841F0010101600020A5
:1018E00070470000002C014000340140000400401B
:1018F00000080040000C0040704770B504462068A6
:1019000001694FF00005C943890716D4C168C9436E
:10191000890712D4E91E01610120207720688069BF
:10192000800703D02046FFF7E7FF05E0204600F0E0
:101930009BF8204600F028F9257720680169C94303
:10194000490718D4C168C943490714D46FF004018A
:101950000161022020772068806910F4407F03D065
:101960002046FFF7C9FF05E0204600F07DF820463D
:1019700000F00AF9257720680169C943090717D4DF
:10198000C168C943090713D46FF00801016104203D
:1019900020772068C069800703D02046FFF7ACFF9E
:1019A00005E0204600F060F8204600F0EDF82577CD
:1019B00020680169C943C90618D4C168C943C9066A
:1019C00014D46FF010010161082020772068C069ED
:1019D00010F4407F03D02046FFF78EFF05E020463D
:1019E00000F042F8204600F0CFF825772068016922
:1019F000C943C90708D1C168C943C90704D1891EB1
:101A00000161204600F026F920680169C9430906F2
:101A100009D4C168C943090605D46FF0800101618A
:101A20002046FFF705FF20680169C943490609D42C
:101A3000C168C943490605D46FF0400101612046E1
:101A400000F0FAF920680169C94389060BD4C1681E
:101A5000C943890607D46FF0200101612046BDE823
:101A60007040FFF7E6BE70BD704770B504460D4686
:101A700094F83C0001280AD0012084F83C0042B1CF
:101A8000042A1AD0082A2DD00C2A53D13EE0022075
:101A900070BD2946206800F03BFE2068816941F056
:101AA000080181612068816921F004018161206859
:101AB00081692A69114381613CE02946206800F070
:101AC0005BFE2068816941F4006181612068816961
:101AD00021F480618161206881692A6941EA0221DB
:101AE000816127E02946206800F080FE2068C169F6
:101AF00041F00801C1612068C16921F00401C161A0
:101B00002068C1692A691143C16113E02946206830
:101B100000F0A4FE2068C16941F40061C161206841
:101B2000C16921F48061C1612068C1692A6941EA03
:101B30000221C161002084F83C0070BD10B504464C
:101B4000002C03D094F83D0010B107E0012010BD37
:101B5000002084F83C00204600F015F8022084F8AC
:101B60003D00211D206800F07DFD01203D346072A4
:101B70006070A070E07020716071A071E0712072DF
:101B80002070002010BD70477047000010B504465B
:101B9000002909D004290AD008290BD094F8410063
:101BA00001280AD0012010BD94F83E00F8E794F80F
:101BB0003F00F5E794F84000F2E7022079B30429EA
:101BC00031D0082932D084F841000122206800F089
:101BD00091FD1B4A20681B49904201D0884203D1E5
:101BE000436C43F400434364206890420DD0884224
:101BF0000BD0B0F1804F08D01349884205D013496B
:101C0000884202D01249884213D1816801F007014D
:101C1000062912D0016841F0010101600DE0FFE7E3
:101C200084F83E00D1E784F83F00CEE784F8400016
:101C3000CBE7016841F001010160002010BD000008
:101C4000002C014000340140000400400008004026
:101C5000000C00402DE9F0470646684CA18B04F1CA
:101C60002005012902D1A98B012919D0012000F0FA
:101C700033FC634930680027624E4FF0010844F698
:101C80002069884268D1012001F010FB2071207981
:101C900010B1207907281FD384F80C80378023E007
:101CA00020694FF49671884206DA207B20B92869B2
:101CB000884201DA287B30B1002000F00DFCBDE83D
:101CC000F04700F0E7BB012000F006FC00F036FA18
:101CD000BDE8F04700F010BB3088484501D92773B4
:101CE00002E03088401C30802079012813D1607BCD
:101CF000217988420FD0607B032803D0607B0528C0
:101D000004D006E0A068401CA06002E0A068401E6D
:101D1000A06020796073207888B1207B01280ED0E4
:101D20002078012868D1A07B01280CD02079354982
:101D3000401E091D51F82000BDE8F0470047BDE8EE
:101D4000F04700F019BA20792E49401E1C3151F895
:101D50002000BDE8F04700472B4988424CD10220C3
:101D600001F0A4FA2871287910B12879072803D343
:101D700085F80C80778007E07088484501D92F737B
:101D800002E07088401C70802879012813D1687B9C
:101D9000297988420FD0687B032803D0687B052807
:101DA00004D006E0A868401CA86002E0A868401EB5
:101DB000A86028796873287888B1287B01280ED01C
:101DC0002878012818D1A87B01280CD028790D4942
:101DD000401E343151F82000BDE8F0470047BDE80F
:101DE000F04700F0A5BA28790649401E4C3151F859
:101DF0002000BDE8F0470047BDE8F087080200205A
:101E0000003401402C000020002C0140024600203C
:101E1000002908D0042909D008290AD00C2901D1A9
:101E20001068006C70471068406B70471068806BDA
:101E300070471068C06B70477047704770B50446B4
:101E400022681068D168526900F00F03002B08D196
:101E5000850606D58D0604D52046BDE8704000F005
:101E60004ABD002B60D002F0010301F490751D43C0
:101E70005AD0C50705D0CD0503D5E56B45F0010562
:101E8000E563450705D5D50703D0E56B45F00205A9
:101E9000E563850705D5D20703D0E26B42F0040263
:101EA000E263020707D501F020021A4303D0E26B78
:101EB00042F00802E263E26B002A2AD0800604D5D1
:101EC000880602D5204600F016FD20684069C0F360
:101ED0008010E16B090700D400B3204600F0F0FC4D
:101EE00020684169490615D5416921F040014161E9
:101EF000606B58B115494163606BFEF7D7FD002850
:101F000007D0606B416BBDE8704008472046FFF783
:101F100094FF70BD2046FFF790FF70BD2046FFF78D
:101F20008CFF0020E06370BD020606D50A0604D5CA
:101F30002046BDE8704000F083BD4006F3D548065A
:101F4000F1D52046BDE8704000F0C8BCB1280008BB
:101F500070B50446002C04D094F83900002510B167
:101F600006E0012070BD84F83850204600F022F8C9
:101F7000242084F839002068C16821F40051C16030
:101F8000204600F001FD2068016921F490410161C3
:101F90002068416921F02A0141612068C16841F44B
:101FA0000051C160E563202084F8390084F83A00CC
:101FB000002070BD704790F83A30202B01D00220ED
:101FC0007047F9B1F2B190F83830012B1CD0816222
:101FD0008285C2850021C163222280F83A2080F8E0
:101FE00038100168CA6842F48072CA6001684A69A0
:101FF00042F001024A610068C16841F02001C160FD
:1020000000207047012070470220704710B500681B
:102010001649884210D1164A907800237B2801D0B7
:10202000507808B3907813495478085550780728A9
:1020300003D05078401C507010BD90787D2811D18D
:102040000B48001D04786CB90C7804704C884480EF
:102050000C7904714C7944718C798471C979C1719E
:1020600001210170537010BD537010BD0038014044
:102070000E000020CC0000202DE9F84304460E4657
:1020800015461F4694F83900202802D00220BDE8EA
:10209000F883C6B1BDB194F83800012815D00120ED
:1020A00084F838004FF00009C4F83C90212084F8EF
:1020B0003900FEF757FF8046A584E584A068B0F597
:1020C000805F04D005E00120E1E70220DFE720691E
:1020D00020B13546002684F8389013E00025FAE751
:1020E0004346002280212046009700F0D8FC08B12A
:1020F0000320CCE79DB1216815F8010B4860E08C06
:10210000401EE084E08C0028EAD1434600224021B2
:102110002046009700F0C3FC40B10320B7E736F833
:10212000020B2168C0F308004860E8E7202084F82B
:1021300039000020ABE77047FEE700000A480021A5
:1021400002685163026891630849C98B0A22B1FB96
:10215000F2F10068C163064980200860054801214A
:102160000160490401607047480200200802002015
:1021700010080140100C0140084900200A68506313
:102180000A6890630968C86305494FF40000086055
:10219000C1110448016049000160704748020020F5
:1021A00010080140100C01400948C18A0948026822
:1021B00051630268002191630068C16306494FF4CE
:1021C0000000086005480121016049040160704772
:1021D000080200204802002010080140100C0140B5
:1021E0000948C18A09480268516302680021916365
:1021F0000068C16306494FF400000860C11105483A
:10220000016002210160704708020020480200209E
:1022100010080140100C0140094800210268516378
:10222000084AD28A03689A630068C163064980201D
:1022300008604102054801604900016070470000E4
:10224000480200200802002010080140100C014044
:102250000948002102685163084AD28A03689A63D8
:102260000068C16306494FF400000860C1110548C9
:10227000016002210160704748020020080200202E
:1022800010080140100C0140094800210268516308
:10229000026891630749C98A0068C16306498020C2
:1022A0000860410205480160490001607047000074
:1022B000480200200802002010080140100C0140D4
:1022C0000948002102685163026891630749C98A7D
:1022D0000068C16306494FF4000008600548012109
:1022E0000160490401607047480200200802002094
:1022F00010080140100C01400A4800210268516397
:10230000026891630849C98B0A22B1FBF2F10068A7
:10231000C16306484FF40051016049000160C106E5
:10232000016070479002002028020020100C01403C
:10233000084900200A6850630A6890630968C86306
:1023400005484FF00051016081060160C10601603F
:102350007047000090020020100C01400948C18A1B
:102360000948026851630268002191630068C163F3
:1023700006484FF000510160C9130160C1060160B9
:10238000704700002802002090020020100C01403D
:102390000948C18A094802685163026800219163B3
:1023A0000068C16306484FF000510160810601607A
:1023B000C91301607047000028020020900200202D
:1023C000100C01400948002102685163084AD28A72
:1023D00003689A630068C16306484FF400510160C6
:1023E00081060160C1060160704700009002002074
:1023F00028020020100C01400948002102685163A6
:10240000084AD28A03689A630068C16306484FF09D
:102410000051016081060160C9130160704700002E
:102420009002002028020020100C014009480021E1
:1024300002685163026891630749C98A0068C163F1
:1024400006484FF40051016081060160C106016039
:10245000704700009002002028020020100C01406C
:102460000948002102685163026891630749C98ADB
:102470000068C16306484FF000510160C913016054
:10248000C106016070470000900200202802002071
:10249000100C014000B5FFF76FFEFFF749FF002069
:1024A00000F01AF80849086864280ADB0748C08B5E
:1024B000074AD28B1044074A400810606420086025
:1024C00000BD401C086000BD9000002008020020F4
:1024D00028020020402C01400A4A00280DD00A485A
:1024E0000023036009490868002803DC50141060C9
:1024F0000B607047401E086070474FF0005010603E
:102500007047000010080140402C0140900000205E
:10251000FEE7704708B507494FF4FA520968B1FB66
:10252000F2F14143009100BF0098411E0091FAD2A0
:1025300008BD000008000020704770470148FFF701
:10254000DCB900009002002010B515480068016950
:10255000C943C90722D1891E0161124C2078002885
:102560001CD00F4A1048903AA2F1240101F0AAF9B8
:102570000B4A0E48483AA2F1240101F0A3F9607811
:1025800000280BD006490848243900F031FE0449E0
:10259000BDE810402439054800F02ABE10BD0000F7
:1025A00010040020960000200802002028020020CD
:1025B00070B5254E30680169254CC9430B07234986
:1025C0004FF0000506F148022DD46FF008030361B7
:1025D000106858B1086820F4007008601560082180
:1025E0003046FFF713FC401CE08070BD086840F4E3
:1025F000007008600220106008211348FFF706FCF5
:10260000401CA080A08801F067FD02460B46002018
:10261000104901F089FB01F01BFD2080E0886080FB
:102620003068456270BD0369DB43DB07FAD19B1E4E
:10263000036125806580E580A580086820F400702E
:102640000860156070BD000058040020200800409C
:102650009800002080842E410148FFF74EB9000009
:10266000480200202DE9F04102681D4D1D4E1E4F0D
:10267000DFF878C01E4B4FF08048A84209D098423E
:1026800007D0404505D0B04203D0B84201D06045E4
:1026900003D122F070044A682243A84209D098422C
:1026A00007D0404505D0B04203D0B84201D06045C4
:1026B00003D122F44074CA6822434C6922F080029C
:1026C000224302608A68C2620A688262A84201D01C
:1026D000984201D10969016301214161BDE8F0819E
:1026E000002C01400004004000080040000C0040A5
:1026F0000034014010B501F01F0101238B40046A32
:102700009C430462036A8A401343036210BD0000C5
:10271000F0B5026A22F001020262026A436884692B
:1027200024F0700424F003050C682C4322F0020509
:102730008A682A430E4E0F4FB04201D0B84205D1ED
:1027400022F00805CA682A4322F00402B04201D0F0
:10275000B84207D123F4807323F400734D691D43FD
:102760008B692B4343608461496841630262F0BD19
:10277000002C014000340140F0B5026A22F0100242
:102780000262036A4268846924F4E04424F44074D9
:102790000D6844EA052423F020038D6843EA0513FD
:1027A000104D114EA84201D0B04206D123F0800353
:1027B000CF6843EA071323F04003A84201D0B04298
:1027C00009D122F4806222F400624D6942EA850256
:1027D0008D6942EA850242608461496881630362CF
:1027E000F0BD0000002C014000340140F0B5026A49
:1027F00022F480720262026A4368C46924F07004A1
:1028000024F003050C682C4322F400728D6842EA20
:102810000522104D104EA84201D0B04206D122F43C
:102820000062CF6842EA072222F48062A84201D007
:10283000B04209D123F4805323F400534D6943EA95
:1028400005138D6943EA05134360C4614968C16398
:102850000262F0BD002C01400034014030B5026A34
:1028600022F480520262046A4268C36923F4E0439E
:1028700023F440730D6843EA052324F400548D6863
:1028800044EA0534084DA84202D0084DA84204D1BC
:1028900022F480424D6942EA85124260C361496870
:1028A0000164046230BD0000002C0140003401408E
:1028B00010B5406A0021C185C184FFF7BEFA10BD82
:1028C0000168CA6822F49072CA6001684A6922F0FD
:1028D00001024A61202180F83A10704710B5016862
:1028E000CA6822F04002CA60202180F83910FFF740
:1028F00022FC002010BD10B590F83A10222901D01A
:10290000022010BD82684FF480539A4201D10169C0
:1029100021B1816A9A421DD052B10BE0816A0268EE
:102920005268C2F308020A80816A891C816209E048
:1029300002697AB10268526802F07F020A70816A05
:10294000491C8162C18D491E0904090CC18505D04D
:10295000002010BD026852680A70F0E70168CA687A
:1029600022F02002CA600168CA6822F48072CA603C
:1029700001684A6922F001024A61202180F83A1078
:10298000FFF744FB002010BD70B5044620680169C4
:10299000E26821F4405111430161A16820690143BB
:1029A000606901432068C26841F20C639A430A439C
:1029B000C26020684169A26921F4407111434161FC
:1029C0001E492068884202D1FEF704FD01E0FEF7AF
:1029D000F1FC00EBC00101EB00106168642289008A
:1029E000B0FBF1F3B3FBF2F36FF018067343B0FBE7
:1029F000F1F5B0FBF1F605EB8305322303EB05158A
:102A0000B5FBF2F5B6FBF2F605F0F00505EB0615A1
:102A1000B0FBF1F6B0FBF1F0B0FBF2F06FF0180193
:102A2000484306EB800003EB0010B0FBF2F0216896
:102A300000F00F002844886070BD0000003801409D
:102A400090F83910212901D0022070478168B1F532
:102A5000805F01D1016961B1016A4A1C02620268AA
:102A600009785160C18C491E0904090CC1840AD03F
:102A700013E0016A02680988C1F308015160016A24
:102A8000891C0162EEE70168CA6822F08002CA6010
:102A90000068C16841F04001C160002070472DE925
:102AA000F04104460E4617469846069D1DE0681CF8
:102AB0001BD02DB1FEF756FAA0EB0800A84214D99E
:102AC0002068C16821F4D071C1602068416921F09B
:102AD00001014161202084F8390084F83A00002087
:102AE00084F838000320BDE8F0812068006836EAE9
:102AF000000004D00020B842D9D00020F3E7012024
:102B0000F9E7000008B50948FFF798F90748006899
:102B10000168C943090702D4016840680090BDE814
:102B20000840012202490148FFF745BAC8010020C8
:102B300010000020FEE70907090E002804DB00F161
:102B4000E02080F80014704700F00F0000F1E02052
:102B500080F8141D70472DE9F0414F1E00EBC701AE
:102B60000446D1E9000115461E4637F006020DD095
:102B70002A46334601F0C4FA7F1E04EBC703D3E9AB
:102B8000002301F015F837F00602F1D1022F25D00D
:102B9000042F13D0062F18BFBDE8F0812A46334614
:102BA00001F0AEFAD4E90A2301F002F82A463346CE
:102BB00001F0A6FAD4E9082300F0FAFF2A463346CA
:102BC00001F09EFAD4E9062300F0F2FF2A463346CC
:102BD00001F096FAD4E9042300F0EAFF2A463346CE
:102BE00001F08EFAD4E9022300F0E2FF2A463346D0
:102BF00001F086FAD4E90023BDE8F04100F0D8BF27
:102C0000002213461046014901F08EB80000F03F43
:102C1000012201F0A4BF002213461046114601F024
:102C200083B870472DE9F0478EB0182104A8FDF74E
:102C3000EEFA00260196029603966748816941F4F0
:102C400000718161816901F400710091816941F035
:102C500004018161816901F004010091816941F001
:102C600010018161816901F010010091416941F019
:102C700001014161406900F0010000904FF002083D
:102C8000CDF810804FF40040069004A8FEF75CFADF
:102C90003F200A9003270B970C960D970AA94F48DF
:102CA000FEF74EF830200A900AA94D48FEF748F882
:102CB0004D4C4C4820606660A6608020E0604FF478
:102CC0008079C4F81090C00060612020A061C0012C
:102CD000E0612046FDF792FF04F144054348286077
:102CE0006E60C5F808904FF0010985F80C904FF020
:102CF000080AC5F810A02E75AE614FF46020E86197
:102D00002846FDF7AFFD002207210B20FEF772F9E0
:102D10000B20FEF762F92C6265620196CDF80890EF
:102D20000724039401A92846FDF714FDCDF804906B
:102D3000CDF80880039401A92846FDF70BFDCDF8D6
:102D400004800297039401A92846FDF703FD01972B
:102D5000042502950394244801A94430FDF7FAFCA8
:102D600001950525029503941F4801A94430FDF7FC
:102D7000F1FC01950620029003941B4801A9443000
:102D8000FDF7E8FC0E20019002940394164801A977
:102D90004430FDF7DFFC0F200190CDF808A003942C
:102DA000114801A94430FDF7D5FC0F484430FDF728
:102DB0005FFC0D4A0D49082374324C310A48FDF777
:102DC0005DFF094908227431A1F13000FDF7DEFDF5
:102DD0000EB0BDE8F087000000100240000801407E
:102DE0000010014008000240D802002000240140E9
:102DF0002DE9F047054600260027B046B1460024DD
:102E0000DFF828A12AE00A2000F036FA48480068D6
:102E1000BAF80000BAF80210814201D9BAF80200EB
:102E2000BAF80410814201D9BAF80400BAF80610C1
:102E3000BAF808208A4201D9BAF80810BAF80A206C
:102E40008A4201D9BAF80A1006440F44BAF80C00B5
:102E50008144BAF80E008044641CE4B2AC42D2D380
:102E6000B6FBF5F0B7FBF5F6B9FBF5F7B8FBF5F8EF
:102E700001F0E4FC2F4D294601F0CAFB01F0A6FC4D
:102E80002D4CA082304601F0D9FC294601F0C0FB50
:102E900001F09CFC294EB082294D2888642842D933
:102EA000384601F0CBFC274901F0DCFC264901F053
:102EB000D9FC0746208B01F0C1FC244901F0D2FC6B
:102EC000394601F03DFB01F081FC2083208B3083EB
:102ED0001F48B0FBF8F0A0F54050D43801F0AEFC2C
:102EE0001C4901F095FB01F0FFFA00F06FFA4FF07A
:102EF000C042194B01F004F94FF04042174B00F06B
:102F000057FE02460B460020154900F00DFF01F068
:102F10009FF8A0F5D440B3386083608B70830020A5
:102F20002880BDE8F087401C2880FAE74C03002089
:102F300000000240295C8F3D08020020280200208A
:102F400094000020295C8741CDCC4C3D3333733F46
:102F50000000710200401C466797303FE3796B3FE9
:102F6000000059402DE9F04F8DB08046894608FB9E
:102F700009F001F04BFC0146954801F049FB014680
:102F80004FF07E5001F044FB4FF0FF3101F015FE91
:102F900001F01CFC80B201908E48816941F004016F
:102FA0008161816901F004010091816941F00801AA
:102FB0008161816901F008010091816941F010018E
:102FC0008161816901F010010091816941F4006122
:102FD0008161816901F400610091816941F40051CE
:102FE0008161806900F4005000904FF4E07002901D
:102FF0000225039504950326059602A97648FDF758
:103000009FFE774875490160C0F8049000248460F1
:10301000C0F80C8004614FF0800AC0F818A0446129
:10302000FEF78CFD4FF0600BCDF818B007940894B4
:1030300009940A940B940C94002206A96848FEF7A0
:1030400014FD042206A96648FEF70FFD082206A912
:103050006348FEF70AFD029601270397049505963B
:1030600002A96048FDF76CFECDF808A002A95E48F1
:10307000FDF766FE3820029003940497059602A996
:103080005848FDF75DFE4FF4E0600290039504950B
:10309000059602A95448FDF753FE5148534948305C
:1030A0000160C0F804908460C0F80C800461C0F82E
:1030B00018A04461FEF742FDCDF818B007940894BB
:1030C00009940A940B940C944548002206A94830B0
:1030D000FEF7CBFC4248042206A94830FEF7C5FCA7
:1030E0003F48082206A94830FEF7BFFC4FF4604075
:1030F000029003970495059602A93A48FDF720FE31
:103100004FF4E050029003940497059602A93248C8
:10311000FDF716FEE802029003970495059602A9B2
:103120003148FDF70DFEA80202900395049705961D
:1031300002A92D48FDF704FECDF818B007940895B4
:1031400009950A940B940C9425480C2206A9483042
:10315000FEF78BFC002202212C20FDF74BFF2C20D8
:10316000FDF73BFF1E48FEF78BFB00211C48FEF7D6
:103170000DFD04211A48FEF709FD08211848FEF745
:1031800005FD019800F078F8002202211920FDF7D2
:1031900031FF1920FDF721FF11484830FEF770FB81
:1031A0000F4800214830FEF7F1FC0D48042148305B
:1031B000FEF7ECFC0A4808214830FEF7E7FC084817
:1031C0000C214830FEF7E2FC0DB0BDE8F08F0000A6
:1031D0000000904200100240001001400034014005
:1031E00048020020000C014000080140002C014072
:1031F00070B504460D46A08B002808D0A08A01F0C7
:103200001DFB0146284600F093F8E08370BD0020C6
:10321000E0836860E861286270BD000010B5044674
:103220004FF0E022002111610020FEF7DFFA024991
:10323000E008088010BD00000C00002070B54FF4BD
:103240007A71B0FBF1F4B0FBF1F201FB1205094E0B
:1032500003E0304600F010F8641E002CF9D1002D78
:1032600006D04FF47A706843BDE8704000F004B8AF
:1032700070BD000040420F000B49098848434FF0E1
:10328000E021486100238B61086940F0010008617A
:103290000869C20701D0C003FAD5086920F001000F
:1032A00008618B61704700000C00002070B500249D
:1032B000012802D0022819D033E01B4D20212846D6
:1032C000FDF748FE012800D1042410212846FDF70F
:1032D00041FE012801D144F0020408212846FDF7EF
:1032E00039FE01281DD144F001041AE00F4D4FF4BE
:1032F00080512846FDF72EFE012800D104244FF40A
:1033000000612846FDF726FE012801D144F00204A1
:103310004FF480612846FDF71DFE012801D144F0DD
:103320000104204670BD0000000C01400010014067
:1033300070B50446206801F06BFBA061E0690121D3
:1033400001F03BFCA16901F059FB216A01F0F8F89A
:10335000616901F087FAA1690546206901F082FAE6
:10336000E1690646A06901F053FBE16801F07AFAD1
:10337000314601F0E5F8294601F0E2F8616801F014
:10338000DFF86060E0692062A069E0616168084878
:10339000814201DD606005E0606810F1FF4F01D3FC
:1033A000002060606068BDE8704001F00FBA000066
:1033B00000006144002800DA40427047904201DD7D
:1033C000104670478842FCDA084670472DE9F04DF8
:1033D000C84A002490B0914205DA21F0004393429C
:1033E00001D805D120B110B0BDE8F04DFFF710BCF9
:1033F000B1F5801F1BDA53EA000209D0002911DA67
:103400000120FCF734FF10B0BDE8F04DFFF703BC1E
:103410000220FCF72CFFFFF7F3FB10B081F0004116
:10342000BDE8F08D6FF03504362201F098FB04EB17
:103430002152C1F31308B049A2F2FF33414401F411
:10344000801282F07F6103EB225281F040510092A2
:1034500041EA08010022A94B00F05CFF044608F194
:103460000200A74EC0F313000D467E44032867D226
:10347000D6E90023204600F0AFFD1ED100980028B9
:1034800002BFD6E9000110B0BDE8F08D00F00DFEDE
:1034900007460C469B4A9C4B00F032FE06460D4602
:1034A0009A4A9B4B3846214600F02AFE10B032461D
:1034B0002B46BDE8F04D00F07BBB4FF05532954BED
:1034C0002046294600F01CFE0022934B00F016FF18
:1034D00006460F4622462B461046194600F010FEBF
:1034E00032463B4600F00CFE064600980F46F0B10F
:1034F00000F0DBFD80468A46824A834B00F000FEE6
:1035000032463B4600F0FAFE22462B4600F002FF10
:1035100005460C467D4A7E4B4046514600F0F0FD84
:1035200010B02A462346BDE8F04D00F0F3BE0B462E
:1035300010B0324620462946BDE8F04D00F0EABE04
:1035400000224FF08043204600F032FB02460B463B
:103550002046294600F0E8FB06460F46009800F09A
:10356000A4FDCDE9040132463B461046394600F041
:10357000C7FD0C9069480C9A4044019009910B4694
:10358000104600F0BDFD8246024665488B46C8F1F4
:1035900051080B4608F5D72803217844FFF7DBFADA
:1035A00052465B4600F0ACFD0A905E480D915246D3
:1035B0005B4604217844FFF7CEFA099B0C9A00F091
:1035C0009FFD844601980D9B40EA080860460A9AD0
:1035D00000F0EEFA83460891B8F1000F4EDD4FF08F
:1035E000FF322046294601F0BAFA22462B4600F067
:1035F00087FD804600988A4660B3DDE90401414AB0
:10360000414B00F07DFD099100905A4640465146DD
:10361000089B00F0CDFA32463B4600F071FD099B55
:10362000009A00F0C5FA4246534600F067FE224673
:103630002B4600F06FFE04460D46DDE90401334AD7
:10364000334B00F05DFD10B022462B46BDE8F04D37
:1036500000F060BE5A464046089B00F0A9FA324688
:103660003B4600F04DFD4246534600F047FE10B089
:1036700022462B46BDE8F04D00F040BE009840B316
:10368000DDE904011F4A204B00F03AFD80468A46DE
:103690005A4620462946089B00F03CFE32463B46EF
:1036A00000F02EFD4246534600F034FE22462B46E3
:1036B00000F030FE04460D46DDE90401134A144BC8
:1036C00000F01EFD10B022462B46BDE8F04D00F084
:1036D00021BE0B465A462046294600F01BFE3246C4
:1036E0003B4600F00DFD10B022462B46BDE8F04DE4
:1036F00000F004BE0000F07F645F09000000F03FAE
:103700001A180000763C7935EF39EA3D0000E0FEFA
:10371000422EE63F5555D53F0000E03F86EBF9FFCE
:10372000B2160000B016000008B5FDF721FC4FF4FA
:10373000E01000F09FF94820FFF770FD59488169BB
:1037400041F001018161806900F00100009056495B
:10375000486820F0E06040F0007048604FF4E130CD
:1037600000F086F9C820FFF769FD504C0027E7827A
:1037700027700120A073A770E770277344F62061BB
:1037800021834B48C7820770022282738770C770FB
:1037900007730183052140F2E730FFF7E3FB4FF4A5
:1037A000FA70FFF74BFDFFF73DFA642000F0ECF8EC
:1037B000404EDFF8049131680A20B1FBF0F200FBC3
:1037C000121010B90120FCF73FFE31680520B1FB53
:1037D000F0F200FB121010B91420FFF709FB30685B
:1037E0001425B0FBF5F105FB110028B92F4800F0B6
:1037F00099F82F4800F096F83068B0FBF5F105FB1A
:103800001100C0BB206901F001F8DFF8B0A05146FB
:1038100001F028F80546A06840F6B83148434FF05B
:103820000E0890FBF8F000F0F1FFDFF894B0594675
:1038300001F018F8294600F083FE00F0ABFF20618C
:10384000A7601B4D286900F0E1FF514601F00AF81E
:103850008246A86840F6B831484390FBF8F000F083
:10386000D5FF594600F0FEFF514600F069FE00F01A
:1038700091FF2861AF603068401C02D0306820B1F1
:1038800006E0FF2089F8000002E0012089F800002E
:10389000306899F80010084430600120FFF7CEFC32
:1038A00089E70000001002400000014008020020EB
:1038B0002802002028000020000000203333333F7E
:1038C0009A99993E2DE9F04104460D461646207816
:1038D000012803D1E07808B9207B48B10020686056
:1038E000E86128627060F0613062E082BDE8F081DA
:1038F000A08A00F0A3FF01463046FFF719FD87B20A
:10390000206900F083FF01462846FFF711FD80B2D1
:10391000874203D9E08268687060E7E7E7827068F1
:103920006860E3E730B5018B44F2506201239142B5
:1039300000D20373418B42F228340022A14201D904
:10394000C37005E0418B41F65834A14200D2C270E9
:10395000818A4AF6C8750B4CA94208D98370A188A0
:10396000491C89B2A1800A2900D9437030BD618801
:10397000491C89B261801929F8D96280A2808270BD
:10398000427030BD0000002030B41C4A002111609C
:10399000516091609161D1611162194BD3601361E3
:1039A000516124321160516091609161D161116265
:1039B000144CD460144D1561516124321160516072
:1039C00091609161D1611162D360136151612432C0
:1039D0001160516091609161D1611162D460156193
:1039E000516124321160516091609161D161116225
:1039F000D4601561516130BC00F008B85C03002050
:103A00000AD7A33B6F12033B6F12833A08B51549DF
:103A1000CA6942F00102CA61C96901F0010100915D
:103A200011494FF080420A6040F2CF224A600022E2
:103A30008A600E4BB3FBF0F0401EC8600A61802024
:103A400088614A610846FDF7F5FE002208211C2026
:103A5000FDF7D0FA1C20FDF7C0FABDE80840024887
:103A6000FDF70EBF0010024010040020A0860100E8
:103A700000F02CB870B590B00646282106A8FCF7D7
:103A8000C6FB142101A8FCF7C2FB01210691090421
:103A900007910024089402250D950E910F9606A813
:103AA000FDF7E2FC00B1FEE70F20019002950394C0
:103AB0004FF4806004900594022101A8FDF7CAFB31
:103AC000002800D0FEE710B070BD000070B586B0D1
:103AD00005462849886940F008008861886900F037
:103AE00008000190886940F480408861886900F48A
:103AF00080400190886940F001008861886900F089
:103B0000010001901C4A516841F0E06141F004015C
:103B10005160402002900220039001200490032075
:103B20000590164E02A93046FDF70AF98020029052
:103B30000024039402A93046FDF702F92520FDF781
:103B40004CFA002202212520FDF754FA0D490C48B9
:103B500008604D608C60CC600C618C610C20486109
:103B60000846FEF7F5F9012207490648FEF723FA51
:103B700006B070BD0010024000000140000C014082
:103B800000380140C80100201000002010B50A468E
:103B900001464FF47A730548FEF76EFA0348006851
:103BA0000168C9434906FBD410BD0000C8010020CC
:103BB00010B591EA030F48BF83F0004300F1B283D0
:103BC000841A71EB030C05D2121943EB0C03001B92
:103BD00061EB0C01DFF824E14FEA1154A4EB135C14
:103BE0001EEA430F18BF9EEA445F73D023EA0E0318
:103BF000DCF1200E21EA045143F4801332D322FA7F
:103C00000CFE10EB0E0023FA0CFE41EB0E01CCF182
:103C1000200E03FA0EFE10EB0E0051F10001B1F57B
:103C2000801FCCF1200E32D201EB045112FA0EF2B9
:103C3000BDE8104058BF7047401C38BF5FEA4202E1
:103C400018BF7047002814BF20F0010041F10001A7
:103C50004FEA410313F5001F38BF7047A1F1C0417F
:103C600000F046BB012A43EB0302ACF1200CDCF16F
:103C70001F0E32BF4FF0000E23FA0CF310EB0300BF
:103C800041EB0451B4EB115FD0D0A1EB045101F52D
:103C9000801149085FEA300001EB04510ED350F166
:103CA000000038BF12FA0EFE08D1BDE81040C9E787
:103CB000401C38BF5FEA4202CAD1C3E7BDE81040EA
:103CC0004FEA410313F5001F38BF7047A1F1C0410F
:103CD00000F00EBB9EEA445F08D011EA5E0FBDE81B
:103CE000104004BF01F0004100207047BDE81040C3
:103CF00070B500F0AFFA00BF64FBBE3E0000E0FF0D
:103D000002494FF0000000F0F8BE00BF0000F87F4D
:103D1000491058BFC1F140415B1058BFC3F1404347
:103D20008B42EFF3008070472DE9C04130B4DFF8DB
:103D3000A0C23CEA111418BF3CEA131400F0EC8056
:103D400081EA03051CEA111444EAD57418BF1CEA81
:103D5000131500F0C780A4EB05044FF0004545EAB9
:103D6000C12145EAC32341EA505143EA525304F1C9
:103D70007F74994204F500344FEAC0204FEAC22212
:103D800008BF904200F09C804FEA13650FF2401686
:103D9000765D4FEA134506FB05F7C7F1807706FB12
:103DA00007F74FEAD737A7FB03687642C8F5803894
:103DB000A7FB06CE38BFA8F1010807FB08E64FF0C5
:103DC000000EA6FB028CE6FB03CEDCF1000CCEF16C
:103DD000004E38BFAEF1010EA6FB0C584FF00007A5
:103DE0004FF00005E6FB0E87A1FB08C6A0FB07CE3F
:103DF00016EB0E0645F10005E1FB076515F1E04EF7
:103E00007EBFA4F580345FEA46066D4116F1800757
:103E100045F100054FEA17274FEA066647EA0567AE
:103E2000A6F1DE46B6F1805F4FEA15251FD9384668
:103E300024F0010C05EBC471BCF1FE6F01EB0C1119
:103E400002D8F0BCBDE8008124425CBF01F5801EB1
:103E50009EEAC47F02D4F0BCBDE80081244238D47D
:103E6000F0BCA1F1C041BDE8004100F041BA4FEA09
:103E7000D22242EA43524FEAD323A7FB02864FEAFB
:103E8000D02040EA415007FB03661EEA0E0F4FEABE
:103E9000D12105FB026658BFA6EB0056B6EB0056D3
:103EA0004FEA520E4EEAC37E18EB0E0E56EB530E3F
:103EB000BDD518EB02085E417F1C55F10005B6E741
:103EC0004FF480154FF000074FF000064FF0000848
:103ED000ADE7F0BC4FF0000001F1C04101F000413E
:103EE000BDE8008111EA0C1F0CEA131500D00CE0AC
:103EF00013EA0C1F00F025804FF00000F0BC81EAAF
:103F0000030101F00041BDE80081F0BCBDE80041C3
:103F100081EA030100F0ECB9F0BCBDE8004170B5E6
:103F200000F098F9097EFC3E00F007B881EA030131
:103F30004FF0000001F00041704781EA030100F0FA
:103F4000D7B9F0BCBDE800414FF0000021497047EF
:103F5000FFFDFBF9F7F5F4F2F0EEEDEBE9E8E6E44E
:103F6000E3E1E0DEDDDBDAD8D7D5D4D3D1D0CFCDD5
:103F7000CCCBCAC8C7C6C5C4C2C1C0BFBEBDBCBB0E
:103F8000BAB9B8B7B6B5B4B3B2B1B0AFAEADACAB09
:103F9000AAA9A8A8A7A6A5A4A3A3A2A1A09F9F9EE3
:103FA0009D9C9C9B9A999998979796959594939395
:103FB000929191908F8F8E8E8D8C8C8B8B8A89892C
:103FC00088888787868585848483838282818180AF
:103FD0000000FF070000F87F51EA030C17D41CF51E
:103FE000801F58BFBCF5801F00F10680994218BFA2
:103FF000704708BF9042704707D711F5801F58BF20
:1040000013F5801F19D499427047894270471CF5F7
:10401000801F08D5BCF5801FF7D58B4218BF7047AD
:1040200008BF824270474FF4001C1CEB410F38BFA1
:104030001CEB430F01D28B42704770B500F00AF9B8
:10404000922449004FF000514FF08053FFF760BEBB
:104050004FEA1153A3F58063D3F11E03A8BFD3F138
:10406000200C08DB4FF0004242EAC12252EA5052D3
:1040700032FA03F0704709420BD4102BC4BF002062
:10408000704703F5787CBCF1FF3F05D04FF0FF305F
:1040900070474FF00000704770B500F0DBF800BFCC
:1040A0004992248000207047F0E710F0004248BF9A
:1040B0004042B0FA80F310FA03F10AD0C3F11D03B5
:1040C00003F580634FEA415002EB035202EBD1212A
:1040D00070474FF000007047B0FA80F310FA03F118
:1040E0000AD0C3F11D0303F580634FEA41504FEA44
:1040F000035202EBD12170474FF0000070470000DF
:10410000DFF848C170B51CEA111E1EBF1CEA13156A
:104110009EEA0C0F95EA0C0F00F06F8081EA030411
:1041200023EA4C134EEAD47E21EA4C1141F480116B
:1041300043F48013AE44A1FB024CA0FB0365AEF137
:104140007F7E361955EB0C05A1FB034C4CF10003A7
:10415000A0FB021C16EB0C06654153F1000309425B
:1041600018BF46F0010613F4007F0BD14FEA03316C
:104170004FEA0530340341EA155140EA16506FF01A
:1041800003020AE04FEAC3214FEAC520F40241EAE4
:10419000555140EA56506FF0020202EB2E4201EBFD
:1041A000025585EACE710AD05FEA440C18BF24F0AC
:1041B000004450F1000041F1000120EAD47040F2C7
:1041C000FE7C624500D270BDA84214BF4FF080440F
:1041D0004FF04044002E08BF0024BEF1806FA8BFFE
:1041E000A1F1C041BDE8704080F282804FF0000034
:1041F00001F1C04101F0004170479EEA0C0F0CEA4A
:10420000131518BF95EA0C0F06D04FF0000081EA95
:10421000030E0EF0004170BD00F01CF88900013E55
:1042200000F007B800F009B84FEA430C5FEA5C5CA5
:1042300008D081EA030100F05BB84FEA410C5FEA65
:104240005C5CF6D14FF00000014970470000FF07A9
:104250000000F87F0EF1020E2EF0030E5EF8046BE4
:10426000364205D4012A43EB030515F5001F12D889
:10427000012841EB010C1CF5001F0CD80ED14FEAB0
:10428000D17C15F5001F0CEB4C0C0CF1020C08BF97
:104290004CEBD37C04E04FF0080C01E04FEAD37CF8
:1042A0000CEB4C0526FA05F606F00706B6F1040CF1
:1042B00006D20EEB860CBDE870404CF0010C604756
:1042C000DFE80CF0090B02024FF000414FF0000054
:1042D000A1F5002170BD19461046012851EB0104DB
:1042E00018BFD4F5001484BF002001F0004170BD58
:1042F0000808A0F500114FEA3101704791EA030F59
:1043000010B581F000413FF55BAC83F0004300F055
:1043100009B8000010B591EA030F48BF83F00043CD
:104320003FF54EAC841A71EB030C07D212198CF0D6
:10433000004C43EB0C03001B61EB0C01DFF8A4E124
:104340004FEA1154A4EB135C1EEA430F18BF9EEA18
:10435000445F00F0B08023EA6E03524221EA045128
:10436000C3EB6E0338BF5B1EDCF1200E25D322FAAF
:104370000CFE10EB0E0043FA0CFE41EB0E01CCF1EB
:10438000200E03FA0EFE10EB0E0051F10001CCF1ED
:10439000200E29D412FA0EF201EB0451BDE81040B0
:1043A00058BF7047401C1CBFB2F1004F7047002837
:1043B0000CBF491C20F00100704712EB020E43EBCA
:1043C000030218BF4FF0010E4EEA4202ACF1200C7E
:1043D000DCF11E0E54D943FA0CFE10EB0E0051F125
:1043E000FF31CCF11E0ED5D50EF1010E12FA0EFEE4
:1043F000404141EB010101EB445C5FEA5C5C10D998
:1044000010EBDE7001EB045138BFBEF1004FBDE888
:10441000104018BF704700280CBF491C20F0010055
:10442000704730D24FEAD42C11F5001124F4006407
:104430001BD0B1FA81F20B3AA41AA41ED2F12003C8
:10444000914030FA03F31943904001EBCC71002CFA
:1044500001EB0451BDE81040A8BF704701F1C04115
:104460004FF0000001F000417047B0FA80F310FAFD
:1044700003F100D110BDE41A173C4805C90AE4E76E
:1044800001EB045110BD491001EB0451BDE810408F
:104490004FEA300002E04FF0000170474A0008BFC9
:1044A0000042F8D0B2F5001F28BF704701F000416C
:1044B0004FF0000070479EEA445F07D011EA5E0F9C
:1044C000BDE8104004BF002100207047BDE8104047
:1044D00070B5FFF7BFFE00BF40DFF63E83F000413E
:1044E000104670470000E0FF43004FEAD30C4FEA4C
:1044F0003C0C43401FBF40070CF1605113F0FE4FCE
:1045000070471CF0006F03D100200CF00041704791
:104510000CF0004343EA507010B540EACC0000F0C4
:1045200022FA00BF000000924FEA0001FFF7E0BE50
:104530004FF000414FF00000A1F50021704700004E
:1045400090EA010F48BF81F0004100F16882421AF1
:104550003CBF801A89184FEAD0524FF07F4C1CEABA
:10456000410FA2EBD15318BF9CEA026F00F03B80D1
:104570004FF0004C4CEA00204CEA012121FA03FCE8
:1045800010EB0C0C1ED202F1FF325FEA1C2040EB54
:10459000C25038BF70471CF07F0F4FEA400C18BF65
:1045A000BCF17F4F38BF7047C3F12003994008BF6B
:1045B00020F00100BCF17F4F38BF7047A0F1C04030
:1045C00000F017BA4FEA3C00000A40EBC25028BF87
:1045D0001CF0FF0F4FEA400CE6D018BFBCF17F4F34
:1045E00038BF7047EAE79CEA026F05D010EA5C0F1B
:1045F00008BF00F00040704710B500F0B4F900BFEC
:1046000064FBBE3E014800F078BA00BF0000C07FE6
:104610004FF47F0C1CEAD0121EBF1CEAD11392EAA1
:104620000C0F93EA0C0F00F0858090EA010F48BF51
:1046300042F4807240F4000C41F400002CF07F4101
:1046400020F07F4000B58142A2EB03020FF2081C6C
:10465000ACEB504EC0F100009EF800E04FEA4E0E69
:1046600000FB0EFC38BF49004FEA2C1C02F5FA0291
:104670000CFB0EF34FEACE1E4FEA112C4FEAC1217C
:104680000EEB635E42EB22420EFB0CFC4FEA1C5326
:1046900000FB03114FEA112C4FEA01310EFB0CFC19
:1046A0004FEADC4C00FB0C11C14228BF09184CEB4F
:1046B00003335DF804EB10EB410143EBC250B2F55C
:1046C0007C0F38BF704729D512F0F00F1CBF00F1E6
:1046D000C04000F000407047008182838485868757
:1046E00088898B8C8D8E8F919293959697999A9CB1
:1046F0009D9FA0A2A3A5A7A8AAACAEB0B2B3B5B720
:10470000B9BCBEC0C2C5C7C9CCCED1D4D7D9DCDFF5
:10471000E2E6E9ECF0F3F7FAFE0000004FEA400CA5
:104720000CF1807CBCF17E4F28BF7047B0F1C040D7
:1047300000F05FB990EA010F0CEAD11348BF42F4D0
:104740008072624538BF634507D213F47F0F16D0DD
:1047500080EA010000F00040704710B500F003F956
:10476000097EFC3E00F005B880EA010000F0004040
:10477000704780EA010000F0004000F03AB912F4FE
:104780007F0F04BF0248704780EA010000F031B992
:104790000000C07F41000B0ED3F19E0208D950F4F7
:1047A00000034FEA032323FA02F048BF4042704758
:1047B00010B500F0D8F800BF49922480002070475F
:1047C0006FF0004282EA200070470000C10DD1F175
:1047D0009E0206DB4FEA002343F0004323FA02F077
:1047E0007047004207D54FEA4001B1F1FE4F02D2B7
:1047F0004FF00000704710B500F0B5F849922480E2
:10480000002070476FEA20007047000010F0004160
:1048100048BF4042B0FA80F310FA03F2C3F19D039F
:104820000BD051EAC35101EB1220530638BF704739
:1048300000F1010008BF20F001007047B0FA80F3DA
:1048400010FA03F2C3F19D030AD0D90501EB12203F
:10485000530638BF704700F1010008BF20F0010087
:10486000704700004FF47F0C1CEAD0121EBF1CEAF8
:10487000D11392EA0C0F93EA0C0F00F0478090EAF4
:10488000010F48BF42F480724FF0004C4CEA002008
:104890004CEA012102EB0302A0FB0113A2F5000286
:1048A000002918BF43F001035B0028BF4FEA330320
:1048B00042EB22425FEA132C4CEBC2502EBFBCEB02
:1048C000436FB2F57C0F70474FEA036CBCF1004FA9
:1048D00008BF20F00100B2F57C0F38BF70470BD540
:1048E00082F0FF0212F5803FC8BF704700F1C04060
:1048F000D8BF00F00040704700F5000C5FEA4C0C98
:1049000048BF7047B0F1C04000F073B890EA010FA3
:104910000CEAD11348BF42F48072624538BF634548
:1049200004D280EA010000F00040704710B500F0AA
:104930001AF800BF8900013E00F007B800F009B87E
:104940005FEA410C5FEA1C6C08D080EA010000F0CD
:1049500050B85FEA400C5FEA1C6CF6D14FF00040A3
:10496000A0F5800070470EF1020E2EF0030E5EF8E7
:10497000044B244204D44FEA4102B2F17F4F11D8D4
:104980004FEA4003B3F17F4F0CD80ED14FEAD07CF1
:10499000B2F17F4F0CEB4C0C0CF1020C08BF4CEB4E
:1049A000D17C04E04FF0080C01E04FEAD17C0CEB25
:1049B0004C0324FA03F404F00704B4F1040C06D207
:1049C0000EEB840CBDE810404CF0010C6047DFE8B2
:1049D0000CF0070802024FF00040A0F5800010BD67
:1049E0000846420018BFD2F1807288BF00F0004034
:1049F00010BDFF2141EAD050C005704780F0004053
:104A000090EA010F7FF5A3AD81F0004100F007B8F7
:104A100090EA010F48BF81F000413FF598AD421A7E
:104A200004D882F00042A0EB020011444FEAD052B9
:104A30004FF07F4C1CEA410FA2EBD15318BF9CEA08
:104A4000026F4AD04FF0004C4CEA00204CEA0121A2
:104A500021FA03FCB0EB0C0C0FD412F0FE0F36D091
:104A60005FEA4C001DD5001240EBC25038BF7047C2
:104A70001CF03F0F18BF70470BE0A2F101025FEA84
:104A80001C2040EBC25038BF70471CF07F0F18BF8E
:104A90007047C3F12003994014BF401E20F001006D
:104AA000704780084FEA122308BF7047B0FA80FCB5
:104AB000A2EB0C02CCF1280C60FA0CF093EA122F56
:104AC00004BF00EBC25070474FEAC3707047130A2F
:104AD0005FEADC1008BF7047F6E79CEA026F04D07B
:104AE00010EA5C0F08BF0020704710B5FFF73BFFCE
:104AF00040DFF63E81F0004070470CF00F03092BB9
:104B000008BF082000F07F800A2B0BD0082B18BFAD
:104B1000704708BF1CF0400F0AD04FF000004FF064
:104B2000000170471CF0400F18BF4FF00040704765
:104B30001CF0100F08D020F0704300F07F4242EAD2
:104B4000D3014FEA4370704700F0604021F07F428C
:104B500042EA000201F07F4040EA727070474FF075
:104B6000FF0C4CF4E06C1CEA11531CBF9CEA030CD4
:104B70009445C2BFDA4201EB02517047002B0DD0C1
:104B8000BCF1000F0FD0002A01F00041A4BF41F09A
:104B9000E04141F07F614FF00000704701F00041BB
:104BA0004FF00000704750EA01334FF09B0C18BFE4
:104BB0004CF0806C7FF4A4A870474FF0FF0212EA1B
:104BC000D0521CBF92F0FF038B42C2BFD14200EB18
:104BD000C1507047002A0AD0002B0BD0002900F0EA
:104BE0000040A4BF40F0FE4040F40000704700F0D9
:104BF0000040704743024FF00B0C18BF4CF0806C24
:104C00007FF400AD70471CF4801F11D01CF4E02F1E
:104C100003D06FEACC31490070474FF04050EFF3BA
:104C2000008222F0704242EA000282F3008870475C
:104C30004FF000007047000000000000000001027B
:104C40000304060708090000000001020304000035
:104C500004FA97999999D93FAF788E1DC571CC3FC9
:104C60009FC678D0099AC33F935555555555E53F92
:104C7000599322942449D23FDE03CB966446C73F22
:104C800044523EDF12F1C23F00000000000000006D
:104C9000B04C000800000020CC0000006C010008AF
:104CA0007C4D0008CC000020540A00008801000858
:104CB00001000000000000000024F40000000000DB
:104CC00000000000000000000000000001000000E3
:104CD00010000000000000000000000001000100C2
:104CE000C12200081922000889220008E1210008D9
:104CF000A92100085122000851220008A92100081A
:104D0000E12100088922000819220008C1220008B8
:104D100061240008C52300082D2400089123000801
:104D20005D230008F9230008F92300085D2300082B
:104D3000912300082D240008C523000861240008E1
:104D40000000000000000101000000000000000061
:104D5000000000000000000000000000C800FA0091
:104D60002C015E01C20126028A02EE02F401E80370
:0C4D7000DC05D007B80BA00F88137017EB
:0400000508000131BD
:00000001FF
